:100000000C943A250C946B250C946B250C946B2561
:100010000C946B250C946B250C946B250C946B2520
:100020000C946B250C946B250C946B250C946B2510
:100030000C946B250C94C7D60C946B250C946B25F3
:100040000C946B250C943A820C946B250C946B25C4
:100050000C946B250C946B250C9477930C9434D7EB
:100060000C946B250C94FF2C0C946B250C946B2535
:100070000C946B250C946B250C946B250C946B25C0
:100080000C946B250C946B250C946B250C946B25B0
:100090000C946B250C946B250C946B250C946B25A0
:1000A0000C946B250C946B250C946B250C946B2590
:1000B0000C946B250C946B250C946B250C946B2580
:1000C0000C946B250C946B250C946B250C946B2570
:1000D0000C946B250C946B250C946B250C946B2560
:1000E0000C946B25BC93CB93E793F69310941F94D9
:1000F00039943D9457D85CD861D86BD875D8EED870
:100100007FD887D88FD899D8A3D8ADD8BCD8C6D82F
:10011000EED8D0D8DAD8E4D80FD912D901D905D978
:100120000BD949D916D91AD920D924D928D92ED9E9
:1001300032D936D949D93CD940D944D9084AD73BD4
:100140003BCE016E84BCBFFDC12F3D6C74319ABDA6
:1001500056833DDA3D00C77F11BED9E4BB4C3E91CA
:100160006BAAAABE000000803F05A84CCDB2D44EB9
:10017000B93836A9020C50B9918688083CA6AAAABB
:100180002ABE000000803F0048617264636F6465AE
:10019000642044656661756C742053657474696E7F
:1001A0006773204C6F616465640053746F7265649B
:1001B0002073657474696E67732072657472696503
:1001C000766564002044002049002020204D333013
:1001D000312050005049442073657474696E677310
:1001E0003A00204D696E757465733A200020486F9F
:1001F0007572733A20004C61736572206C69666594
:1002000074696D652075736167653A00205A002036
:10021000590020204D323036205800486F6D65203F
:100220006F666673657420286D6D293A002045005D
:10023000205A0020580020420020540020204D3237
:100240003035205300416476616E636564207661C9
:10025000726961626C65733A20533D4D696E206628
:100260006565647261746520286D6D2F73292C207B
:10027000543D4D696E2074726176656C20666565CB
:10028000647261746520286D6D2F73292C20423DA6
:100290006D696E696D756D207365676D656E74202F
:1002A00074696D6520286D73292C20583D6D617827
:1002B000696D756D205859206A65726B20286D6DC7
:1002C0002F73292C20205A3D6D6178696D756D2042
:1002D0005A206A65726B20286D6D2F73292C20209F
:1002E000453D6D6178696D756D2045206A65726B5D
:1002F00020286D6D2F73290020540020204D3230AE
:1003000034205300416363656C65726174696F6E7C
:100310003A20533D616363656C65726174696F6E09
:100320002C20543D7265747261637420616363654F
:100330006C65726174696F6E00204500205A002060
:10034000590020204D3230312058004D6178696DC0
:10035000756D20416363656C65726174696F6E20B1
:10036000286D6D2F7332293A00204500205A002055
:10037000590020204D3230332058004D6178696D8E
:10038000756D2066656564726174657320286D6D96
:100390002F73293A00204500205A002059002020C0
:1003A0004D39322058005374657073207065722087
:1003B000756E69743A0053657474696E677320537F
:1003C000746F726564006563686F3A0053544F50F0
:1003D0005045442E20005072696E7465722073740B
:1003E0006F707065642064756520746F206572722B
:1003F0006F72732E2046697820746865206572726A
:100400006F7220616E6420757365204D3939392013
:10041000746F20726573746172742E202854656D38
:100420007065726174757265206973207265736599
:10043000742E20536574206974206166746572207F
:1004400072657374617274696E6729004B494C4C14
:1004500045442E20005072696E7465722068616C8C
:100460007465642E206B696C6C28292063616C6C48
:10047000656421006F6B00526573656E643A2000FD
:100480002200556E6B6E6F776E20636F6D6D616EBF
:10049000643A2022006C636420636F6E747261732F
:1004A000742076616C75653A20007A5F6D696E3AEA
:1004B0002000795F6D696E3A2000785F6D696E3A51
:1004C00020005A3A00593A0020436F756E74205844
:1004D0003A2000453A005A3A00593A00583A004644
:1004E00049524D574152455F4E414D453A4D61721B
:1004F0006C696E2056313B20537072696E74657260
:100500002F6772626C206D617368757020666F7200
:100510002067656E36204649524D574152455F551A
:10052000524C3A687474703A2F2F7777772E6D6536
:100530006E64656C2D70617274732E636F6D2050E4
:10054000524F544F434F4C5F56455253494F4E3ACA
:10055000312E30204D414348494E455F5459504556
:100560003A4C617365722043757474657220455806
:100570005452554445525F434F554E543A310A0048
:100580004C6173657220437574746572204F6666A2
:100590002E004C617365722043757474657220522D
:1005A000656164792E0042656420646F6E652E007B
:1005B00020423A0020453A00543A004265642048FF
:1005C000656174696E672E0048656174696E6720A5
:1005D000646F6E652E0020573A0020453A00543A69
:1005E0000048656174696E672E2E2E002042403AE5
:1005F0000020403A00202F003A00205400202F0015
:1006000020423A00202F006F6B20543A00256920C9
:100610006D696E2C2025692073656300456E64202A
:1006200066696C65206C69737400426567696E2049
:1006300066696C65206C697374004E6F206D6F760F
:10064000652E00526573756D696E67207072696EF4
:1006500074005761697420666F7220757365722E1D
:100660002E2E00536C6565702E2E2E002569206895
:100670006F757273202569206D696E7574657300DE
:10068000446F6E65207072696E74696E672066696A
:100690006C650053544F505045442E2000507269F1
:1006A0006E7465722073746F707065642064756514
:1006B00020746F206572726F72732E2046697820E5
:1006C000746865206572726F7220616E6420757344
:1006D00065204D39393920746F20726573746172E9
:1006E000742E202854656D70657261747572652072
:1006F00069732072657365742E2053657420697464
:100700002061667465722072657374617274696EBB
:100710006729006F6B004E6F204C696E65204E7527
:100720006D626572207769746820636865636B73B6
:10073000756D2C204C617374204C696E653A2000F5
:100740004E6F20436865636B73756D2077697468BD
:10075000206C696E65206E756D6265722C204C612F
:100760007374204C696E653A2000636865636B732F
:10077000756D206D69736D617463682C204C6173B5
:1007800074204C696E653A20004C696E65204E7588
:100790006D626572206973206E6F74204C61737492
:1007A000204C696E65204E756D6265722B312C2070
:1007B0004C617374204C696E653A20004D313130C4
:1007C00000473700473700473700473700446F6E10
:1007D0006520736176696E672066696C652E006FAF
:1007E0006B004D3239002020506C616E6E65724294
:1007F000756666657242797465733A2000204672A8
:100800006565204D656D6F72793A20004D617220EB
:100810002033203230313600436F6D70696C65646F
:100820003A2000286E6F6E652C2064656661756CD9
:100830007420636F6E6669672900207C204175749F
:10084000686F723A20004D617220203320323031BF
:10085000362031303A33373A333500204C617374E7
:1008600020557064617465643A20005665722031C9
:100870002E302E30004D61726C696E200020536F57
:1008800066747761726520526573657400205761E4
:10089000746368646F6720526573657400204272E8
:1008A0006F776E206F7574205265736574002045F4
:1008B000787465726E616C20526573657400506F58
:1008C0007765725570007374617274002200656EF2
:1008D000717565696E672022002200656E7175650D
:1008E000696E67202200FFFFFF0000A0400000A00B
:1008F000400000803F00C0044400800B440000BE64
:100900004200000000000000000000000000C004E1
:100910004400800B440000BE4200000000000000C4
:1009200000000000006563686F3A004572726F72E4
:100930003A007C3C3E5E2B3D3F2F5B5D3B2C2A22E8
:100940005C004D383420582059205A20450043611E
:100950006E6E6F7420656E74657220737562646963
:10096000723A20004D3234004D323320257300613D
:1009700075746F25692E67006572726F72207772C9
:100980006974696E6720746F2066696C65004E6FCC
:1009900074205344207072696E74696E67002F0072
:1009A0005344207072696E74696E67206279746551
:1009B00020002E0044656C6574696F6E2066616965
:1009C0006C65642C2046696C653A200046696C654C
:1009D0002064656C657465643A002E006F70656E06
:1009E000206661696C65642C2046696C653A20005C
:1009F00057726974696E6720746F2066696C653A16
:100A000020002E006F70656E206661696C65642C35
:100A10002046696C653A20002E006F70656E206676
:100A200061696C65642C2046696C653A20004669F2
:100A30006C652073656C6563746564002053697A26
:100A4000653A200046696C65206F70656E65643A92
:100A500020002E006F70656E206661696C65642CE5
:100A60002046696C653A200053442063617264201B
:100A70006F6B006F70656E526F6F74206661696C8A
:100A8000656400766F6C756D652E696E697420669D
:100A900061696C656400534420696E697420666105
:100AA000696C006563686F3A004572726F723A0054
:100AB0004C6173657220666972696E6720656E614C
:100AC000626C6564006563686F3A00506978656CB4
:100AD0003A20004C3A2000593A2000583A2000654C
:100AE0006E6473746F7073206869743A205A0020C2
:100AF0005A3A00656E6473746F7073206869743A53
:100B000020590020593A00656E6473746F70732029
:100B10006869743A20580020583A00656E6473740E
:100B20006F7073206869743A200024F4D43050C385
:100B30008E20C2A24017828B7011127A910D816CA7
:100B4000D90AA861E108C7586607615143061E4BE0
:100B50005D05C145A7041A411104093D9803713987
:100B600031034036DB0265339102D4305402802ECB
:100B70001D02632CEE01752AC501B028A0011027C3
:100B800081018F2564012B244B01E0223401AC212B
:100B90001F018D200D01801FFC00841EED00971D9C
:100BA000DF00B81CD200E61BC600201BBC00641A84
:100BB000B200B219A8000A19A0006A189900D1174A
:100BC000910040178B00B516840031167E00B315D6
:100BD00079003A157300C7146F0058146A00EE13B9
:100BE00066008813630025135E00C7125B006C1259
:100BF000570015125400C111510070114F002111FE
:100C00004B00D61049008D104700461044000210DA
:100C10004200C00F4000800F3E00420F3C00060F14
:100C20003B00CB0E3800930E37005C0E3500270ECC
:100C30003400F30D3200C10D3100900D3000600D15
:100C40002E00320D2D00050D2C00D90C2B00AE0C02
:100C50002900850C29005C0C2700350C27000E0CA0
:100C60002600E80B2400C40B2400A00B23007D0BFE
:100C700023005A0B2100390B2100180B2000F80A21
:100C80001F00D90A1E00BB0A1E009D0A1D00800A13
:100C90001D00630A1C00470A1B002C0A1B00110AD6
:100CA0001A00F7091A00DD091900C4091900AB0977
:100CB0001900920917007B091800630917004C09F5
:100CC000160036091600200916000A091500F50855
:100CD0001500E0081400CC081400B8081400A4089B
:100CE0001400900813007D0812006B0813005808C8
:100CF00012004608120034081100230811001208DF
:100D0000110001081100F0071000E0071000D007E3
:100D10001000C0071000B0070F00A10710009107D6
:100D20000E0083070F0074070F0065070E005707BA
:100D30000E0049070E003B070D002E070E0020078E
:100D40000D0013070D0006070D00F9060C00ED0657
:100D50000D00E0060C00D4060C00C8060C00BC0612
:100D60000C00B0060C00A4060B0099060C008D06C2
:100D70000B0082060B0077060B006C060B00610669
:100D80000A0057060B004C060A0042060A00380605
:100D90000A002E060A0024060A001A060A00100697
:100DA000090007060A00FD050900F4050900EB0526
:100DB0000900E2050900D9050900D0050900C705A9
:100DC0000900BE050900B5050800AD050800A50528
:100DD00009009C050800940508008C05080084059E
:100DE00008007C050800740508006C05070065050F
:100DF00008005D050700560508004E050700470579
:100E000007004005080038050700310507002A05DE
:100E10000700230507001C050600160507000F053F
:100E200007000805060002050700FB040600F5049C
:100E30000700EE040600E8040600E2040700DB04F5
:100E40000600D5040600CF040600C9040600C3044A
:100E50000600BD040600B7040600B1040500AC049A
:100E60000600A6040600A00405009B0406009504E5
:100E70000500900406008A0405008504050080042E
:100E800006007A04050075040500700405006B0473
:100E9000050066040500610405005C0405005704B4
:100EA0000500520405004D040500480405004304F4
:100EB00005003E0404003A04050035040500300432
:100EC00004002C04050027040400230405001E046C
:100ED00004001A04040016040500110404000D04A3
:100EE0000400090405000404040000040400FC03D9
:100EF0000400F8030400F4030400F0030400EC030E
:100F00000400E8030400E4030400E0030400DC033D
:100F10000400D8030400D4030400D0030400CC036D
:100F20000400C8030300C503030024F404D9201BF4
:100F3000C40C5C0E9804C4095F0265077101F405D6
:100F4000F900FB04B30048048700C103690058039B
:100F5000550003034500BE023A00840231005302EB
:100F60002A002902250004022000E4011C00C80117
:100F70001900AF01170098011400840113007101DA
:100F800010006101100051010E0043010D003601F7
:100F90000B002B010B0020010B00150109000C01B7
:100FA000090003010800FB000800F3000800EB0043
:100FB0000700E4000600DE000600D8000600D200AC
:100FC0000600CC000500C7000500C2000500BD00FA
:100FD0000400B9000400B5000400B1000400AD0035
:100FE0000400A9000400A5000300A20003009F0064
:100FF00004009B000300980003009500020093008A
:101000000300900003008D0002008B0003008800A5
:1010100002008600020084000300810002007F00BD
:1010200002007D0002007B000200790002007700D0
:1010300001007600020074000200720001007100DD
:1010400002006F0002006D0001006C0002006A00E7
:1010500001006900020067000100660001006500F0
:1010600001006400020062000100610001006000F4
:1010700001005F0002005D0001005C0001005B00F8
:1010800001005A00010059000100580001005700FA
:1010900001005600010055000100540001005300FA
:1010A00000005300010052000100510001005000F7
:1010B00001004F0001004E0000004E0001004D00F5
:1010C00001004C0001004B0000004B0001004A00F1
:1010D00001004900010048000000480001004700ED
:1010E00001004600000046000100450000004500E8
:1010F00001004400010043000000430001004200E1
:1011000000004200010041000000410001004000D9
:1011100001003F0000003F0001003E0000003E00D3
:1011200001003D0000003D0001003C0000003C00CB
:1011300000003C0001003B0000003B0001003A00C1
:1011400000003A00010039000000390001003800B9
:1011500000003800000038000100370000003700B0
:1011600001003600000036000000360001003500A6
:10117000000035000000350001003400000034009C
:101180000000340001003300000033000000330091
:101190000100320000003200000032000100310086
:1011A000000031000000310001003000000030007C
:1011B0000000300001002F0000002F0000002F0071
:1011C00000002F0001002E0000002E0000002E0065
:1011D00001002D0000002D0000002D0000002D005A
:1011E00001002C0000002C0000002C0000002C004E
:1011F00001002B0000002B0000002B0000002B0042
:1012000001002A0000002A0000002A0000002A0035
:101210000100290000002900000029000000290029
:10122000000029000100280000002800000028001C
:10123000000028000000280001002700000027000F
:101240000000270000002700000027000100260002
:1012500000002600000026000000260000002600F6
:1012600001002500000025000000250000002500E9
:1012700000002500000025000100240000002400DB
:1012800000002400000024000000240001002300CE
:1012900000002300000023000000230000002300C2
:1012A00000002300000023000100220000002200B3
:1012B00000002200000022000000220000002200A6
:1012C0000100210000002100000021000000210099
:1012D000000021000000210000002100010020008A
:1012E000000020000000200000002000000020007E
:1012F00000002000000020000000200001001F006E
:1013000000001F0000001F0000001F0000001F0061
:1013100000001F0000001F0001001E0000001E0052
:1013200000001E0000001E0000006563686F3A00A8
:101330004572723A204D494E54454D50003A204571
:101340007874727564657220737769746368656414
:10135000206F66662E204D494E54454D50207472C4
:10136000696767657265642021004572723A204D95
:10137000415854454D50003A204578747275646563
:1013800072207377697463686564206F66662E20C7
:101390004D415854454D50207472696767657265B8
:1013A00064202100202D20496E76616C69642065DF
:1013B00078747275646572206E756D626572202135
:1013C00000504944204175746F74756E65206669DC
:1013D0006E69736865642120507574207468652097
:1013E0004B702C204B6920616E64204B6420636F2E
:1013F0006E7374616E747320696E746F20436F6EC8
:1014000066696775726174696F6E2E680050494431
:10141000204175746F74756E65206661696C6564D2
:10142000212074696D656F75740020403A006F6B00
:1014300020543A006F6B20423A00504944204175D5
:10144000746F74756E65206661696C6564212054E3
:10145000656D706572617475726520746F6F206858
:1014600069676800204B643A2000204B693A2000ED
:10147000204B703A200020436C617369632050490F
:101480004420002054753A2000204B753A2000205B
:101490006D61783A2000206D696E3A200020643A30
:1014A000200020626961733A20004572726F723ABF
:1014B0000070012C0190012701B0012201C0011D23
:1014C00001F00118011002130130020E016002093F
:1014D0000190020401C002FF000003FA004003F57E
:1014E000008003F000D003EB002004E6007004E16C
:1014F00000E004DC004005D700C005D2004006CD66
:1015000000D006C8008007C3003008BE00F008B94C
:1015100000C009B400B00AAF00B00BAA00D00CA5FF
:1015200000000EA000500F9B00C0109600501291BA
:101530000000148C00C0158700B0178200B0197D20
:1015400000D01B7800001E730040206E00902269BE
:1015500000F024640040275F0090295A00E02B55DA
:1015600000102E500020304B0010324600E0334176
:101570000090353C001037370070383200A0392D0C
:1015800000B03A2800A03B2300603C1E00103D192B
:1015900000903D1400103E0F00703E0A00C03E0552
:1015A00000003F0000436172642072656D6F7665D4
:1015B00064004361726420696E73657274656400CF
:1015C00059002D2D3A2D2D00B0002D2E2D57002D18
:1015D0002E2D41002D2D2D2500302E325700322E7C
:1015E00035410025004730205A25732046313530DB
:1015F00000473238205A2046313530004375737425
:101600006F6D00437573746F6D00376D6D00366DCF
:101610006D202D20312F34696E00356D6D00346DD5
:101620006D00336D6D202D20312F38696E00326DC5
:101630006D00316D6D004C617365722046756E638F
:1016400074696F6E73004D3830005761726D2D757F
:1016500070204C61736572203273656300313030E5
:1016600025203130306D7300313030252020353069
:101670006D730020323025203130306D7300203200
:101680003025202035306D73004C61736572204623
:10169000756E6374696F6E73005465737420466968
:1016A00072650053657420466F637573004D616900
:1016B0006E005370656564005370656564004D612C
:1016C000696E00580059005A004578747275646557
:1016D00072004578747275646572004D6F7665208E
:1016E0005A004D6F76652059004D6F766520580081
:1016F0004D6F76652041786973004D6F76652030B7
:101700002E316D6D004D6F766520316D6D004D6F22
:1017100076652031306D6D005072657061726500C4
:101720004D6F76652041786973004D3830005377EE
:101730006974636820506F776572204F6E004D3872
:10174000310053776974636820506F776572204F5A
:10175000666600473932205830205930205A300010
:10176000536574204F726967696E0047323820589C
:101770002059204632303030004175746F20486F58
:101780006D65004D313700456E61626C65205374A4
:10179000657070657273004D38340044697361621E
:1017A0006C65205374657070657273004D61696E6D
:1017B000004573746570732F6D6D004573746570AB
:1017C000732F6D6D005A73746570732F6D6D005AB1
:1017D00073746570732F6D6D005973746570732F1A
:1017E0006D6D005973746570732F6D6D005873744F
:1017F0006570732F6D6D005873746570732F6D6D08
:1018000000412D7265747261637400412D726574BC
:101810007261637400416D6178206500416D61788B
:10182000206500416D6178207A00416D6178207AF1
:1018300000416D6178207900416D61782079004127
:101840006D6178207800416D61782078005654727F
:101850006176206D696E005654726176206D696EF6
:1018600000566D696E00566D696E00566D61782088
:101870006500566D6178206500566D6178207A00AC
:10188000566D6178207A00566D6178207900566D2A
:101890006178207900566D6178207800566D617806
:1018A00020780056652D6A65726B0056652D6A6555
:1018B000726B00567A2D6A65726B00567A2D6A65D6
:1018C000726B005678792D6A65726B005678792DA7
:1018D0006A65726B00416363656C00416363656CAC
:1018E00000436F6E74726F6C00436F6E747261733D
:1018F0007400526573746F7265204661696C736120
:101900006665004C6F6164206D656D6F7279005380
:10191000746F7265206D656D6F7279004C43442061
:10192000636F6E7472617374004D6F74696F6E00D3
:101930004D61696E004D383420582059205A204599
:10194000004D3234004D323320257300F92E2E0025
:101950004D61696E004E6F20436172640050726980
:101960006E742066726F6D2053440053746F702044
:101970005072696E7400526573756D65205072699E
:101980006E74005061757365205072696E74004307
:101990006F6E74726F6C0050726570617265005486
:1019A000756E65004C617365722046756E6374696F
:1019B0006F6E7300496E666F2073637265656E00AB
:1019C000FFF08F108F109F909F90801080108010DC
:1019D0008010801080108010FFF0FFF08F108F10AB
:1019E0009F909F90801086108610C630A6509690CB
:1019F000AF50FFF000060900FE070199032B20FFFE
:101A0000FE08FE07FE0000000600000107070602B0
:101A10000080808080800080030303060104A0A072
:101A2000A00507070600005050F850F85050050771
:101A3000070600002070A070287020050707060028
:101A40000048A8502050A89005070706000040A0B5
:101A5000A040A89068010303060204808080030769
:101A60000706010020408080804020030707060110
:101A70000080402020204080050505060001885098
:101A8000F850880505050600012020F820200303F2
:101A9000030601FF604080050101060003F803030F
:101AA000030601FF40E04005070706000008081094
:101AB0002040808005070706000020508888885055
:101AC000200507070600002060A0202020F8050759
:101AD00007060000708808304080F80507070600F8
:101AE00000F808103008887005070706000010305D
:101AF0005090F81010050707060000F880B0C808DD
:101B00008870050707060000304080B0C88870055F
:101B10000707060000F808101020404005070706D8
:101B200000007088887088887005070706000070BC
:101B30008898680810600307070601FF40E040002E
:101B400040E0400307070601FF40E040006040809E
:101B50000407070601001020408040201005030301
:101B6000060002F800F80407070601008040201074
:101B70002040800507070600007088102020002004
:101B8000050707060000708898A8B0807005070751
:101B900006000020508888F888880507070600009E
:101BA000F04848704848F005070706000070888034
:101BB00080808870050707060000F04848484848BC
:101BC000F0050707060000F88080F08080F8050720
:101BD00007060000F88080F0808080050707060077
:101BE0000070888080988870050707060000888844
:101BF00088F8888888030707060100E040404040D5
:101C000040E005070706000038101010109060052E
:101C100007070600008890A0C0A090880507070667
:101C20000000808080808080F8050707060000881B
:101C300088D8A88888880507070600008888C8A86B
:101C4000988888050707060000708888888888704B
:101C5000050707060000F08888F0808080050808E6
:101C60000600FF7088888888A870080507070600A6
:101C700000F08888F0A090880507070600007088AB
:101C80008070088870050707060000F820202020D3
:101C90002020050707060000888888888888700546
:101CA000070706000088888850505020050707065F
:101CB0000000888888A8A8D888050707060000883B
:101CC0008850205088880507070600008888502023
:101CD000202020050707060000F80810204080F8A3
:101CE000030707060100E08080808080E005070789
:101CF0000600008080402010080803070706010046
:101D0000E02020202020E005030306000420508866
:101D10000501010600FFF8020202060206804005E6
:101D2000050506000070087888780507070600009A
:101D30008080B0C888C8B00505050600007088809E
:101D400088700507070600000808689888986805E5
:101D500005050600007088F880700507070600007A
:101D6000304840F04040400507070600FE7888886C
:101D7000780888700507070600008080B0C888884A
:101D8000880307070601004000C0404040E0040906
:101D9000090601FE10003010101090906005070732
:101DA00006000080808890E0908803070706010005
:101DB000C04040404040E0050505060000D0A8A80E
:101DC000A888050505060000B0C8888888050505AF
:101DD00006000070888888700507070600FEB0C8F6
:101DE00088C8B080800507070600FE689888986854
:101DF0000808050505060000B0C8808080050505B7
:101E000006000070807008F00507070600004040DB
:101E1000F04040483005050506000088888898682D
:101E200005050506000088885050200505050600B8
:101E3000008888A8A8500505050600008850205095
:101E4000880507070600FE888898680888700505D9
:101E500005060000F8102040F804070706010030CE
:101E60004020C020403001070706020080808080AB
:101E7000808080040707060100C02040304020C059
:101E800005030306000448A89000000001000000BC
:101E9000000001000000000001000000000001003F
:101EA0000000000001000000000001000000000030
:101EB000010000000000010000000000010000001F
:101EC000000001000000000001000000000001000F
:101ED0000000000001000000000001000000000000
:101EE00001000000000001000000000001000000EF
:101EF00000000100000000000100000000000100DF
:101F000000000000010000000000010000000000CF
:101F100001000000000001000000000001000000BE
:101F200000000100000000000100000000000100AE
:101F3000000000000100000000000100000000009F
:101F4000010000000000010000000000010000008E
:101F50000000060000010707060200800080808064
:101F600080800507070600FF2078A0A0A078200544
:101F70000707060000304840E04048B00505050668
:101F8000000088705070880508080600FF88885097
:101F900020F82020200107070602008080800080B2
:101FA00080800508080600FF7080E09048380870BF
:101FB000030101060107A00507070600007088A8B5
:101FC000C8A888700406060601017090B05000F0A1
:101FD0000605050600002448904824040202060174
:101FE00002F010040101060103F0050707060000D6
:101FF0007088E8C8C88870050101060007F8030367
:102000000306010440A0400506060600002020F853
:102010002020F804050506010360902040F0040527
:1020200005060103E0106010E0020202060206400D
:10203000800506060600FF888888C8B08005070767
:1020400006000078E8E86828282801010106020354
:10205000800202020602FE408003050506010340DD
:10206000C04040E00406060601016090906000F068
:102070000605050600009048244890060909060058
:10208000FF40C04040E40C143C040609090600FF70
:1020900040C04040E81404081C0509090600FFC0C0
:1020A000204020C8182878080507070600002000EF
:1020B00020204088700508080600004020708888AD
:1020C000F888880508080600001020708888F888BD
:1020D000880508080600002050708888F888880560
:1020E000080806000048B0708888F8888805080845
:1020F0000600005000708888F888880508080600E7
:10210000002050708888F888880607070600003C81
:1021100050909CF0909C0509090600FE7088808014
:10212000808870204005080806000040F88080F094
:102130008080F805080806000010F88080F0808094
:10214000F805080806000020F88080F08080F80577
:10215000080806000050F88080F08080F803080826
:102160000601008040E040404040E00308080601CE
:10217000002040E040404040E003080806010040E5
:10218000A0E040404040E0030808060100A000E055
:1021900040404040E0050707060000F04848E84896
:1021A00048F0050808060000285088C8A8988888C4
:1021B0000508080600004020708888888870050897
:1021C00008060000102070888888887005080806B6
:1021D0000000205070888888887005080806000074
:1021E000285070888888887005080806000050000C
:1021F0007088888888700505050600008850205082
:1022000088050707060000709898A8C8C8700508D8
:10221000080600004020888888888870050808061D
:10222000000010208888888888700508080600004B
:102230002050008888888870050808060000500033
:10224000888888888870050808060000102088881B
:102250005020202005070706000080F088F08080CD
:1022600080050707060000708890A09088B00508D8
:1022700008060000402000700878887805080806E5
:102280000000102000700878887805080806000013
:10229000205000700878887805080806000028504B
:1022A000007008788878050707060000500070085D
:1022B0007888780508080600002050207008788883
:1022C0007806050506000078147C907C0507070653
:1022D00000FE7088808870204005080806000040D5
:1022E00020007088F88070050808060000102000A3
:1022F0007088F8807005080806000020500070887B
:10230000F8807005070706000050007088F880709C
:10231000030808060100804000C0404040E0030878
:1023200008060100408000C0404040E00308080665
:10233000010040A000C0404040E0060A0A0600FE3E
:10234000A4A800FC8480808084FC060A0A0600FEA3
:10235000549400FC8404040484FC0508080600006E
:10236000285000B0C888888805080806000040206A
:10237000007088888870040A0A0602FE3040809047
:10238000909090909090040A0A0600FEC020109051
:10239000909090909090060707060001448C8C84E2
:1023A00080403C06070706000188C4C4840408F086
:1023B0000505050600012000F800200508080600B4
:1023C0000040F0C88888987810050808060000E0EA
:1023D000F88888888888F80505050600012030F807
:1023E00030200508080600002070F820202020E09A
:1023F0000509090600FF2070A8A8B88888502005A4
:1024000009090600FFE080C0B0A8A8302828050907
:10241000090600FFF8A88888888888A8F8050A0AAD
:102420000600FE205050505088A8A8887000060969
:1024300000FE06018902FE20FFFE07FE06FE0000E8
:1024400000060007010606060200808080800080EA
:10245000030303060103A0A0A00507070600FF5021
:1024600050F850F850500509090600FE2070A8A049
:102470007028A870200608080600FF40A848102011
:102480004854080507070600FF6090906098906820
:102490000103030602038080800207070602FF4053
:1024A0008080808080400207070602FF8040404015
:1024B0004040800505050600008850F85088050555
:1024C000050600002020F820200204040602FEC0B9
:1024D000404080050101060002F8020202060200E7
:1024E000C0C00406060601001010204080800406CB
:1024F00006060100609090909060030606060100B9
:1025000040C0404040E004060606010060901020F4
:1025100040F0040606060100F020601010E00506F9
:102520000606000010305090F81004060606010060
:10253000F080E01010E00406060601006080E090E4
:102540009060040606060100F010102040400406CA
:102550000606010060906090906004060606010087
:10256000609090701060020505060200C0C000C0B7
:10257000C00207070602FEC0C000C040408005053B
:10258000050600001860806018050303060001F8C6
:1025900000F8050505060000C0300830C004070734
:1025A000060100609010604000400506060600002D
:1025B0007090A8B08070050606060000205088F8CC
:1025C0008888050606060000F088F08888F0040672
:1025D00006060100609080809060040606060100F7
:1025E000E090909090E0040606060100F080E08004
:1025F00080F0040606060100F080E080808004067A
:1026000006060100609080B0906004060606010096
:102610009090F0909090030606060100E040404044
:1026200040E0050606060000381010109060040611
:102630000606010090A0C0A09090040606060100C6
:102640008080808080F005060606000088D8A8A853
:10265000888804060606010090D0B0909090050688
:102660000606000070888888887004060606010047
:10267000E09090E080800407070601FF609090D012
:10268000B06010040606060100E09090E09090040F
:1026900006060601006090402090600506060600D0
:1026A00000F82020202020040606060100909090CB
:1026B000909060040606060100909090F06060051E
:1026C00006060600008888A8A8D888050606060021
:1026D0000088502020508805060606000088885093
:1026E000202020040606060100F010204080F003A0
:1026F0000606060100E080808080E00406060601F0
:1027000000808040201010030606060100E0202013
:102710002020E00503030600032050880501010680
:1027200000FEF802020206020480400404040601CE
:1027300000709090700406060601008080E0909082
:10274000E00404040601007080807004060606019F
:102750000010107090907004040406010060B0C076
:1027600070040606060100205040E04040040606C2
:102770000601FE609090701060040606060100805D
:1027800080E09090900306060601004000C04040A3
:10279000E00308080601FE200060202020A040047D
:1027A00006060601008080A0C0A090030606060170
:1027B00000C040404040E0050404060000D0A8A846
:1027C00088040404060100E09090900404040601CB
:1027D00000609090600406060601FEE09090E080A4
:1027E000800406060601FE70909070101004040428
:1027F000060100A0D0808004040406010070C030EF
:10280000E00406060601004040E0405020040404B5
:1028100006010090909070040404060100909060FE
:102820006005040406000088A8A8500404040601FA
:1028300000906060900406060601FE9090907090F3
:1028400060040404060100F02040F00307070601BD
:1028500000204040804040200107070602FF8080A2
:102860008080808080030707060100804040204070
:10287000408004020206010350A0FFFFFFFFFFFF9C
:10288000FFFFFFFFFFFFFFFFFFFFFFFFFFFFFFFF58
:10289000FFFFFFFFFFFFFFFFFFFFFF00000006003D
:1028A000070106060602008000808080800406067C
:1028B0000601FF2070A0A070200507070600FF306A
:1028C0004840F04040F8050505060000A850885033
:1028D000A80506060600008850F820F82001070722
:1028E0000602FF808080008080800407070601FFC9
:1028F000708060906010E0030101060105A00607EA
:1029000007060000788494A49484780305050601E2
:102910000160A06000E00505050600002850A050F9
:1029200028040303060100F010100401010601024F
:10293000F00607070600007884B4A4A48478040194
:1029400001060105F004030306010260906005071B
:10295000070600FF2020F8202000F80305050601E7
:102960000140A02040E0030505060101C0204020F1
:10297000C002020206020440800405050601FF9021
:1029800090B0D08005060606000078E8E8682828A0
:10299000010101060202800202020602FE408003DB
:1029A000050506010140C04040E0030505060101A0
:1029B00040A04000E0050505060000A0502850A0FA
:1029C0000508080600FF40C0405070307810050828
:1029D000080600FF40C04050680810380508080687
:1029E00000FFC0204030F0307810040707060100D7
:1029F000200020608090600507070600004020202E
:102A00005070888805070706000010202050708845
:102A100088050707060000205020507088880507A9
:102A20000706000028502050708888050707060018
:102A300000500020507088880507070600002050CD
:102A4000205070888805060606000078A0F0A0A037
:102A5000B80408080601FE60908080906020400461
:102A600007070601004020F080E080F00407070619
:102A700001002040F080E080F004070706010020FC
:102A800050F080E080F00407070601005000F0805D
:102A9000E080F00307070601008040E0404040E08E
:102AA0000307070601002040E0404040E00307071D
:102AB00006010040A0E0404040E003070706010097
:102AC000A000E0404040E00506060600007048E82F
:102AD00048487004070706010050A090D0B09090BD
:102AE00004070706010040206090909060040707EB
:102AF00006010020406090909060040707060100E6
:102B00002050609090906004070706010050A0607C
:102B1000909090600407070601005000609090902C
:102B20006005050506000088502050880408080646
:102B300001FF1070B0B0D0D0E0800407070601009C
:102B4000402090909090600407070601002040907C
:102B5000909090600407070601002050909090909C
:102B600060040707060100500090909090600507F0
:102B700007060000102088502020200406060601C9
:102B80000080E09090E0800406060601006090A0BE
:102B9000A090A004070706010040200070909070EC
:102BA000040707060100204000709090700407079A
:102BB0000601002050007090907004070706010085
:102BC00050A000709090700406060601005000703E
:102BD00090907004070706010020502070909070BC
:102BE00005040406000070A8B0780406060601FE7D
:102BF00070808070204004070706010040200060BC
:102C0000B0C07004070706010020400060B0C0702B
:102C100004070706010020500060B0C070040606DB
:102C2000060100500060B0C0700307070601008075
:102C30004000C04040E0030707060100204000C0FC
:102C40004040E003070706010040A000C04040E00C
:102C5000030606060100A000C04040E00407070686
:102C6000010030601070909060040707060100506A
:102C7000A000E0909090040707060100402000604B
:102C8000909060040707060100204000609090606B
:102C900004070706010020500060909060040707B9
:102CA00006010050A0006090906004060606010036
:102CB0005000609090600505050600002000F800B7
:102CC0002004040406010070B0D0E00407070601E8
:102CD00000402000909090700407070601002040FB
:102CE000009090907004070706010020500090901B
:102CF0009070040606060100500090909070040940
:102D0000090601FE20400090909070906004080831
:102D10000601FE8080E09090E080800408080601B3
:102D2000FE5000909090709060003FFFFE00003FCA
:102D3000FFFE00003FFFFE00003FFFFE00001FFF00
:102D4000FE00001FFFFE00001FFFFE00001FFFFC33
:102D500000001FFFFC00001FFFFC00000FFFFC0035
:102D6000000FFFFC00000FFFF8000007FFF8000055
:102D700007FFF8000003FFF0000003FFF00000036E
:102D8000FFE0000003FFE0000001FFC0000001FFC2
:102D9000C0000000FFC0000000FF800000007F8036
:102DA0000000003F000000003E00000000000000A6
:102DB00000001E000000001E000000001C000000BB
:102DC000001C000000001C000000001C00000000AF
:102DD0001C000000001C000000001C000000001C83
:102DE000000000001C000000001C000000001C008F
:102DF0000000001C000000001C000000E01C03801C
:102E000000F01C07C000F81C0F80007C1C1F000095
:102E10003E1C3E00001F1C7C0000079CF8000003C5
:102E2000DDF0000003DDE0000000000000FFFFF720
:102E3000FFFF7FFFF7FFFE3FFFF7FFFC3FFFF7FFBE
:102E4000FC7FFFF7FFFEFFFFF7FFFF000000000021
:102E500000091200FC0A01E803D720FFFD0EFD0B5C
:102E6000FD00000009000E010B0B090400808080AA
:102E70008080808000008080040404090307909013
:102E80009090080A0A090000242424FF2424FF2427
:102E90002424070B0B0901FF107C92905038141268
:102EA000927C10070A0A09010042A4A448101024C9
:102EB0004A4A84070A0A090100609090906062946F
:102EC00088946201040409040780808080030C0C4C
:102ED0000903FF20404080808080808040402003A4
:102EE0000C0C0903FF80404020202020202040407F
:102EF00080070707090103109254385492100707FE
:102F000007090101101010FE10101002040409043A
:102F1000FEC0C04080070101090104FE020202094F
:102F20000400C0C0070A0A090100020404081010C6
:102F300020404080070A0A090100384482828282C8
:102F400082824438070A0A0901001030509010109C
:102F5000101010FE070A0A09010038448202040812
:102F6000102040FE070A0A090100FE0204081804A6
:102F700002028478070A0A090100040C142444841C
:102F8000FE040404070A0A090100FE808080F80498
:102F900002028478070A0A0901003C408080B8C414
:102FA00082824438070A0A090100FE020404080864
:102FB00010101010070A0A090100384482443844EE
:102FC00082824438070A0A09010038448282463A5C
:102FD00002020478020707090400C0C0000000C014
:102FE000C00209090904FEC0C0000000C0C0408042
:102FF0000509090902000810204080402010080738
:103000000404090102FE0000FE050909090200800E
:103010004020100810204080070A0A0901003844A7
:103020008202040810100010070A0A09010038443F
:103030009AAAAAAAAA9C403C070A0A0901001028D9
:103040002828447C44828282070A0A090100F88405
:103050008284F884828284F8070A0A0901003C42CB
:10306000808080808080423C070A0A090100F88441
:1030700082828282828284F8070A0A090100FE8025
:103080008080F880808080FE070A0A090100FE80A7
:103090008080F88080808080070A0A090100384417
:1030A0008280808E82824438070A0A090100828267
:1030B0008282FE8282828282050A0A090200F82048
:1030C00020202020202020F8070A0A0901003E08BD
:1030D0000808080808888870070A0A09010082841D
:1030E0008890A0D088848282070A0A090100808023
:1030F00080808080808080FE070A0A090100828229
:10310000C6AA928282828282070A0A09010082820A
:10311000C2A2928A86828282070A0A0901007C8200
:10312000828282828282827C070A0A090100F884F4
:10313000828284F880808080080B0B0901FF38446C
:1031400082828282828A443A01070A0A090100F8CF
:1031500084828284F890888482070A0A0901007CAC
:103160008280807C020202827C070A0A090100FE3A
:10317000101010101010101010070A0A0901008218
:10318000828282828282824438070A0A090100828E
:10319000828244444428282810070A0A0901008230
:1031A00082828292929292AA44070A0A09010082BC
:1031B000824428101028448282070A0A09010082EA
:1031C000824428101010101010070A0A090100FE8E
:1031D0000204081020408080FE040C0C0903FFF05C
:1031E00080808080808080808080F0070A0A0901CA
:1031F0000080404020101008040402040C0C090256
:10320000FFF010101010101010101010F007040430
:10321000090106102844820801010900FFFF030389
:103220000309030A8040200707070901007C020206
:103230007E82867A070A0A090100808080BCC282E9
:103240008282C2BC0707070901007C8280808082DD
:103250007C070A0A0901000202027A8682828286BB
:103260007A0707070901007C8282FE80827C070AB8
:103270000A0901001C22222020F820202020070A11
:103280000A0901FD7A84848478807C82827C070A22
:103290000A090100808080BCC28282828282050A83
:1032A0000A090200600000E02020202020F8050D1F
:1032B0000D0902FD18000038080808080808888869
:1032C00070070A0A090100808080848890B0C88451
:1032D00082050A0A090200E0202020202020202068
:1032E000F8070707090100EC929292929282070771
:1032F00007090100BCC28282828282070707090196
:10330000007C82828282827C070A0A0901FDB8C49D
:10331000828282C4B8808080070A0A0901FD3A4689
:10332000828282463A0202020707070901009C6274
:1033300042404040400707070901007C82807C0230
:10334000827C0709090901002020FC20202020227E
:103350001C0707070901008282828282867A07079A
:103360000709010082824444282810070707090141
:10337000008282929292AA440707070901008244C0
:103380002810284482070A0A0901FD424224242405
:103390001818109060070707090100FE04081020A4
:1033A00040FE060B0B0902001C20202020C020201C
:1033B00020201C010C0C0904FF808080808080800C
:1033C0008080808080060B0B090100E01010101037
:1033D0000C10101010E007030309010762928CFF24
:1033E000FFFFFFFFFFFFFFFFFFFFFFFFFFFFFFFFED
:1033F000FFFFFFFFFFFFFFFFFFFFFFFFFFFFFFFFDD
:1034000000000009000E010B0B0904008080000081
:1034100080808080808080060808090100087894F8
:1034200090A0A47840070A0A0901001C222020F875
:10343000202060A25C070606090103827C44447CCC
:1034400082070A0A090100828244287C107C10103D
:1034500010010B0B0904FF80808080800080808039
:103460008080040B0B0902FF609080609090906058
:1034700010906003020209030BA0A00809090900CB
:10348000013C4299A5A1A599423C05070709010302
:10349000609070907800F80708080901011224482C
:1034A0009090482412060404090102FC0404040557
:1034B0000101090204F80809090900013C42B9A503
:1034C000BDA9A5423C060101090109FC0404040947
:1034D000030660909060070909090101101010FEB1
:1034E00010101000FE0406060901046090106080B0
:1034F000F0040606090104609020109060030303A5
:1035000009030A2040800709090901FE828282829C
:1035100082C6BA8080070A0A0901007E8A8A8A7AEE
:103520000A0A0A0A0A020202090404C0C0040303C8
:103530000902FD20906003060609010440C04040D6
:1035400040E00506060901047088887000F8070845
:10355000080901019048241212244890070A0A0918
:10356000010040C0404042E60A121A06070A0A0952
:10357000010040C040404CF2020C101E070A0A092C
:1035800001006090201092660A121A06070A0A09C2
:1035900001001000101020408082827C070E0E096E
:1035A00001002010080010282828447C44828282D0
:1035B000070E0E0901000810200010282828447C5E
:1035C00044828282070E0E09010010284400102850
:1035D0002828447C44828282070D0D09010034585A
:1035E0000010282828447C44828282070D0D09019E
:1035F0000028280010282828447C44828282070E54
:103600000E0901001028281010282828447C448224
:103610008282070A0A0901001E2828284E78488855
:10362000888E070D0D0901FD3C42808080808080DE
:10363000423C082418070E0E09010020100800FE65
:10364000808080F880808080FE070E0E09010008CF
:10365000102000FE808080F880808080FE070E0EA3
:1036600009010010284400FE808080F8808080805E
:10367000FE070D0D090100282800FE808080F880DB
:10368000808080FE050E0E09020040201000F82008
:1036900020202020202020F8050E0E0902001020F6
:1036A0004000F82020202020202020F8050E0E09C0
:1036B000020020508800F82020202020202020F820
:1036C000050D0D090200505000F820202020202078
:1036D0002020F8070A0A09010078444242F24242D7
:1036E000424478070D0D0901003458008282C2A2BD
:1036F000928A86828282070E0E090100201008003D
:103700007C82828282828282827C070E0E09010084
:10371000081020007C82828282828282827C070E54
:103720000E090100102844007C82828282828282FB
:10373000827C070D0D0901003458007C8282828250
:10374000828282827C070D0D0901002828007C827C
:10375000828282828282827C070707090101824479
:103760002810284482070C0C0901FF027C868A8AF3
:103770009292A2A2C27C80070E0E090100201008BE
:103780000082828282828282824438070E0E090180
:10379000000810200082828282828282824438075E
:1037A0000E0E0901001028440082828282828282E9
:1037B000824438070D0D0901002828008282828288
:1037C000828282824438070E0E0901000810200010
:1037D00082824428101010101010070A0A090100F4
:1037E0008080FC828282FC808080060A0A090100B7
:1037F00038444448D04844444458070B0B0901005E
:10380000201008007C02027E82867A070B0B0901D9
:1038100000081020007C02027E82867A070B0B09CA
:103820000100102844007C02027E82867A070A0A80
:103830000901003458007C02027E82867A070A0A57
:103840000901002828007C02027E82867A070C0C7F
:1038500009010010282810007C02027E82867A0767
:1038600007070901006C12127E90926C070A0A0980
:1038700001FD7C82808080827C104830070B0B0920
:103880000100201008007C8282FE80827C070B0BE6
:10389000090100081020007C8282FE80827C070BD8
:1038A0000B090100102844007C8282FE80827C0784
:1038B0000A0A0901002828007C8282FE80827C0599
:1038C0000C0C0902008040200000E0202020202075
:1038D000F8050C0C0902001020400000E020202018
:1038E0002020F8050C0C0902002050880000E02080
:1038F00020202020F8050B0B09020050500000E0AA
:103900002020202020F8070B0B0901004830500828
:103910003C448282824438070A0A09010034580074
:10392000BCC28282828282070B0B09010020100830
:10393000007C82828282827C070B0B0901000810C6
:1039400020007C82828282827C070B0B090100109E
:103950002844007C82828282827C070A0A09010054
:103960003458007C82828282827C070A0A09010024
:103970002828007C82828282827C07090909010052
:1039800010381000FE001038100709090901FF0265
:103990007C8A8A92A2A27C80070B0B09010040203E
:1039A00010008282828282867A070B0B090100084E
:1039B0001020008282828282867A070B0B09010026
:1039C000102844008282828282867A070A0A0901CC
:1039D000002828008282828282867A070E0E0901E0
:1039E000FD04081000424224242418181090600797
:1039F0000B0B0901FE8080B8C4828282C4B880802B
:103A0000070D0D0901FD2424004242242424181826
:103A100010906001070D00FE09016902D820FFFE29
:103A20000BFE09FE0D0070222979C0C0C0C0C0C0C5
:103A300000C0C0185373D8D8D81259795050F8F82C
:103A400050F8F850500269793078B4B07834B478CE
:103A500030026979E4ACE81830605CD49C02697982
:103A600070D8D8D870D4DCD874272474C0C0C0C033
:103A7000124979306060C0C0C0606030124979C0BE
:103A800060603030306060C00366764830FCFC30E7
:103A9000480366763030FCFC30301144747070603E
:103AA000C0056171FC11437360F0600269790C0C10
:103AB0001818306060C0C00269793048CCCCCCCCDA
:103AC000CC48300269793070B03030303030FC0290
:103AD000697978CCCC0C3860C0C0FC026979FC0CE8
:103AE0001830780C0CCC780269790C1C3C6CCCCC6E
:103AF000FC0C0C026979FCC0C0F8CC0C0CCC780230
:103B0000697978CCC0C0F8CCCCCC78026979FC0C4F
:103B10000C18183030606002697978CCCCCC78CC45
:103B2000CCCC7802697978CCCCCC7C0C0CCC7811DC
:103B3000487860F060000060F06011487860F060E4
:103B400000707060C00269790C183060C060301875
:103B50000C046474FC0000FC026979C06030180C2D
:103B6000183060C002697978CCCC0C383000303025
:103B7000026979788C8CBCACBC808C7802697978CD
:103B8000CCCCCCFCCCCCCCCC026979F8CCCCCCF86D
:103B9000CCCCCCF802697978CCC0C0C0C0C0CC789D
:103BA000026979F8CCCCCCCCCCCCCCF8026979FCCD
:103BB000C0C0C0F8C0C0C0FC026979FCC0C0C0F879
:103BC000C0C0C0C002697978CCC0C0DCCCCCCC7C91
:103BD000026979CCCCCCCCFCCCCCCCCC026979FCC5
:103BE00030303030303030FC0269790C0C0C0C0C69
:103BF0000C0CCC78026979C4CCD8F0E0F0D8CCC4F5
:103C0000026979C0C0C0C0C0C0C0C0FC026979846C
:103C1000CCFCFCCCCCCCCCCC026979CCCCECECFC94
:103C2000DCDCCCCC02697978CCCCCCCCCCCCCC78DC
:103C3000026979F8CCCCCCF8C0C0C0C0016A7A78EF
:103C4000CCCCCCCCCCECDC780C026979F8CCCCCCEC
:103C5000F8F0D8CCC402697978CCC0C0780C0CCC10
:103C600078026979FC303030303030303002697998
:103C7000CCCCCCCCCCCCCCCC78026979CCCCCC48DC
:103C80004878303030026979CCCCCCCCCCFCFCCC40
:103C90008402697984CC4878307848CC8402697988
:103CA000CCCC78783030303030026979FC0C0C188C
:103CB0003060C0C0FC124979F0C0C0C0C0C0C0C0F4
:103CC000F0026979C0C060603018180C0C12497994
:103CD000F030303030303030F00764743078CC84DD
:103CE000016272FCFC194373C06030026676780C86
:103CF0007CCCCC7C026979C0C0C0F8CCCCCCCCF8F0
:103D000002667678CCC0C0CC780269790C0C0C7C49
:103D1000CCCCCCCC7C02667678CCFCC0CC7802696A
:103D200079386C6060F06060606000687874CCCC5A
:103D300078C078CC78026979C0C0C0F8CCCCCCCC43
:103D4000CC0269793030007030303030FC006B7B51
:103D50000C0C000C0C0C0C0C0CCC78026979C0C05B
:103D6000C0CCD8F0F0D8CC02697970303030303027
:103D70003030FC026676D8FCFCCCCCCC026676F8FF
:103D8000CCCCCCCCCC02667678CCCCCCCC780068D1
:103D900078F8CCCCCCF8C0C0C00068787CCCCCCC57
:103DA0007C0C0C0C026676F8CCC0C0C0C0026676F3
:103DB00078CC6018CC780268786060F86060606CDD
:103DC00038026676CCCCCCCCCC7C026676CCCCCC23
:103DD000787830026676CCCCCCFCFC48026676CC97
:103DE000CC7878CCCC006878CCCCCCCC7C0CCC78A3
:103DF000026676FC0C1860C0FC12497970C0C06085
:103E0000C060C0C070222979C0C0C0C0C0C0C0C0DE
:103E1000C0124979E030306030603030E0086373C0
:103E200064FC98FFFFFFFFFFFFFFFFFFFFFFFFFFA7
:103E3000FFFFFFFFFFFFFFFFFFFFFFFFFFFFFFFF92
:103E4000FFFFFFFF0D0070222A7AC0C000C0C0C073
:103E5000C0C0C0C0036878107CD4D0D0D47C10021D
:103E60006979386C6060F860606CB8036676CCFC89
:103E70004848FCCC026979CCCC7878FC30FC3030F6
:103E8000222A7AC0C0C0C00000C0C0C0C0026A7A86
:103E900078CCC078CCCC780CCC781A5272D8D802B6
:103EA0006A7A78CC84B4E4E4B484CC78145777F09C
:103EB00018F898F800F80367773468D0A0D0683411
:103EC000036474FC0C0C0C154171F0026A7A78CC16
:103ED00084BCACBCB4ACCC781B5171F8076474786A
:103EE000CCCC780367773030FC303000FC06467667
:103EF000E0B03060C0F0064676E0B06030B0E01967
:103F000043733060C0016777CCCCCCCCCCFC800252
:103F100069797CFCF4F4F474343434262272C0C021
:103F200010327260C006467660E0606060F015573F
:103F30007770F888F87000F8036777B0582C142C65
:103F400058B0026A7A60E0606064FC1C343C0C0289
:103F50006A7A60E0606078EC0C18303C026A7AE0C3
:103F6000B06030B4EC1C343C0C026A7A3030003063
:103F70003060C0CCCC78026A7A6030003078CCCC2B
:103F8000FCCCCC026A7A1830003078CCCCFCCCCC9B
:103F9000026A7A386C003078CCCCFCCCCC026A7ADD
:103FA0003458003078CCCCFCCCCC026A7ACCCC0033
:103FB0003078CCCCFCCCCC026A7A7848783078CC9B
:103FC000CCFCCCCC0269797CF8D8D8DCF8D8D8DC29
:103FD000006B7B78CCC0C0C0C0C0CC783060026AB7
:103FE0007A603000FCC0C0F0C0C0FC026A7A1830B1
:103FF00000FCC0C0F0C0C0FC026A7A386C00FCC093
:10400000C0F0C0C0FC026A7ACCCC00FCC0C0F0C0DA
:10401000C0FC026A7A603000FC3030303030FC0284
:104020006A7A183000FC3030303030FC026A7A385E
:104030006C00FC3030303030FC026A7ACCCC00FCB2
:104040003030303030FC026979F86C6C6CEC6C6CA0
:104050006CF8026A7A345800CCCCECFCDCCCCC0294
:104060006A7A60300078CCCCCCCCCC78026A7A18F2
:10407000300078CCCCCCCCCC78026A7A386C007822
:10408000CCCCCCCCCC78026A7A34580078CCCCCC6E
:10409000CCCC78026A7ACCCC0078CCCCCCCCCC78A6
:1040A000036575CC783078CC016A7A0478DCDCDC86
:1040B000ECECEC7880026A7A603000CCCCCCCCCCD2
:1040C000CC78026A7A183000CCCCCCCCCCCC78023C
:1040D0006A7A386C00CCCCCCCCCCCC78026A7ACC66
:1040E000CC00CCCCCCCCCCCC78026A7A183000CCCA
:1040F000487830303030026979C0F8CCCCCCF8C088
:10410000C0C002697978CCCCD8D8CCCCCCD80269E4
:1041100079301800780C7CCCDC7C0269791830008E
:10412000780C7CCCDC7C026979386C00780C7CCC17
:10413000DC7C026979345800780C7CCCDC7C026928
:10414000796C6C00780C7CCCDC7C026A7A3828387C
:1041500000780C7CCCDC7C02667678347CB0B46869
:1041600000687878CCC0C0CC7830600269793018AB
:104170000078CCFCC0CC7802697918300078CCFC8F
:10418000C0CC78026979386C0078CCFCC0CC78025D
:1041900069796C6C0078CCFCC0CC78124979C0602D
:1041A00000E060606060F0124979306000E06060BB
:1041B0006060F002597970D8007030303030781279
:1041C0005979D8D800E060606060F0026A7A68309F
:1041D000780C7CCCCCCCCC78026979345800F8ECE3
:1041E000CCCCCCCC02697960300078CCCCCCCC780B
:1041F00002697918300078CCCCCCCC780269793857
:104200006C0078CCCCCCCC7802697934580078CC6E
:10421000CCCCCC780269796C6C0078CCCCCCCC78E6
:10422000036777303000FC0030300169790478CCC6
:10423000DCCCECCC7880026979603000CCCCCCCC82
:10424000DC7C026979183000CCCCCCCCDC7C0269F7
:1042500079386C00CCCCCCCCDC7C0269796C6C00FD
:10426000CCCCCCCCDC7C006B7B183000CCCCCCDC58
:104270007C0CCC78006A7AC0C0D8ECCCCCECD8C02E
:10428000C0006B7B6C6C00CCCCCCDC6C0CCC7801B3
:10429000050800FF060121023520FFFF07FF06FF8A
:1042A000090050221656808080800080153353A06C
:1042B000A0A00257575050F850F8505002575720BE
:1042C00070A07028702013355580A040A0200247B0
:1042D0005740A0A040A0A0502513538080801226F4
:1042E000564080808080401226568040404040806A
:1042F0000245559060F060900255552020F820202E
:10430000113353604080044151F011335340E04079
:1043100002465610102040808012365640A0A0A0C1
:10432000A04012365640C0404040E00246566090E1
:10433000106080F0024656F02060109060024656F1
:104340002060A0F02020024656F080E0109060022D
:1043500046566080E0909060024656F01020204063
:104360004002465660906090906002465660909081
:10437000701060122555C0C000C0C0113656606074
:104380000060408012365620408080402003435316
:10439000F000F01236568040202040801236564001
:1043A000A020400040015858304898A8A8904030BC
:1043B000024656609090F09090024656E090E09051
:1043C00090E0024656609080809060024656E090F1
:1043D000909090E0024656F080E08080F0024656D1
:1043E000F080E0808080024656609080B09060024D
:1043F00046569090F0909090123656E040404040E3
:10440000E002465670202020A04002465690A0C0F0
:10441000A0A0900246568080808080F00246569090
:10442000F0F090909002465690D0F0B0B0900246D6
:1044300056609090909060024656E09090E08080A8
:10444000014757609090D0B06010024656E09090BF
:10445000E09090024656609040209060123656E000
:1044600040404040400246569090909090600246F6
:1044700056909090906060024656909090F0F09028
:104480000246569090606090900256568888502060
:104490002020024656F010204080F0123656E08070
:1044A000808080E0024656808040201010123656F0
:1044B000E020202020E016325240A0014151F016A9
:1044C0002252804002445470909070024656808080
:1044D000E09090E0123454608080600246561010E4
:1044E0007090907002445460B0C0600246562050F4
:1044F00040E0404001455560907010600246568093
:1045000080E09090901236564000C04040E0113755
:10451000572000202020A040024656808090E09046
:1045200090123656C040404040E0025454D0A8A8F3
:10453000A8024454E090909002445460909060012E
:104540004555E090E0808001455570907010100254
:104550004454A0D0808012345460C020C00246561B
:104560004040E040502002445490909070123454E7
:10457000A0A0A04002545488A8A8500244549060BF
:1045800060900145559090709060024454F0204036
:10459000F0024757304020C020403022165680801D
:1045A00080808080024757C02040304020C00642B3
:1045B0005250A0FFFFFFFFFFFFFFFFFFFFFFFFFFC6
:1045C000FFFFFFFFFFFFFFFFFFFFFFFFFFFFFFFFFB
:1045D000FFFFFFFF09005022165680008080808078
:1045E0000146562070A0A070200246562050E040A0
:1045F00050A002555588705070880256568850F861
:1046000020F8202217578080800080808002475742
:104610007080E0907010E0173151A002565670A8DB
:10462000C8C8A87014355560A06000E0034353501B
:10463000A050123353E02020143151E0025656703E
:10464000E8D8E8D870173151E015335340A0401234
:10465000355540E04000E014355540A02040E014BE
:104660003555C020C020C0162252408001455590CB
:104670009090E08002565678E8E868282824115186
:1046800080112252408014355540C04040E014351E
:104690005540A04000E0034353A050A0024757807C
:1046A0008080A060F0200247578080A0D01020704A
:1046B00002475780408060A0F020123656400040EC
:1046C00080A04002475740206090F09090024757EA
:1046D00020406090F0909002475760906090F0907A
:1046E0009002475750A06090F0909002475790007A
:1046F0006090F0909002475760906090F090900228
:10470000465670A0A0F0A0B00147576090808090FE
:1047100060400247574020F080E080F00247572079
:1047200040F080E080F00247576090F080E080F039
:104730000247579000F080E080F01237578040E049
:10474000404040E01237572040E0404040E0123700
:104750005740A0E0404040E0123757A000E0404002
:1047600040E00256567048E848487002475750A04B
:1047700090D0B09090024757402060909090600297
:10478000475720406090909060024757609060903B
:1047900090906002475750A06090909060024757F9
:1047A00090006090909060123353A040A002465653
:1047B00070B0B0D0D0E00247574020909090906009
:1047C0000247572040909090906002475760909029
:1047D00090909060024757900090909090600257A0
:1047E000571020885020202002465680E09090E00C
:1047F000800246566090A0A090A00247574020003B
:10480000709090700247572040007090907002475F
:10481000572050007090907002475750A000709041
:10482000907002465650007090907002475760900A
:104830006070909070025454F068B07811355560F3
:104840008080604002475740200060B0C06002474F
:104850005720400060B0C06002475760900060B0D1
:10486000C060024656500060B0C0601237578040AA
:1048700000C04040E0123757204000C04040E012E6
:10488000375740A000C04040E0123656A000C0405C
:1048900040E0024757A040A0107090600247575078
:1048A000A000E090909002475740200060909060F8
:1048B0000247572040006090906002475760900088
:1048C0006090906002475750A00060909060024650
:1048D000569000609090601235554000E000400214
:1048E000445470B0D0E00247574020009090907040
:1048F0000247572040009090907002475760900008
:104900009090907002465690009090907001485898
:1049100020400090907090600147578080E090E0C8
:104920008080014757900090907090600200000ACC
:104930000B02090C0D0E0807030401000000000023
:104940000000000000000000000000000000000067
:104950000000000000000000001211100000000024
:104960000000000000000000000000000000000047
:1049700000000001021020200808102040102040F4
:104980008002010201080402010102040810204013
:104990008080402010080402018004020180402031
:1049A000100804020108040201010204081020405A
:1049B0008001020408102040800505050507050850
:1049C000080808020202020A0A0808040404040192
:1049D00001010101010101030303030303030304B4
:1049E0000707070C0C0C0C0C0C0C0C020202020644
:1049F000060606060606060B0B0B0B0B0B0B0B0035
:104A0000002200250028002B002E00310034000277
:104A1000010000050108010B01000021002400270E
:104A2000002A002D003000330001010000040107BE
:104A3000010A014E414E494E495459494E46CDCC8A
:104A4000CC3D0AD7233C17B7D13877CC2B3295957C
:104A5000E6241FB14F0A000020410000C842004078
:104A60001C4620BCBE4CCA1B0E5AAEC59D74725368
:104A70006ECD765311241FBECFEFD1E2DEBFCDBF86
:104A800000E00CBF15E0A0E0B2E0E4EFF9EC01E0DB
:104A90000BBF02C007900D92A635B107D9F71AE1F6
:104AA000A6E5B5E001C01D92A036B107E1F71AE412
:104AB000C2E7DAE400E006C022970109FE010BBF5D
:104AC0000E94C7DECE36D10780E00807A9F70E9412
:104AD00027D70C94E9E40C940000DC01FB018181F0
:104AE000807382958F709081990F990F890F8C93A5
:104AF00082818C7386958695918120E1929F800DAD
:104B0000112411968C9311979281838120E4929FB6
:104B1000800D112412968C9308959FEB980F9A3173
:104B2000B0F09FE9980F9A3110F48754089590EDF2
:104B3000980F9A3010F48C5F08958B3221F08F32E9
:104B400021F48FE308958EE308958FEF0895892F60
:104B500008954F925F926F927F928F929F92AF9241
:104B6000BF92CF92DF92EF92FF920F931F93CF935A
:104B7000DF93CDB7DEB727970FB6F894DEBF0FBE31
:104B8000CDBF6C015A017B01A60EB71E00E010E0FC
:104B900080E090E03E0125E0620E711C4E01E8E0ED
:104BA0008E0E911CEA14FB0429F0F70141917F015C
:104BB0004D3329F478015C01009771F561C09C01C7
:104BC0002F5F3F4FE1E0F0E0EC0FFD1FE80FF91F12
:104BD000408324303105F1F4CE0101962C01F2011D
:104BE00080819BDFF20181932F01E615F705B9F76C
:104BF000BE016F5F7F4FC30170DFF301D601A00FCD
:104C0000B11F81918D93E815F905D9F70D5F1F4FFD
:104C100020E030E0C901C6CF843091054CF4E1E0DA
:104C2000F0E0EC0FFD1FE80FF91F10820196F4CFA2
:104C3000CE0101964C013E0195E0690E711CF40114
:104C400080816BDFF40181934F01E615F705B9F719
:104C5000BE016F5F7F4FCF0140DFD401F601E00F4F
:104C6000F11F80E090E021E0A21AB1088C010E0D46
:104C70001F1D8A159B0524F42D9121930196F6CFD3
:104C8000F601E00FF11F1082C80127960FB6F894C5
:104C9000DEBF0FBECDBFDF91CF911F910F91FF906F
:104CA000EF90DF90CF90BF90AF909F908F907F90CC
:104CB0006F905F904F900895EF92FF920F931F9324
:104CC000CF93DF931F92CDB7DEB78C017B01460FE8
:104CD000F70161917F01F8018081918149830E94F0
:104CE00032E4F8018081918101969183808349812A
:104CF0004E11EECF0F90DF91CF911F910F91FF904A
:104D0000EF900895EF92FF920F931F93CF93DF934D
:104D10001F92CDB7DEB78C017B01460FF801808171
:104D2000918149830E942AE4F70181937F01F80170
:104D30008081918101969183808349814E11EECFCC
:104D40000F90DF91CF911F910F91FF90EF900895F9
:104D50000F931F93CF93DF93CDB7DEB72A970FB68C
:104D6000F894DEBF0FBECDBF80E390E3A0E3B0E0D8
:104D70008D839E83AF83B88704E610E01A87098786
:104D800044E0BE016B5F7F4FCE01099695DF40E1A5
:104D900060EE76E1CE0109968FDF40E160EF76E1CB
:104DA000CE01099689DF40E160ED76E1CE010996FA
:104DB00083DF44E068EC76E1CE0109967DDF44E0D4
:104DC00064EC76E1CE01099677DF44E06CEC76E1A5
:104DD000CE01099671DF44E064EB76E1CE010996DD
:104DE0006BDF44E060E077E1CE01099665DF44E0E7
:104DF00060EC76E1CE0109965FDF44E06CEB76E192
:104E0000CE01099659DF44E068EB76E1CE010996C0
:104E100053DF4CE06AEC77E0CE0109964DDF42E0CB
:104E200065E17CE0CE01099647DF42E063E27AE18A
:104E3000CE01099641DF42E061E27AE1CE010996B6
:104E40003BDF42E06FE17AE1CE01099635DF42E0D7
:104E50006DE17AE1CE0109962FDF42E06BE17AE164
:104E6000CE01099629DF42E069E17AE1CE01099697
:104E700023DF44E06FE472E0CE0109961DDF44E0D9
:104E80006BE472E0CE01099617DF44E067E472E05C
:104E9000CE01099611DF42E066E178E1CE01099684
:104EA0000BDF86E591E3A0E3B0E089839A83AB83CF
:104EB000BC831A87098744E0BE016F5F7F4FCE0134
:104EC0000996FADEE6ECF3E08491882341F09091B4
:104ED000C00095FFFCCF8093C6003196F5CFE6EB7E
:104EE000F3E08491882341F09091C00095FFFCCFBE
:104EF0008093C6003196F5CF8091C00085FFFCCF2E
:104F00008AE08093C6002A960FB6F894DEBF0FBEE3
:104F1000CDBFDF91CF911F910F910895CF93DF9374
:104F2000C6ECD3E0FE018491FE01882349F0909104
:104F3000C00095FFFCCF8093C60031968491F5CFD9
:104F4000E6EAF3E08491882341F09091C00095FF58
:104F5000FCCF8093C6003196F5CF8091C00085FFCD
:104F6000FCCF8AE08093C600FE018491E6ECF3E07A
:104F7000882349F09091C00095FFFCCF8093C60034
:104F800031968491F5CF4091E0165091E1166091F1
:104F9000E2167091E3168EE993E00E94A2304091F0
:104FA000E4165091E5166091E6167091E7168BE9CC
:104FB00093E00E94A2304091E8165091E91660916A
:104FC000EA167091EB1688E993E00E94A2304091B6
:104FD000EC165091ED166091EE167091EF1685E982
:104FE00093E00E94A2308091C00085FFFCCF8AE050
:104FF0008093C600FE018491E6ECF3E0882349F03B
:105000009091C00095FFFCCF8093C60031968491AB
:10501000F5CFEBE7F3E08491882341F09091C00055
:1050200095FFFCCF8093C6003196F5CF8091C000EC
:1050300085FFFCCF8AE08093C600FE018491E6ECF8
:10504000F3E0882349F09091C00095FFFCCF809356
:10505000C60031968491F5CF4091F0165091F1162B
:105060006091F2167091F31682E793E00E94A230ED
:105070004091F4165091F5166091F6167091F7165E
:105080008FE693E00E94A2304091F8165091F916F5
:105090006091FA167091FB168CE693E00E94A230A4
:1050A0004091FC165091FD166091FE167091FF160E
:1050B00089E693E00E94A2308091C00085FFFCCF7A
:1050C0008AE08093C600FE018491E6ECF3E0882339
:1050D00049F09091C00095FFFCCF8093C6003196B7
:1050E0008491F5CFEBE4F3E08491882341F0909133
:1050F000C00095FFFCCF8093C6003196F5CF80911C
:10510000C00085FFFCCF8AE08093C600FE01849139
:10511000E6ECF3E0882349F09091C00095FFFCCFC6
:105120008093C60031968491F5CF4091D01650916E
:10513000D1166091D2167091D31682E493E00E944A
:10514000C4304091D4165091D5166091D616709106
:10515000D7168FE393E00E94C4304091D816509147
:10516000D9166091DA167091DB168CE393E00E94F9
:10517000C4304091DC165091DD166091DE167091BE
:10518000DF1689E393E00E94C4308091C00085FF60
:10519000FCCF8AE08093C600FE018491E6ECF3E048
:1051A000882349F09091C00095FFFCCF8093C60002
:1051B00031968491F5CFE4E0F3E08491882341F0C7
:1051C0009091C00095FFFCCF8093C6003196F5CF3B
:1051D0008091C00085FFFCCF8AE08093C600FE016D
:1051E0008491E6ECF3E0882349F09091C00095FFAC
:1051F000FCCF8093C60031968491F5CF4091C816BC
:105200005091C9166091CA167091CB168BEF92E03F
:1052100099D74091C4165091C5166091C6167091E9
:10522000C71688EF92E08ED78091C00085FFFCCF33
:105230008AE08093C600FE018491E6ECF3E08823C7
:1052400049F09091C00095FFFCCF8093C600319645
:105250008491F5CFE5E4F2E08491882341F09091C8
:10526000C00095FFFCCF8093C6003196F5CF8091AA
:10527000C00085FFFCCF8AE08093C600FE018491C8
:10528000E6ECF3E0882349F09091C00095FFFCCF55
:105290008093C60031968491F5CF4091CC16509101
:1052A000CD166091CE167091CF168CE392E04AD75E
:1052B0004091B4165091B5166091B6167091B7161C
:1052C00089E392E03FD74091001750910117609118
:1052D00002177091031786E392E056D74091C016EB
:1052E0005091C1166091C2167091C31683E392E08B
:1052F00029D74091BC165091BD166091BE16709191
:10530000BF1680E392E01ED74091B8165091B916AF
:105310006091BA167091BB168DE292E013D780911E
:10532000C00085FFFCCF8AE08093C600FE01849117
:10533000E6ECF3E0882349F09091C00095FFFCCFA4
:105340008093C60031968491F5CFEBE1F2E0849131
:10535000882341F09091C00095FFFCCF8093C60058
:105360003196F5CF8091C00085FFFCCF8AE0809315
:10537000C600FE018491E6ECF3E0882349F09091A9
:10538000C00095FFFCCF8093C60031968491F5CF85
:105390004091CA075091CB076091CC077091CD071F
:1053A00082E192E0CFD64091CE075091CF07609135
:1053B000D0077091D1078FE092E0C4D64091D20718
:1053C0005091D3076091D4077091D5078CE092E09B
:1053D000B9D68091C00085FFFCCF8AE08093C600DB
:1053E000FE018491E6ECF3E0882349F09091C0003F
:1053F00095FFFCCF8093C60031968491F5CFE6EF00
:10540000F1E08491882341F09091C00095FFFCCF9A
:105410008093C6003196F5CF8091C00085FFFCCF08
:105420008AE08093C600FE018491E6ECF3E08823D5
:1054300049F09091C00095FFFCCF8093C600319653
:105440008491F5CF8091150C9091160C6CE370E06F
:105450000E945CDEAB0160E070E08DEE91E094D6DE
:105460008091C00085FFFCCF8AE08093C6008091C8
:10547000150C9091160C6CE370E00E945CDEAC01A0
:1054800060E070E082EE91E07FD68091C00085FF01
:10549000FCCF8AE08093C600FE018491E6ECF3E045
:1054A000882349F09091C00095FFFCCF8093C600FF
:1054B00031968491F5CFE4EDF1E08491882341F0B9
:1054C0009091C00095FFFCCF8093C6003196F5CF38
:1054D0008091C00085FFFCCF8AE08093C600FE016A
:1054E000C491E6ECF3E0CC2349F08091C00085FF45
:1054F000FCCFC093C6003196C491F5CF40914F02C6
:105500005091500260915102709152028AEC91E0E8
:1055100019D660914B0270914C0280914D0290918E
:105520004E020E94B594AB01BC0187EC91E00AD613
:1055300060914702709148028091490290914A021D
:105540000E94C194AB01BC0184EC91E0FBD5809139
:10555000C00085FFFCCF8AE08093C600DF91CF9129
:105560000895AF92BF92CF92DF92EF92FF920F9386
:105570001F93CF93DF93CDB7DEB7AC970FB6F894F8
:10558000DEBF0FBECDBF8CE0EAE7F2E0DE01919610
:1055900001900D928A95E1F780E1E6E8F2E0DE0104
:1055A000519601900D928A95E1F780E1E6E9F2E0EB
:1055B000DE01119601900D928A95E1F76E0181E26C
:1055C000C80ED11C80EEE82E86E1F82E8E010F5E0B
:1055D0001F4F60EF76E1AE014F5F5F4F90EDA92E58
:1055E00096E1B92E20E030E0F60181919191A191F0
:1055F000B1916F01F70181939193A193B1937F01D1
:10560000F80181919191A191B1918F01FB01819359
:105610009193A193B193BF01FA0181919191A191CD
:10562000B191AF01F50181939193A193B1935F0182
:105630002F5F3F4F24303105B9F60E94478180E04B
:1056400090E0AAEFB4E48093C8169093C916A09393
:10565000CA16B093CB168093C4169093C516A09328
:10566000C616B093C7161092CC161092CD16109293
:10567000CE161092CF1680E29EE4A0E0B0E08093B8
:10568000001790930117A0930217B093031710927D
:10569000B4161092B5161092B6161092B71680E096
:1056A00090E0A0EAB1E48093C0169093C116A09355
:1056B000C216B093C3168DEC9CECACECBEE38093A9
:1056C000BC169093BD16A093BE16B093BF1680E093
:1056D00090E0A0EAB0E48093B8169093B916A09336
:1056E000BA16B093BB161092D2071092D30710923D
:1056F000D4071092D5071092CE071092CF071092C0
:10570000D0071092D1071092CA071092CB071092BF
:10571000CC071092CD0784EB90E09093241A8093ED
:10572000231A86E490E09093221A8093211A8FEF37
:1057300090E09093201A80931F1A20EF30E030936E
:105740001E1A20931D1A24E630E030931C1A209371
:105750001B1A90931A1A8093191A80E290E0909382
:105760001718809316188AE999E9A1EBB1E48093A0
:105770004F0290935002A0935102B093520261E7FE
:105780007DE38AE89FE30E94AF9460934B0270939D
:105790004C0280934D0290934E0260E070E084EEE4
:1057A00092E40E94BB9460934702709348028093F6
:1057B000490290934A020E94558C80E090E0A0E854
:1057C000BFE38093430290934402A0934502B093B9
:1057D0004602E6ECF3E08491882341F09091C0000A
:1057E00095FFFCCF8093C6003196F5CFE8E8F1E055
:1057F0008491882341F09091C00095FFFCCF809365
:10580000C6003196F5CF8091C00085FFFCCF8AE0BD
:105810008093C600AC960FB6F894DEBF0FBECDBF26
:10582000DF91CF911F910F91FF90EF90DF90CF907C
:10583000BF90AF900895CF93DF93CDB7DEB72A978F
:105840000FB6F894DEBF0FBECDBF84E690E09A8716
:10585000898786E591E3A0E3B0E089839A83AB83EF
:10586000BC8344E0BE016B5F7F4FCE0109964ADAEC
:1058700043E050E0BE016B5F7F4FCE0101960E9476
:10588000F1E1892B09F0B0C040E160EE76E1CE0194
:10589000099638DA40E160EF76E1CE01099632DA16
:1058A00040E160ED76E1CE0109962CDA0E94478155
:1058B00044E068EC76E1CE01099624DA44E064EC39
:1058C00076E1CE0109961EDA44E06CEC76E1CE0179
:1058D000099618DA44E064EB76E1CE01099612DA13
:1058E00044E060E077E1CE0109960CDA44E060EC38
:1058F00076E1CE01099606DA44E06CEB76E1CE0162
:10590000099600DA44E068EB76E1CE010996FAD90F
:105910004CE06AEC77E0CE010996F4D942E065E10B
:105920007CE0CE010996EED942E063E27AE1CE0155
:105930000996E8D942E061E27AE1CE010996E2D91E
:1059400042E06FE17AE1CE010996DCD942E06DE1F7
:105950007AE1CE010996D6D942E06BE17AE1CE0137
:105960000996D0D942E069E17AE1CE010996CAD917
:1059700044E06FE472E0CE010996C4D944E06BE4E0
:1059800072E0CE010996BED944E067E472E0CE0130
:105990000996B8D942E066E178E1CE010996B2D91C
:1059A0000E94558CE6ECF3E08491882341F09091BD
:1059B000C00095FFFCCF8093C6003196F5CFEAEA90
:1059C000F1E08491882341F09091C00095FFFCCFD5
:1059D0008093C6003196F5CF8091C00085FFFCCF43
:1059E0008AE08093C60001C0BCDD98DA2A960FB623
:1059F000F894DEBF0FBECDBFDF91CF9108951F9207
:105A00000F920FB60F9211240BB60F922F933F9364
:105A10004F935F936F938F939F93EF93FF93609157
:105A2000C6002091D7053091D805C90101968F771E
:105A300099274091D9055091DA058417950741F0CF
:105A4000F901E95AFA4F60839093D8058093D705FE
:105A5000FF91EF919F918F916F915F914F913F9146
:105A60002F910F900BBE0F900FBE0F901F901895A7
:105A70009A01AB01211581EE38074105510549F125
:105A800082E08093C00060E079E08DE390E00E94C6
:105A9000A5DE2150310941095109CA01B90122E0AD
:105AA00030E040E050E00E94A5DE3093C500209336
:105AB000C4008091C10080618093C1008091C100C9
:105AC00088608093C1008091C10080688093C1008C
:105AD00008951092C00020E130E0E7CF2091D90571
