:100000000C9467210C9498210C9498210C949821BD
:100010000C9498210C9498210C9498210C9498217C
:100020000C9498210C9498210C9498210C9498216C
:100030000C9498210C9403D40C9498210C9498213E
:100040000C9498210C94157F0C9498210C94982171
:100050000C9498210C9498210C943C8F0C9470D49F
:100060000C9498210C942A290C9498210C94982192
:100070000C9498210C9498210C9498210C9498211C
:100080000C9498210C9498210C9498210C9498210C
:100090000C9498210C9498210C9498210C949821FC
:1000A0000C9498210C9498210C9498210C949821EC
:1000B0000C9498210C9498210C9498210C949821DC
:1000C0000C9498210C9498210C9498210C949821CC
:1000D0000C9498210C9498210C9498210C949821BC
:1000E0000C949821818F908FAC8FBB8FD58FE48F2C
:1000F000FE8F029093D598D59DD5A7D5B1D52AD698
:10010000BBD5C3D5CBD5D5D5DFD5E9D5F8D502D666
:100110002AD60CD616D620D64BD64ED63DD641D6AC
:1001200047D685D652D656D65CD660D664D66AD621
:100130006ED672D685D678D67CD680D6084AD73B7E
:100140003BCE016E84BCBFFDC12F3D6C74319ABDA6
:1001500056833DDA3D00C77F11BED9E4BB4C3E91CA
:100160006BAAAABE000000803F05A84CCDB2D44EB9
:10017000B93836A9020C50B9918688083CA6AAAABB
:100180002ABE000000803F0048617264636F6465AE
:10019000642044656661756C742053657474696E7F
:1001A0006773204C6F616465640053746F7265649B
:1001B0002073657474696E67732072657472696503
:1001C000766564002044002049002020204D333013
:1001D000312050005049442073657474696E677310
:1001E0003A00204D696E757465733A200020486F9F
:1001F0007572733A20004C61736572206C69666594
:1002000074696D652075736167653A00205A002036
:10021000590020204D323036205800486F6D65203F
:100220006F666673657420286D6D293A002045005D
:10023000205A0020580020420020540020204D3237
:100240003035205300416476616E636564207661C9
:10025000726961626C65733A20533D4D696E206628
:100260006565647261746520286D6D2F73292C207B
:10027000543D4D696E2074726176656C20666565CB
:10028000647261746520286D6D2F73292C20423DA6
:100290006D696E696D756D207365676D656E74202F
:1002A00074696D6520286D73292C20583D6D617827
:1002B000696D756D205859206A65726B20286D6DC7
:1002C0002F73292C20205A3D6D6178696D756D2042
:1002D0005A206A65726B20286D6D2F73292C20209F
:1002E000453D6D6178696D756D2045206A65726B5D
:1002F00020286D6D2F73290020540020204D3230AE
:1003000034205300416363656C65726174696F6E7C
:100310003A20533D616363656C65726174696F6E09
:100320002C20543D7265747261637420616363654F
:100330006C65726174696F6E00204500205A002060
:10034000590020204D3230312058004D6178696DC0
:10035000756D20416363656C65726174696F6E20B1
:10036000286D6D2F7332293A00204500205A002055
:10037000590020204D3230332058004D6178696D8E
:10038000756D2066656564726174657320286D6D96
:100390002F73293A00204500205A002059002020C0
:1003A0004D39322058005374657073207065722087
:1003B000756E69743A0053657474696E677320537F
:1003C000746F726564006563686F3A0053544F50F0
:1003D0005045442E20005072696E7465722073740B
:1003E0006F707065642064756520746F206572722B
:1003F0006F72732E2046697820746865206572726A
:100400006F7220616E6420757365204D3939392013
:10041000746F20726573746172742E202854656D38
:100420007065726174757265206973207265736599
:10043000742E20536574206974206166746572207F
:1004400072657374617274696E6729004B494C4C14
:1004500045442E20005072696E7465722068616C8C
:100460007465642E206B696C6C28292063616C6C48
:10047000656421006F6B00526573656E643A2000FD
:100480002200556E6B6E6F776E20636F6D6D616EBF
:10049000643A2022006C636420636F6E747261732F
:1004A000742076616C75653A20007A5F6D696E3AEA
:1004B0002000795F6D696E3A2000785F6D696E3A51
:1004C00020005A3A00593A0020436F756E74205844
:1004D0003A2000453A005A3A00593A00583A004644
:1004E00049524D574152455F4E414D453A4D61721B
:1004F0006C696E2056313B20537072696E74657260
:100500002F6772626C206D617368757020666F7200
:100510002067656E36204649524D574152455F551A
:10052000524C3A687474703A2F2F7777772E6D6536
:100530006E64656C2D70617274732E636F6D2050E4
:10054000524F544F434F4C5F56455253494F4E3ACA
:10055000312E30204D414348494E455F5459504556
:100560003A4C617365722043757474657220455806
:100570005452554445525F434F554E543A310A0048
:100580004C6173657220437574746572204F6666A2
:100590002E004C617365722043757474657220522D
:1005A000656164792E0042656420646F6E652E007B
:1005B00020423A0020453A00543A004265642048FF
:1005C000656174696E672E0048656174696E6720A5
:1005D000646F6E652E0020573A0020453A00543A69
:1005E0000048656174696E672E2E2E002042403AE5
:1005F0000020403A00202F003A00205400202F0015
:1006000020423A00202F006F6B20543A00256920C9
:100610006D696E2C2025692073656300456E64202A
:1006200066696C65206C69737400426567696E2049
:1006300066696C65206C697374004E6F206D6F760F
:10064000652E00526573756D696E67207072696EF4
:1006500074005761697420666F7220757365722E1D
:100660002E2E00536C6565702E2E2E002569206895
:100670006F757273202569206D696E7574657300DE
:10068000446F6E65207072696E74696E672066696A
:100690006C650053544F505045442E2000507269F1
:1006A0006E7465722073746F707065642064756514
:1006B00020746F206572726F72732E2046697820E5
:1006C000746865206572726F7220616E6420757344
:1006D00065204D39393920746F20726573746172E9
:1006E000742E202854656D70657261747572652072
:1006F00069732072657365742E2053657420697464
:100700002061667465722072657374617274696EBB
:100710006729006F6B004E6F204C696E65204E7527
:100720006D626572207769746820636865636B73B6
:10073000756D2C204C617374204C696E653A2000F5
:100740004E6F20436865636B73756D2077697468BD
:10075000206C696E65206E756D6265722C204C612F
:100760007374204C696E653A2000636865636B732F
:10077000756D206D69736D617463682C204C6173B5
:1007800074204C696E653A20004C696E65204E7588
:100790006D626572206973206E6F74204C61737492
:1007A000204C696E65204E756D6265722B312C2070
:1007B0004C617374204C696E653A20004D313130C4
:1007C00000473700473700473700473700446F6E10
:1007D0006520736176696E672066696C652E006FAF
:1007E0006B004D3239002020506C616E6E65724294
:1007F000756666657242797465733A2000204672A8
:100800006565204D656D6F72793A20004D617220EB
:100810002032203230313600436F6D70696C656470
:100820003A2000286E6F6E652C2064656661756CD9
:100830007420636F6E6669672900207C204175749F
:10084000686F723A20004D617220203220323031C0
:10085000362031363A30343A303900204C617374E6
:1008600020557064617465643A2000312E302E305A
:10087000004D61726C696E200020536F6674776161
:1008800072652052657365740020576174636864F3
:100890006F67205265736574002042726F776E2017
:1008A0006F757420526573657400204578746572A5
:1008B0006E616C20526573657400506F7765725578
:1008C00070007374617274002200656E71756569E1
:1008D0006E672022002200656E717565696E672063
:1008E0002200FFFFFF0000A0400000A040000080A9
:1008F0003F00C0044400800B440000BE42000000E2
:1009000000000000000000000000C0044400800B54
:10091000440000BE42000000000000000000000093
:10092000006563686F3A004572726F723A007C3CF2
:100930003E5E2B3D3F2F5B5D3B2C2A225C004D38F9
:100940003420582059205A20450043616E6E6F7440
:1009500020656E746572207375626469723A200056
:100960004D3234004D3233202573006175746F258C
:10097000692E67006572726F722077726974696E92
:100980006720746F2066696C65004E6F7420534455
:10099000207072696E74696E67002F005344207076
:1009A00072696E74696E67206279746520002E002A
:1009B00044656C6574696F6E206661696C65642C52
:1009C0002046696C653A200046696C652064656C58
:1009D000657465643A002E006F70656E206661690B
:1009E0006C65642C2046696C653A20005772697406
:1009F000696E6720746F2066696C653A20002E006E
:100A00006F70656E206661696C65642C2046696C48
:100A1000653A20002E006F70656E206661696C6516
:100A2000642C2046696C653A200046696C65207329
:100A3000656C6563746564002053697A653A2000CB
:100A400046696C65206F70656E65643A20002E0003
:100A50006F70656E206661696C65642C2046696CF8
:100A6000653A200053442063617264206F6B006F0D
:100A700070656E526F6F74206661696C6564007694
:100A80006F6C756D652E696E6974206661696C6541
:100A90006400534420696E6974206661696C006566
:100AA00063686F3A004572726F723A0057616974F9
:100AB000696E6720666F7220706572697068657212
:100AC000616C20636F6E74726F6C20626F61726410
:100AD000207369676E616C2E2E2E004C61736572F7
:100AE000205065726970686572616C732044697327
:100AF00061626C6564004C61736572205065726957
:100B000070686572616C7320456E61626C6564002B
:100B10006563686F3A004C6173657220666972693B
:100B20006E6720656E61626C6564006563686F3A2C
:100B300000506978656C3A20004C3A2000593A2000
:100B400000583A2000656E6473746F707320686992
:100B5000743A205A00205A3A00656E6473746F70BC
:100B600073206869743A20590020593A00656E6410
:100B700073746F7073206869743A20580020583A73
:100B800000656E6473746F7073206869743A200036
:100B900024F4D43050C38E20C2A24017828B70112F
:100BA000127A910D816CD90AA861E108C7586607CD
:100BB000615143061E4B5D05C145A7041A4111044E
:100BC000093D9803713931034036DB0265339102E8
:100BD000D4305402802E1D02632CEE01752AC5010B
:100BE000B028A001102781018F2564012B244B011F
:100BF000E0223401AC211F018D200D01801FFC007B
:100C0000841EED00971DDF00B81CD200E61BC60055
:100C1000201BBC00641AB200B219A8000A19A00077
:100C20006A189900D117910040178B00B5168400FF
:100C300031167E00B31579003A157300C7146F00A2
:100C400058146A00EE1366008813630025135E00D3
:100C5000C7125B006C12570015125400C1115100ED
:100C600070114F0021114B00D61049008D10470024
:100C70004610440002104200C00F4000800F3E00AA
:100C8000420F3C00060F3B00CB0E3800930E37009E
:100C90005C0E3500270E3400F30D3200C10D31001B
:100CA000900D3000600D2E00320D2D00050D2C0032
:100CB000D90C2B00AE0C2900850C29005C0C2700F8
:100CC000350C27000E0C2600E80B2400C40B240072
:100CD000A00B23007D0B23005A0B2100390B2100B0
:100CE000180B2000F80A1F00D90A1E00BB0A1E00BC
:100CF0009D0A1D00800A1D00630A1C00470A1B0094
:100D00002C0A1B00110A1A00F7091A00DD09190044
:100D1000C4091900AB091900920917007B091800D2
:100D2000630917004C091600360916002009160041
:100D30000A091500F5081500E0081400CC08140095
:100D4000B8081400A4081400900813007D081200CD
:100D50006B081300580812004608120034081100EE
:100D6000230811001208110001081100F0071000FB
:100D7000E0071000D0071000C0071000B0070F00F8
:100D8000A107100091070E0083070F0074070F00E2
:100D900065070E0057070E0049070E003B070D00C0
:100DA0002E070E0020070D0013070D0006070D008B
:100DB000F9060C00ED060D00E0060C00D4060C0050
:100DC000C8060C00BC060C00B0060C00A4060B0004
:100DD00099060C008D060B0082060B0077060B00AF
:100DE0006C060B0061060A0057060B004C060A0051
:100DF00042060A0038060A002E060A0024060A00E7
:100E00001A060A001006090007060A00FD05090077
:100E1000F4050900EB050900E2050900D905090000
:100E2000D0050900C7050900BE050900B505080081
:100E3000AD050800A50509009C05080094050800FB
:100E40008C050800840508007C050800740508006E
:100E50006C050700650508005D05070056050800DC
:100E60004E05070047050700400508003805070044
:100E7000310507002A050700230507001C050600A9
:100E8000160507000F050700080506000205070004
:100E9000FB040600F5040700EE040600E804060063
:100EA000E2040700DB040600D5040600CF040600B8
:100EB000C9040600C3040600BD040600B70406000A
:100EC000B1040500AC040600A6040600A004050059
:100ED0009B04060095040500900406008A040500A2
:100EE00085040500800406007A04050075040500E9
:100EF000700405006B04050066040500610405002C
:100F00005C04050057040500520405004D0405006B
:100F100048040500430405003E0404003A040500AB
:100F200035040500300404002C04050027040400E7
:100F3000230405001E0404001A040400160405001E
:100F4000110404000D040400090405000404040055
:100F500000040400FC030400F8030400F40304008C
:100F6000F0030400EC030400E8030400E4030400BD
:100F7000E0030400DC030400D8030400D4030400ED
:100F8000D0030400CC030400C8030300C50303001E
:100F900024F404D9201BC40C5C0E9804C4095F021D
:100FA00065077101F405F900FB04B30048048700EC
:100FB000C10369005803550003034500BE023A000F
:100FC0008402310053022A00290225000402200075
:100FD000E4011C00C8011900AF01170098011400BA
:100FE00084011300710110006101100051010E0015
:100FF00043010D0036010B002B010B0020010B00FB
:10100000150109000C01090003010800FB0008009C
:10101000F3000800EB000700E4000600DE00060015
:10102000D8000600D2000600CC000500C70005006D
:10103000C2000500BD000400B9000400B5000400B2
:10104000B1000400AD000400A9000400A5000300E5
:10105000A20003009F0004009B000300980003000F
:101060009500020093000300900003008D00020031
:101070008B00030088000200860002008400030049
:10108000810002007F0002007D0002007B00020060
:10109000790002007700010076000200740002006F
:1010A00072000100710002006F0002006D0001007B
:1010B0006C0002006A000100690002006700010084
:1010C000660001006500010064000200620001008A
:1010D00061000100600001005F0002005D0001008E
:1010E0005C0001005B0001005A0001005900010092
:1010F0005800010057000100560001005500010092
:101100005400010053000000530001005200010090
:1011100051000100500001004F0001004E0000008E
:101120004E0001004D0001004C0001004B0000008A
:101130004B0001004A000100490001004800000086
:101140004800010047000100460000004600010081
:10115000450000004500010044000100430000007C
:101160004300010042000000420001004100000075
:1011700041000100400001003F0000003F0001006D
:101180003E0000003E0001003D0000003D00010067
:101190003C0000003C0000003C0001003B0000005F
:1011A0003B0001003A0000003A0001003900000055
:1011B000390001003800000038000000380001004C
:1011C0003700000037000100360000003600000044
:1011D0003600010035000000350000003500010038
:1011E000340000003400000034000100330000002F
:1011F0003300000033000100320000003200000024
:101200003200010031000000310000003100010017
:101210003000000030000000300001002F0000000E
:101220002F0000002F0000002F0001002E00000002
:101230002E0000002E0001002D0000002D000000F7
:101240002D0000002D0001002C0000002C000000EB
:101250002C0000002C0001002B0000002B000000DF
:101260002B0000002B0001002A0000002A000000D3
:101270002A0000002A0001002900000029000000C7
:1012800029000000290000002900010028000000BA
:1012900028000000280000002800000028000100AD
:1012A00027000000270000002700000027000000A2
:1012B0002700010026000000260000002600000094
:1012C0002600000026000100250000002500000087
:1012D0002500000025000000250000002500010079
:1012E000240000002400000024000000240000006E
:1012F0002400010023000000230000002300000060
:101300002300000023000000230000002300010050
:101310002200000022000000220000002200000045
:101320002200000022000100210000002100000036
:101330002100000021000000210000002100000029
:10134000210001002000000020000000200000001B
:10135000200000002000000020000000200000000D
:10136000200001001F0000001F0000001F000000FF
:101370001F0000001F0000001F0000001F000100F0
:101380001E0000001E0000001E0000001E000000E5
:101390006563686F3A004572723A204D494E544574
:1013A0004D50003A204578747275646572207377E9
:1013B000697463686564206F66662E204D494E54DB
:1013C000454D50207472696767657265642021001D
:1013D0004572723A204D415854454D50003A2045CF
:1013E0007874727564657220737769746368656474
:1013F000206F66662E204D415854454D5020747222
:101400006967676572656420210050494420417511
:10141000746F74756E652066696E697368656421A2
:101420002050757420746865204B702C204B692007
:10143000616E64204B6420636F6E7374616E7473AD
:1014400020696E746F20436F6E6669677572617490
:10145000696F6E2E6800504944204175746F747531
:101460006E65206661696C6564212074696D656FC5
:1014700075740020403A006F6B20543A006F6B2067
:10148000423A00504944204175746F74756E65206E
:101490006661696C6564212054656D706572617464
:1014A00075726520746F6F206869676800204B64EF
:1014B0003A2000204B693A2000204B703A2000204F
:1014C000436C617369632050494420002054753A8D
:1014D0002000204B753A2000206D61783A200020D2
:1014E0006D696E3A200020643A20002062696173C1
:1014F0003A20004572726F723A0043617264207242
:10150000656D6F766564004361726420696E736512
:10151000727465640059002D2D3A2D2D002D2D2D4E
:10152000250025004730205A2573204631353000EC
:10153000473238205A204631353000437573746F76
:101540006D00437573746F6D00376D6D00366D6D92
:10155000202D20312F34696E00356D6D00346D6D96
:1015600000336D6D202D20312F38696E00326D6D86
:1015700000316D6D004C617365722046756E637449
:10158000696F6E73004D3830005761726D2D757044
:10159000204C6173657220327365630031303025F1
:1015A000203130306D730031303025202035306DE2
:1015B000730020323025203130306D7300203230FE
:1015C00025202035306D73004C617365722046759F
:1015D0006E6374696F6E73004D3830004D383100A2
:1015E0005475726E204F66662050756D70732F466D
:1015F000616E73005475726E204F6E2050756D7061
:10160000732F46616E73005465737420466972656A
:101610000053657420466F637573004D61696E00F9
:101620005370656564005370656564004D61696E53
:1016300000580059005A004578747275646572004C
:101640004578747275646572004D6F7665205A0036
:101650004D6F76652059004D6F76652058004D6FAF
:1016600076652041786973004D6F766520302E31A4
:101670006D6D004D6F766520316D6D004D6F766537
:101680002031306D6D0050726570617265004D6F74
:1016900076652041786973004D383000537769745E
:1016A000636820506F776572204F6E004D383100AF
:1016B00053776974636820506F776572204F666650
:1016C00000473932205830205930205A30005365B5
:1016D00074204F726967696E00473238205820596C
:1016E000204632303030004175746F20486F6D6590
:1016F000004D313700456E61626C65205374657032
:1017000070657273004D38340044697361626C65B2
:10171000205374657070657273004D61696E004589
:1017200073746570732F6D6D004573746570732FDE
:101730006D6D005A73746570732F6D6D005A7374FC
:101740006570732F6D6D005973746570732F6D6DB7
:10175000005973746570732F6D6D005873746570E4
:10176000732F6D6D005873746570732F6D6D00412C
:101770002D7265747261637400412D7265747261BB
:10178000637400416D6178206500416D617820656A
:1017900000416D6178207A00416D6178207A0041C6
:1017A0006D6178207900416D6178207900416D612B
:1017B00078207800416D6178207800565472617607
:1017C000206D696E005654726176206D696E005608
:1017D0006D696E00566D696E00566D61782065000A
:1017E000566D6178206500566D6178207A00566DDF
:1017F0006178207A00566D6178207900566D6178A5
:10180000207900566D6178207800566D61782078D7
:101810000056652D6A65726B0056652D6A65726BA0
:1018200000567A2D6A65726B00567A2D6A65726B66
:10183000005678792D6A65726B005678792D6A6545
:10184000726B00416363656C00416363656C0043C8
:101850006F6E74726F6C00436F6E7472617374009C
:10186000526573746F7265204661696C7361666559
:10187000004C6F6164206D656D6F72790053746FF9
:101880007265206D656D6F7279004C434420636F03
:101890006E7472617374004D6F74696F6E004D6188
:1018A000696E004D383420582059205A2045004D8B
:1018B0003234004D323320257300F92E2E004D6155
:1018C000696E004E6F2043617264005072696E74DD
:1018D0002066726F6D2053440053746F70205072F5
:1018E000696E7400526573756D65205072696E740F
:1018F000005061757365205072696E7400436F6E9D
:1019000074726F6C00507265706172650054756E10
:1019100065004C617365722046756E6374696F6E05
:101920007300496E666F2073637265656E00FFF029
:101930008F108F109F909F908010801080108010CB
:10194000801080108010FFF0FFF08F108F109F909C
:101950009F90801086108610C630A6509690AF508B
:10196000FFF0001C0000003E000000770000006354
:10197000000000C1800001C1C0000188C000030850
:10198000600007417000062A30000C1C18001DBFC3
:10199000FC00181C0C00302A06007041070060880B
:1019A0008300C0080180C0000180FFFFFF807FFF2F
:1019B000FF0000060900FE070199032B20FFFE0827
:1019C000FE07FE0000000600000107070602008077
:1019D000808080800080030303060104A0A0A0058E
:1019E00007070600005050F850F85050050707064A
:1019F00000002070A070287020050707060000482E
:101A0000A8502050A89005070706000040A0A0405D
:101A1000A89068010303060204808080030707067C
:101A200001002040808080402003070706010080DD
:101A30004020202040800505050600018850F85010
:101A4000880505050600012020F820200303030671
:101A500001FF604080050101060003F8030303064F
:101A600001FF40E04005070706000008081020407D
:101A700080800507070600002050888888502005D0
:101A800007070600002060A0202020F805070706B1
:101A90000000708808304080F8050707060000F84D
:101AA00008103008887005070706000010305090B5
:101AB000F81010050707060000F880B0C808887005
:101AC000050707060000304080B0C888700507078A
:101AD000060000F808101020404005070706000027
:101AE00070888870888870050707060000708898DD
:101AF000680810600307070601FF40E0400040E06F
:101B0000400307070601FF40E040006040800407F3
:101B10000706010010204080402010050303060046
:101B200002F800F80407070601008040201020405A
:101B30008005070706000070881020200020050798
:101B400007060000708898A8B08070050707060097
:101B50000020508888F88888050707060000F048AC
:101B600048704848F00507070600007088808080AC
:101B70008870050707060000F04848484848F00507
:101B80000707060000F88080F08080F80507070648
:101B90000000F88080F08080800507070600007054
:101BA000888080988870050707060000888888F874
:101BB000888888030707060100E04040404040E075
:101BC0000507070600003810101010906005070781
:101BD0000600008890A0C0A09088050707060000B6
:101BE000808080808080F80507070600008888D8FC
:101BF000A88888880507070600008888C8A89888EC
:101C0000880507070600007088888888887005079F
:101C100007060000F08888F080808005080806002C
:101C2000FF7088888888A87008050707060000F0FC
:101C30008888F0A0908805070706000070888070EB
:101C4000088870050707060000F8202020202020C3
:101C500005070706000088888888888870050707B8
:101C600006000088888850505020050707060000AD
:101C7000888888A8A8D888050707060000888850A3
:101C800020508888050707060000888850202020FB
:101C900020050707060000F80810204080F8030719
:101CA00007060100E08080808080E00507070600CD
:101CB0000080804020100808030707060100E0208C
:101CC00020202020E00503030600042050880501A1
:101CD000010600FFF8020202060206804005050523
:101CE00006000070087888780507070600008080E5
:101CF000B0C888C8B00505050600007088808870E7
:101D00000507070600000808689888986805050513
:101D10000600007088F8807005070706000030484C
:101D200040F04040400507070600FE7888887808A4
:101D300088700507070600008080B0C8888888037F
:101D400007070601004000C0404040E004090906C2
:101D500001FE10003010101090906005070706007B
:101D60000080808890E09088030707060100C0404B
:101D700040404040E0050505060000D0A8A8A8881E
:101D8000050505060000B0C8888888050505060019
:101D90000070888888700507070600FEB0C888C8EC
:101DA000B080800507070600FE68988898680808D4
:101DB000050505060000B0C8808080050505060001
:101DC0000070807008F00507070600004040F040F2
:101DD0004048300505050600008888889868050594
:101DE000050600008888505020050505060000887B
:101DF00088A8A850050505060000885020508805D1
:101E000007070600FE88889868088870050505069B
:101E10000000F8102040F8040707060100304020B9
:101E2000C02040300107070602008080808080804B
:101E300080040707060100C02040304020C0050391
:101E40000306000448A89000000001000000000004
:101E5000010000000000010000000000010000007F
:101E6000000001000000000001000000000001006F
:101E70000000000001000000000001000000000060
:101E8000010000000000010000000000010000004F
:101E9000000001000000000001000000000001003F
:101EA0000000000001000000000001000000000030
:101EB000010000000000010000000000010000001F
:101EC000000001000000000001000000000001000F
:101ED0000000000001000000000001000000000000
:101EE00001000000000001000000000001000000EF
:101EF00000000100000000000100000000000100DF
:101F000000000000010000000000010000000000CF
:101F100006000001070706020080008080808080A4
:101F20000507070600FF2078A0A0A0782005070776
:101F3000060000304840E04048B0050505060000B6
:101F400088705070880508080600FF88885020F8BF
:101F5000202020010707060200808080008080800A
:101F60000508080600FF7080E090483808700301FB
:101F700001060107A00507070600007088A8C8A889
:101F800088700406060601017090B05000F0060546
:101F9000050600002448904824040202060102F0CD
:101FA00010040101060103F0050707060000708810
:101FB000E8C8C88870050101060007F80303030696
:101FC000010440A0400506060600002020F820205D
:101FD000F804050506010360902040F0040505069D
:101FE0000103E0106010E0020202060206408005D4
:101FF00006060600FF888888C8B080050707060027
:102000000078E8E868282828010101060203800218
:1020100002020602FE408003050506010340C0409F
:1020200040E00406060601016090906000F006059D
:102030000506000090482448900609090600FF4064
:10204000C04040E40C143C040609090600FF40C0EF
:102050004040E81404081C0509090600FFC02040A0
:1020600020C818287808050707060000200020204F
:102070004088700508080600004020708888F888AD
:10208000880508080600001020708888F8888805F0
:1020900008080600002050708888F888880508081D
:1020A00006000048B0708888F8888805080806008F
:1020B000005000708888F88888050808060000200D
:1020C00050708888F888880607070600003C509002
:1020D0009CF0909C0509090600FE7088808080882D
:1020E00070204005080806000040F88080F08080DD
:1020F000F805080806000010F88080F08080F805D8
:10210000080806000020F88080F08080F8050808A4
:1021100006000050F88080F08080F803080806016F
:10212000008040E040404040E003080806010020F5
:1021300040E040404040E003080806010040A0E0C5
:1021400040404040E0030808060100A000E0404095
:102150004040E0050707060000F04848E84848F01E
:10216000050808060000285088C8A898888805082F
:1021700008060000402070888888887005080806D6
:102180000000102070888888887005080806000004
:10219000205070888888887005080806000028503C
:1021A00070888888887005080806000050007088CC
:1021B000888888700505050600008850205088052D
:1021C0000707060000709898A8C8C8700508080698
:1021D000000040208888888888700508080600006C
:1021E000102088888888887005080806000020501C
:1021F00000888888887005080806000050008888D4
:1022000088888870050808060000102088885020FB
:10221000202005070706000080F088F080808005F8
:102220000707060000708890A09088B0050808068F
:102230000000402000700878887805080806000033
:1022400010200070087888780508080600002050E3
:10225000007008788878050808060000285000708B
:10226000087888780507070600005000700878880D
:102270007805080806000020502070087888780645
:10228000050506000078147C907C0507070600FE13
:1022900070888088702040050808060000402000F3
:1022A0007088F8807005080806000010200070880B
:1022B000F880700508080600002050007088F8803B
:1022C0007005070706000050007088F8807003084A
:1022D00008060100804000C0404040E003080806B6
:1022E0000100408000C0404040E0030808060100B3
:1022F00040A000C0404040E0060A0A0600FEA4A834
:1023000000FC8480808084FC060A0A0600FE549447
:1023100000FC8404040484FC05080806000028501E
:1023200000B0C888888805080806000040200070B2
:1023300088888870040A0A0602FE304080909090D7
:1023400090909090040A0A0600FEC0201090909091
:1023500090909090060707060001448C8C84804082
:102360003C06070706000188C4C4840408F005057C
:10237000050600012000F8002005080806000040BE
:10238000F0C88888987810050808060000E0F888EA
:1023900088888888F80505050600012030F8302077
:1023A0000508080600002070F820202020E005091C
:1023B000090600FF2070A8A8B888885020050909E0
:1023C0000600FFE080C0B0A8A8302828050909064B
:1023D00000FFF8A88888888888A8F8050A0A0600F7
:1023E000FE205050505088A8A8887000060900FEB2
:1023F00006018902FE20FFFE07FE06FE0000000621
:10240000000701060606020080808080008003032A
:1024100003060103A0A0A00507070600FF5050F81F
:1024200050F850500509090600FE2070A8A0702839
:10243000A870200608080600FF40A848102048544D
:10244000080507070600FF609090609890680103F8
:10245000030602038080800207070602FF40808097
:10246000808080400207070602FF804040404040D5
:10247000800505050600008850F85088050505060A
:1024800000002020F820200204040602FEC0404084
:1024900080050101060002F8020202060200C0C027
:1024A000040606060100101020408080040606067F
:1024B000010060909090906003060606010040C005
:1024C000404040E00406060601006090102040F005
:1024D000040606060100F020601010E0050606065E
:1024E000000010305090F810040606060100F0803D
:1024F000E01010E00406060601006080E0909060A5
:10250000040606060100F0101020404004060606EE
:1025100001006090609090600406060601006090E3
:1025200090701060020505060200C0C000C0C00225
:1025300007070602FEC0C000C04040800505050632
:1025400000001860806018050303060001F800F819
:10255000050505060000C0300830C0040707060165
:102560000060901060400040050606060000709074
:10257000A8B08070050606060000205088F88888FC
:10258000050606060000F088F08888F004060606B6
:102590000100609080809060040606060100E090D3
:1025A000909090E0040606060100F080E08080F044
:1025B000040606060100F080E0808080040606061E
:1025C0000100609080B090600406060601009090C3
:1025D000F0909090030606060100E040404040E085
:1025E0000506060600003810101090600406060666
:1025F000010090A0C0A09090040606060100808013
:10260000808080F005060606000088D8A8A8888883
:1026100004060606010090D0B090909005060606CC
:102620000000708888888870040606060100E09023
:1026300090E080800407070601FF609090D0B060B2
:1026400010040606060100E09090E0909004060653
:10265000060100609040209060050606060000F824
:1026600020202020200406060601009090909090E3
:1026700060040606060100909090F0606005060672
:102680000600008888A8A8D88805060606000088E5
:10269000502020508805060606000088885020201B
:1026A00020040606060100F010204080F003060614
:1026B000060100E080808080E004060606010080BC
:1026C0008040201010030606060100E02020202094
:1026D000E00503030600032050880501010600FE03
:1026E000F80202020602048040040404060100709D
:1026F0009090700406060601008080E09090E0044F
:1027000004040601007080807004060606010010B3
:10271000107090907004040406010060B0C0700452
:102720000606060100205040E0404004060606016F
:10273000FE6090907010600406060601008080E044
:102740009090900306060601004000C04040E00360
:1027500008080601FE200060202020A04004060694
:102760000601008080A0C0A090030606060100C0FC
:1027700040404040E0050404060000D0A8A88804BA
:102780000404060100E09090900404040601006037
:102790009090600406060601FEE09090E0808004C0
:1027A00006060601FE7090907010100404040601E5
:1027B00000A0D0808004040406010070C030E00452
:1027C00006060601004040E04050200404040601D3
:1027D00000909090700404040601009090606005E1
:1027E000040406000088A8A8500404040601009010
:1027F0006060900406060601FE9090907090600460
:102800000404060100F02040F00307070601002041
:102810004040804040200107070602FF8080808002
:1028200080808003070706010080404020404080F0
:1028300004020206010350A0FFFFFFFFFFFFFFFF9E
:10284000FFFFFFFFFFFFFFFFFFFFFFFFFFFFFFFF98
:10285000FFFFFFFFFFFFFFFFFF0000000600070173
:1028600006060602008000808080800406060601BD
:10287000FF2070A0A070200507070600FF30484029
:10288000F04040F8050505060000A8508850A8054E
:1028900006060600008850F820F820010707060207
:1028A000FF808080008080800407070601FF708021
:1028B00060906010E0030101060105A0060707060D
:1028C0000000788494A494847803050506010160CF
:1028D000A06000E00505050600002850A05028046F
:1028E0000303060100F01010040101060102F006C6
:1028F00007070600007884B4A4A4847804010106C4
:102900000105F00403030601026090600507070655
:1029100000FF2020F8202000F803050506010140F3
:10292000A02040E0030505060101C0204020C002B0
:10293000020206020440800405050601FF9090B0E3
:10294000D08005060606000078E8E868282801011E
:1029500001060202800202020602FE408003050513
:1029600006010140C04040E003050506010140A00A
:102970004000E0050505060000A0502850A005080D
:10298000080600FF40C04050703078100508080667
:1029900000FF40C04050680810380508080600FFD6
:1029A000C0204030F03078100407070601002000F6
:1029B00020608090600507070600004020205070CE
:1029C00088880507070600001020205070888805B9
:1029D000070706000020502050708888050707066A
:1029E0000000285020507088880507070600005016
:1029F00000205070888805070706000020502050EE
:102A000070888805060606000078A0F0A0A0B8042B
:102A100008080601FE60908080906020400407074F
:102A20000601004020F080E080F004070706010066
:102A30002040F080E080F00407070601002050F0FD
:102A400080E080F00407070601005000F080E0807D
:102A5000F00307070601008040E0404040E0030724
:102A6000070601002040E0404040E0030707060160
:102A70000040A0E0404040E0030707060100A0003E
:102A8000E0404040E00506060600007048E848487F
:102A90007004070706010050A090D0B09090040782
:102AA000070601004020609090906004070706012F
:102AB00000204060909090600407070601002050BD
:102AC000609090906004070706010050A06090900D
:102AD0009060040707060100500060909090600528
:102AE000050506000088502050880408080601FFEC
:102AF0001070B0B0D0D0E08004070706010040207D
:102B000090909090600407070601002040909090FC
:102B10009060040707060100205090909090600498
:102B20000707060100500090909090600507070687
:102B30000000102088502020200406060601008096
:102B4000E09090E0800406060601006090A0A0904E
:102B5000A004070706010040200070909070040751
:102B600007060100204000709090700407070601DE
:102B7000002050007090907004070706010050A0DC
:102B8000007090907004060606010050007090904E
:102B90007004070706010020502070909070050413
:102BA0000406000070A8B0780406060601FE7080D6
:102BB0008070204004070706010040200060B0C07C
:102BC0007004070706010020400060B0C0700407D1
:102BD0000706010020500060B0C070040606060120
:102BE00000500060B0C0700307070601008040007D
:102BF000C04040E0030707060100204000C04040FD
:102C0000E003070706010040A000C04040E00306C3
:102C100006060100A000C04040E0040707060100CE
:102C20003060107090906004070706010050A0000B
:102C3000E09090900407070601004020006090900B
:102C400060040707060100204000609090600407C0
:102C500007060100205000609090600407070601FD
:102C60000050A0006090906004060606010050002D
:102C7000609090600505050600002000F800200423
:102C8000040406010070B0D0E0040707060100400C
:102C900020009090907004070706010020400090EB
:102CA00090907004070706010020500090909070EB
:102CB0000406060601005000909090700409090671
:102CC00001FE20400090909070906004080806017A
:102CD000FE8080E09090E080800408080601FE50AD
:102CE00000909090709060FFFFFFFFFFFFFFF0FFEC
:102CF000FFFFFFFFFFFFF0FFFFFFF9FFFFFFF0FF08
:102D0000FFFFF0FFFFFFF0FFFFFFE07FFFFFF0FF9F
:102D1000FFFFC03FFFFFF0FFFFFF801FFFFFF0FF3F
:102D2000FFFF000FFFFFF0FFFFFE0007FFFFF0FFB8
:102D3000FFFC0003FFFFF0FFFFF80001FFFFF0FFC3
:102D4000FFF00000FFFFF0FFFFE000007FFFF0FF5B
:102D5000FFC000003FFFF0FFFF8000003FFFF0FFDB
:102D6000FF0000001FFFF0FFFE0000000FFFF0FF5C
:102D7000FE00000007FFF0FFFC00000007FFF0FF6F
:102D8000FC00000003FFF0FFF800000003FFF0FF6D
:102D9000F800000003FFF0FFF800000001FFF0FF63
:102DA000F800000001FFF0FFF800000001FFF0FF55
:102DB000F800000001FFF0FFF800000001FFF0FF45
:102DC000F800000001FFF0FFF800000001FFF0FF35
:102DD000F800000001FFF0FFF800000003FFF0FF23
:102DE000F800000003FFF0FFFC00000003FFF0FF0D
:102DF000FC00000007FFF0FFFE00000007FFF0FFEF
:102E0000FE0000000FFFF0FFFF0000001FFFF0FFBB
:102E1000FF8000001FFFF0FFFFC000003FFFF0FF3A
:102E2000FFE000007FFFF0FFFFF00001FFFFF0FF79
:102E3000FFFC0003FFFFF0FFFFFF001FFFFFF0FF9D
:102E4000FFFFFFFFFFFFF0FFFFFFFFFFFFFFF0FFB0
:102E5000FFFFFFFFFFFFF0FFFFFFFFFFFFFFF0FFA0
:102E6000FFFFFFFFFFFFF0FFFFFFFFFFFFFFF0FF90
:102E7000FFFFFFFFFFFFF083FFFFFE0FFFFFF0806C
:102E8000FFFFFE03FFFFF0887FFFFE23FFFFF08CB4
:102E900070380E7181C0708C60380E6380C03080D5
:102EA000E319C607F8C73080E019C60380C7108C45
:102EB0006279C6639CC7308C63F8C67118C6308EC1
:102EC00030180E7180C0309E38391E79C4C4F0FFAE
:102ED000FFF9FFFFFFC7F0FFFFF9FFFFFFC7F0FF9C
:102EE000FFFFFFFFFFFFF0000000000000000000F8
:102EF00000000000000000000000000000000000D2
:102F000000000000000000000000000000000000C1
:102F100000000000000000000000000000000000B1
:102F2000000000000000091200FC0A01E803D7209D
:102F3000FFFD0EFD0BFD00000009000E010B0B094B
:102F400004008080808080808000008080040404F1
:102F500009030790909090080A0A0900002424248D
:102F6000FF2424FF242424070B0B0901FF107C926B
:102F70009050381412927C10070A0A09010042A4EA
:102F8000A4481010244A4A84070A0A0901006090E4
:102F90009090606294889462010404090407808020
:102FA0008080030C0C0903FF2040408080808080DB
:102FB00080404020030C0C0903FF8040402020206B
:102FC0002020204040800707070901031092543851
:102FD000549210070707090101101010FE1010107D
:102FE0000204040904FEC0C0408007010109010475
:102FF000FE020202090400C0C0070A0A0901000219
:10300000040408101020404080070A0A0901003813
:10301000448282828282824438070A0A09010010AF
:103020003050901010101010FE070A0A09010038E5
:103030004482020408102040FE070A0A090100FE2B
:10304000020408180402028478070A0A090100042D
:103050000C14244484FE040404070A0A090100FE37
:10306000808080F80402028478070A0A0901003C83
:10307000408080B8C482824438070A0A090100FEF1
:10308000020404080810101010070A0A0901003889
:10309000448244384482824438070A0A09010038CD
:1030A000448282463A02020478020707090400C0FB
:1030B000C0000000C0C00209090904FEC0C0000031
:1030C00000C0C040800509090902000810204080A6
:1030D00040201008070404090102FE0000FE050953
:1030E00009090200804020100810204080070A0AC9
:1030F00009010038448202040810100010070A0A6F
:1031000009010038449AAAAAAAAA9C403C070A0AC4
:1031100009010010282828447C44828282070A0A78
:10312000090100F8848284F884828284F8070A0AFC
:103130000901003C42808080808080423C070A0A6E
:10314000090100F88482828282828284F8070A0A56
:10315000090100FE808080F880808080FE070A0AD6
:10316000090100FE808080F88080808080070A0A44
:1031700009010038448280808E82824438070A0A1E
:1031800009010082828282FE8282828282050A0A8C
:10319000090200F82020202020202020F8070A0A19
:1031A0000901003E080808080808888870070A0A0C
:1031B00009010082848890A0D088848282070A0A4C
:1031C000090100808080808080808080FE070A0A5C
:1031D0000901008282C6AA928282828282070A0A3A
:1031E0000901008282C2A2928A86828282070A0A2A
:1031F0000901007C82828282828282827C070A0AA2
:10320000090100F884828284F880808080080B0B9A
:103210000901FF384482828282828A443A01070A85
:103220000A090100F884828284F890888482070A5F
:103230000A0901007C8280807C020202827C070AEB
:103240000A090100FE101010101010101010070ACB
:103250000A09010082828282828282824438070ABD
:103260000A09010082828244444428282810070A5F
:103270000A0901008282828292929292AA44070AEB
:103280000A09010082824428101028448282070A19
:103290000A09010082824428101010101010070A39
:1032A0000A090100FE0204081020408080FE040C80
:1032B0000C0903FFF080808080808080808080F017
:1032C000070A0A0901008040402010100804040287
:1032D000040C0C0902FFF010101010101010101048
:1032E00010F00704040901061028448208010109AE
:1032F00000FFFF03030309030A80402007070709B3
:1033000001007C02027E82867A070A0A0901008097
:103310008080BCC2828282C2BC0707070901007C90
:1033200082808080827C070A0A0901000202027AF8
:1033300086828282867A0707070901007C8282FEE4
:1033400080827C070A0A0901001C22222020F82022
:10335000202020070A0A0901FD7A84848478807C71
:1033600082827C070A0A090100808080BCC28282B6
:10337000828282050A0A090200600000E020202003
:103380002020F8050D0D0902FD1800003808080876
:10339000080808888870070A0A090100808080846C
:1033A0008890B0C88482050A0A090200E020202023
:1033B0002020202020F8070707090100EC929292B4
:1033C000929282070707090100BCC2828282828230
:1033D0000707070901007C82828282827C070A0A31
:1033E0000901FDB8C4828282C4B8808080070A0ABD
:1033F0000901FD3A46828282463A02020207070725
:103400000901009C62424040404007070709010053
:103410007C82807C02827C0709090901002020FC53
:1034200020202020221C07070709010082828282B7
:1034300082867A07070709010082824444282810FF
:103440000707070901008282929292AA44070707A0
:1034500009010082442810284482070A0A0901FD54
:10346000424224242418181090600707070901001D
:10347000FE0408102040FE060B0B0902001C202051
:103480002020C0202020201C010C0C0904FF80807B
:1034900080808080808080808080060B0B09010006
:1034A000E0101010100C10101010E00703030901B9
:1034B0000762928CFFFFFFFFFFFFFFFFFFFFFFFF91
:1034C000FFFFFFFFFFFFFFFFFFFFFFFFFFFFFFFF0C
:1034D000FFFFFFFFFF00000009000E010B0B0904B6
:1034E000008080000080808080808080060808093D
:1034F000010008789490A0A47840070A0A09010006
:103500001C222020F8202060A25C07060609010387
:10351000827C44447C82070A0A0901008282442892
:103520007C107C101010010B0B0904FF8080808040
:1035300080008080808080040B0B0902FF609080F7
:10354000609090906010906003020209030BA0A0AD
:103550000809090900013C4299A5A1A599423C0529
:103560000707090103609070907800F807080809C0
:103570000101122448909048241206040409010213
:10358000FC040404050101090204F8080909090002
:10359000013C42B9A5BDA9A5423C060101090109AA
:1035A000FC040404090306609090600709090901FE
:1035B00001101010FE10101000FE04060609010490
:1035C0006090106080F004060609010460902010ED
:1035D000906003030309030A2040800709090901D9
:1035E000FE8282828282C6BA8080070A0A090100AE
:1035F0007E8A8A8A7A0A0A0A0A0A020202090404EC
:10360000C0C00403030902FD2090600306060901FF
:103610000440C0404040E005060609010470888867
:103620007000F80708080901019048241212244884
:1036300090070A0A09010040C0404042E60A121AF7
:1036400006070A0A09010040C040404CF2020C1073
:103650001E070A0A0901006090201092660A121AD9
:1036600006070A0A0901001000101020408082821B
:103670007C070E0E0901002010080010282828449D
:103680007C44828282070E0E09010008102000107F
:10369000282828447C44828282070E0E09010010EB
:1036A00028440010282828447C44828282070D0D7B
:1036B00009010034580010282828447C4482828262
:1036C000070D0D09010028280010282828447C44F3
:1036D000828282070E0E0901001028281010282867
:1036E00028447C44828282070A0A0901001E282895
:1036F000284E784888888E070D0D0901FD3C4280D0
:103700008080808080423C082418070E0E0901004A
:1037100020100800FE808080F880808080FE070EE8
:103720000E09010008102000FE808080F880808053
:1037300080FE070E0E09010010284400FE808080E4
:10374000F880808080FE070D0D090100282800FE0A
:10375000808080F880808080FE050E0E0902004087
:10376000201000F82020202020202020F8050E0E18
:1037700009020010204000F82020202020202020D6
:10378000F8050E0E09020020508800F820202020A5
:1037900020202020F8050D0D090200505000F820CF
:1037A00020202020202020F8070A0A090100784460
:1037B0004242F24242424478070D0D09010034585A
:1037C000008282C2A2928A86828282070E0E09013C
:1037D00000201008007C82828282828282827C07A2
:1037E0000E0E090100081020007C828282828282F3
:1037F00082827C070E0E090100102844007C828220
:103800008282828282827C070D0D09010034580079
:103810007C82828282828282827C070D0D09010075
:103820002828007C82828282828282827C0707072B
:1038300009010182442810284482070C0C0901FF69
:10384000027C868A8A9292A2A2C27C80070E0E090E
:1038500001002010080082828282828282824438A3
:10386000070E0E09010008102000828282828282E7
:1038700082824438070E0E0901001028440082821B
:103880008282828282824438070D0D090100282835
:103890000082828282828282824438070E0E09016F
:1038A0000008102000828244281010101010100709
:1038B0000A0A0901008080FC828282FC80808006E6
:1038C0000A0A09010038444448D04844444458078F
:1038D0000B0B090100201008007C02027E82867A10
:1038E000070B0B090100081020007C02027E828673
:1038F0007A070B0B090100102844007C02027E822B
:10390000867A070A0A0901003458007C02027E8286
:10391000867A070A0A0901002828007C02027E82B2
:10392000867A070C0C09010010282810007C02027E
:103930007E82867A0707070901006C12127E909238
:103940006C070A0A0901FD7C82808080827C104815
:1039500030070B0B090100201008007C8282FE80DA
:10396000827C070B0B090100081020007C8282FE7C
:1039700080827C070B0B090100102844007C8282A6
:10398000FE80827C070A0A0901002828007C8282C6
:10399000FE80827C050C0C0902008040200000E0C3
:1039A0002020202020F8050C0C09020010204000E7
:1039B00000E02020202020F8050C0C0902002050F7
:1039C000880000E02020202020F8050B0B090200D1
:1039D00050500000E02020202020F8070B0B0901A8
:1039E00000483050083C448282824438070A0A0961
:1039F0000100345800BCC28282828282070B0B090C
:103A00000100201008007C82828282827C070B0BDE
:103A1000090100081020007C82828282827C070BD0
:103A20000B090100102844007C82828282827C077C
:103A30000A0A0901003458007C82828282827C0753
:103A40000A0A0901002828007C82828282827C077F
:103A5000090909010010381000FE0010381007098C
:103A6000090901FF027C8A8A92A2A27C80070B0BC3
:103A7000090100402010008282828282867A070B30
:103A80000B090100081020008282828282867A0758
:103A90000B0B090100102844008282828282867A00
:103AA000070A0A0901002828008282828282867A17
:103AB000070E0E0901FD04081000424224242418B8
:103AC00018109060070B0B0901FE8080B8C4828239
:103AD00082C4B88080070D0D0901FD2424004242F4
:103AE000242424181810906001050800FF06012105
:103AF000023520FFFF07FF06FF09005022165680FF
:103B00008080800080153353A0A0A00257575050EA
:103B1000F850F850500257572070A07028702013AA
:103B2000355580A040A02002475740A0A040A0A04B
:103B3000502513538080801226564080808080401C
:103B40001226568040404040800245559060F0600B
:103B5000900255552020F8202011335360408004F6
:103B60004151F011335340E04002465610102040BE
:103B7000808012365640A0A0A0A04012365640C009
:103B8000404040E00246566090106080F002465689
:103B9000F020601090600246562060A0F0202002C5
:103BA0004656F080E01090600246566080E09090AB
:103BB00060024656F0102020404002465660906059
:103BC000909060024656609090701060122555C02B
:103BD000C000C0C01136566060006040801236568A
:103BE000204080804020034353F000F0123656807E
:103BF000402020408012365640A02040004001580E
:103C000058304898A8A8904030024656609090F0EE
:103C10009090024656E090E09090E0024656609008
:103C200080809060024656E090909090E002465668
:103C3000F080E08080F0024656F080E080808002D4
:103C40004656609080B090600246569090F09090FA
:103C500090123656E040404040E002465670202028
:103C600020A04002465690A0C0A0A09002465680D8
:103C700080808080F002465690F0F090909002464E
:103C80005690D0F0B0B09002465660909090906000
:103C9000024656E09090E08080014757609090D0B7
:103CA000B06010024656E09090E090900246566058
:103CB0009040209060123656E0404040404002461E
:103CC00056909090909060024656909090906060D0
:103CD000024656909090F0F09002465690906060A8
:103CE0009090025656888850202020024656F010A8
:103CF000204080F0123656E080808080E0024656F8
:103D0000808040201010123656E020202020E0163F
:103D1000325240A0014151F01622528040024454D8
:103D2000709090700246568080E09090E01234547B
:103D3000608080600246561010709090700244546B
:103D400060B0C060024656205040E04040014555FA
:103D500060907010600246568080E090909012361D
:103D6000564000C04040E01137572000202020A0DE
:103D700040024656808090E09090123656C04040F7
:103D80004040E0025454D0A8A8A8024454E09090C7
:103D90009002445460909060014555E090E080802E
:103DA0000145557090701010024454A0D0808012CC
:103DB000345460C020C00246564040E040502002CB
:103DC000445490909070123454A0A0A040025454D7
:103DD00088A8A85002445490606090014555909086
:103DE000709060024454F02040F002475730402069
:103DF000C020403022165680808080808002475745
:103E0000C02040304020C006425250A0FFFFFFFFBC
:103E1000FFFFFFFFFFFFFFFFFFFFFFFFFFFFFFFFB2
:103E2000FFFFFFFFFFFFFFFFFFFFFFFFFF09005046
:103E30002216568000808080800146562070A0A007
:103E400070200246562050E04050A0025555887020
:103E50005070880256568850F820F8202217578054
:103E60008080008080800247577080E0907010E072
:103E7000173151A002565670A8C8C8A870143555FD
:103E800060A06000E003435350A050123353E02081
:103E900020143151E002565670E8D8E8D870173136
:103EA00051E015335340A04012355540E04000E04A
:103EB00014355540A02040E0143555C020C020C026
:103EC0001622524080014555909090E0800256564F
:103ED00078E8E86828282411518011225240801483
:103EE000355540C04040E014355540A04000E00347
:103EF0004353A050A0024757808080A060F020026A
:103F000047578080A0D010207002475780408060C3
:103F1000A0F02012365640004080A0400247574093
:103F2000206090F0909002475720406090F0909071
:103F300002475760906090F0909002475750A06001
:103F400090F0909002475790006090F09090024758
:103F50005760906090F0909002465670A0A0F0A03C
:103F6000B0014757609080809060400247574020E2
:103F7000F080E080F00247572040F080E080F002BF
:103F800047576090F080E080F00247579000F08043
:103F9000E080F01237578040E0404040E012375751
:103FA0002040E0404040E012375740A0E040404011
:103FB000E0123757A000E0404040E00256567048FB
:103FC000E848487002475750A090D0B09090024700
:103FD000574020609090906002475720406090903A
:103FE00090600247576090609090906002475750F1
:103FF000A060909090600247579000609090906011
:10400000123353A040A002465670B0B0D0D0E002A8
:1040100047574020909090906002475720409090E2
:104020009090600247576090909090906002475740
:104030009000909090906002575710208850202058
:104040002002465680E09090E0800246566090A0A4
:10405000A090A002475740200070909070024757F0
:104060002040007090907002475720500070909050
:104070007002475750A00070909070024656500052
:1040800070909070024757609060709090700254EA
:1040900054F068B078113555608080604002475711
:1040A00040200060B0C06002475720400060B0C0B0
:1040B0006002475760900060B0C0600246565000F2
:1040C00060B0C060123757804000C04040E01237F7
:1040D00057204000C04040E012375740A000C04089
:1040E00040E0123656A000C04040E0024757A040D2
:1040F000A01070906002475750A000E0909090028E
:104100004757402000609090600247572040006071
:10411000909060024757609000609090600247570F
:1041200050A00060909060024656900060909060B1
:104130001235554000E0004002445470B0D0E00217
:1041400047574020009090907002475720400090C1
:104150009090700247576090009090907002465681
:10416000900090909070014858204000909070907E
:10417000600147578080E090E080800147579000C1
:1041800090907090600200000A0B02090C0D0E085E
:104190000703040100000000000000000000000010
:1041A000000000000000000000000000000000000F
:1041B00000001211100000000000000000000000CC
:1041C00000000000000000000000000001021020BC
:1041D000200808102040102040800201020108043D
:1041E00002010102040810204080804020100804D1
:1041F000020180040201804020100804020108042A
:10420000020101020408102040800102040810206D
:104210004080050505050705080808080202020296
:104220000A0A080804040404010101010101010152
:104230000303030303030303040707070C0C0C0C1D
:104240000C0C0C0C02020202060606060606060606
:104250000B0B0B0B0B0B0B0B000022002500280097
:104260002B002E003100340002010000050108017E
:104270000B0100002100240027002A002D0030003F
:10428000330001010000040107010A014E414E49BB
:104290004E495459494E46CDCCCC3D0AD7233C1704
:1042A000B7D13877CC2B329595E6241FB14F0A0051
:1042B0000020410000C84200401C4620BCBE4CCA41
:1042C0001B0E5AAEC59D7400A94FF5C9AD4F112400
:1042D0001FBECFEFD1E2DEBFCDBF00E00CBF15E0C7
:1042E000A0E0B2E0E8E6F4EC01E00BBF02C007900A
:1042F0000D92A637B107D9F72AE1A6E7B5E001C0CC
:104300001D92AC37B207E1F712E4CCECD2E400E046
:1043100006C022970109FE010BBF0E9403DCC83CC6
:10432000D10780E00807A9F70E9463D40C9423E228
:104330000C940000DC01FB018181807382958F70F9
:104340009081990F990F890F8C9382818C73869538
:104350008695918120E1929F800D112411968C9376
:1043600011979281838120E4929F800D11241296EF
:104370008C9308959FEB980F9A31B0F09FE9980FB6
:104380009A3110F48754089590ED980F9A3010F4F4
:104390008C5F08958B3221F08F3221F48FE30895E2
:1043A0008EE308958FEF0895892F08954F925F92BD
:1043B0006F927F928F929F92AF92BF92CF92DF9235
:1043C000EF92FF920F931F93CF93DF93CDB7DEB79A
:1043D00027970FB6F894DEBF0FBECDBF6C015A0110
:1043E0007B01A60EB71E00E010E080E090E03E01E9
:1043F00025E0620E711C4E01E8E08E0E911CEA145D
:10440000FB0429F0F70141917F014D3329F4780134
:104410005C01009771F561C09C012F5F3F4FE1E0A7
:10442000F0E0EC0FFD1FE80FF91F40832430310549
:10443000F1F4CE0101962C01F20180819BDFF201A3
:1044400081932F01E615F705B9F7BE016F5F7F4F26
:10445000C30170DFF301D601A00FB11F81918D93CD
:10446000E815F905D9F70D5F1F4F20E030E0C901CD
:10447000C6CF843091054CF4E1E0F0E0EC0FFD1F75
:10448000E80FF91F10820196F4CFCE0101964C017E
:104490003E0195E0690E711CF40180816BDFF4012F
:1044A00081934F01E615F705B9F7BE016F5F7F4FA6
:1044B000CF0140DFD401F601E00FF11F80E090E072
:1044C00021E0A21AB1088C010E0D1F1D8A159B0553
:1044D00024F42D9121930196F6CFF601E00FF11F00
:1044E0001082C80127960FB6F894DEBF0FBECDBF6D
:1044F000DF91CF911F910F91FF90EF90DF90CF90C0
:10450000BF90AF909F908F907F906F905F904F90F3
:104510000895EF92FF920F931F93CF93DF931F9213
:10452000CDB7DEB78C017B01460FF70161917F01AA
:10453000F8018081918149830E946CE1F8018081BA
:10454000918101969183808349814E11EECF0F9026
:10455000DF91CF911F910F91FF90EF900895EF920F
:10456000FF920F931F93CF93DF931F92CDB7DEB7C8
:104570008C017B01460FF8018081918149830E9463
:1045800064E1F70181937F01F801808191810196B7
:104590009183808349814E11EECF0F90DF91CF91AF
:1045A0001F910F91FF90EF9008950F931F93CF935A
:1045B000DF93CDB7DEB72A970FB6F894DEBF0FBEF4
:1045C000CDBF80E390E3A0E3B0E08D839E83AF8313
:1045D000B88704E610E01A87098744E0BE016B5FE4
:1045E0007F4FCE01099695DF40E160E077E1CE0193
:1045F00009968FDF40E160E177E1CE01099689DF1E
:1046000040E160EF76E1CE01099683DF44E068EE99
:1046100076E1CE0109967DDF44E064EE76E1CE01DD
:10462000099677DF44E06CEE76E1CE01099671DF02
:1046300044E064ED76E1CE0109966BDF44E060E290
:1046400077E1CE01099665DF44E060EE76E1CE01C8
:1046500009965FDF44E06CED76E1CE01099659DF03
:1046600044E068ED76E1CE01099653DF4CE06AEE56
:1046700077E0CE0109964DDF42E065E37CE0CE01B4
:10468000099647DF42E06FE37AE1CE01099641DF08
:1046900042E06DE37AE1CE0109963BDF42E06BE355
:1046A0007AE1CE01099635DF42E069E37AE1CE0195
:1046B00009962FDF42E067E37AE1CE01099629DF10
:1046C00042E065E37AE1CE01099623DF44E06DE440
:1046D00072E0CE0109961DDF44E069E472E0CE018C
:1046E000099617DF44E065E472E0CE01099611DF18
:1046F00042E062E378E1CE0109960BDF86E591E3C3
:10470000A0E3B0E089839A83AB83BC831A870987CF
:1047100044E0BE016F5F7F4FCE010996FADEE6EC02
:10472000F3E08491882341F09091C00095FFFCCF85
:104730008093C6003196F5CFE6EBF3E084918823B1
:1047400041F09091C00095FFFCCF8093C600319658
:10475000F5CF8091C00085FFFCCF8AE08093C60032
:104760002A960FB6F894DEBF0FBECDBFDF91CF9172
:104770001F910F910895CF93DF93C6ECD3E0FE0114
:104780008491882341F09091C00095FFFCCF8093E5
:10479000C6003196F5CFE6EAF3E08491882341F034
:1047A0009091C00095FFFCCF8093C6003196F5CF65
:1047B0008091C00085FFFCCF8AE08093C600FE0197
:1047C0008491E6ECF3E0882349F09091C00095FFD6
:1047D000FCCF8093C60031968491F5CF40910017AD
:1047E0005091011760910217709103178EE993E0C1
:1047F0000E94CD2C40910417509105176091061727
:10480000709107178BE993E00E94CD2C4091081717
:104810005091091760910A1770910B1788E993E07E
:104820000E94CD2C40910C1750910D1760910E17DE
:1048300070910F1785E993E00E94CD2C8091C00004
:1048400085FFFCCF8AE08093C600FE018491E6ECF0
:10485000F3E0882349F09091C00095FFFCCF80934E
:10486000C60031968491F5CFEBE7F3E0849188237D
:1048700041F09091C00095FFFCCF8093C600319627
:10488000F5CF8091C00085FFFCCF8AE08093C60001
:10489000FE018491E6ECF3E0882349F09091C0009A
:1048A00095FFFCCF8093C60031968491F5CF40915F
:1048B000101750911117609112177091131782E71A
:1048C00093E00E94CD2C40911417509115176091E0
:1048D0001617709117178FE693E00E94CD2C409128
:1048E00018175091191760911A1770911B178CE6C1
:1048F00093E00E94CD2C40911C1750911D176091A0
:104900001E1770911F1789E693E00E94CD2C8091AD
:10491000C00085FFFCCF8AE08093C600FE01849131
:10492000E6ECF3E0882349F09091C00095FFFCCFBE
:104930008093C60031968491F5CFEBE4F3E0849147
:10494000882341F09091C00095FFFCCF8093C60072
:104950003196F5CF8091C00085FFFCCF8AE080932F
:10496000C600FE018491E6ECF3E0882349F09091C3
:10497000C00095FFFCCF8093C60031968491F5CF9F
:104980004091F0165091F1166091F2167091F31665
:1049900082E493E00E94EF2C4091F4165091F516BA
:1049A0006091F6167091F7168FE393E00E94EF2C5A
:1049B0004091F8165091F9166091FA167091FB1615
:1049C0008CE393E00E94EF2C4091FC165091FD1671
:1049D0006091FE167091FF1689E393E00E94EF2C20
:1049E0008091C00085FFFCCF8AE08093C600FE0165
:1049F0008491E6ECF3E0882349F09091C00095FFA4
:104A0000FCCF8093C60031968491F5CFE4E0F3E0CB
:104A10008491882341F09091C00095FFFCCF809352
:104A2000C6003196F5CF8091C00085FFFCCF8AE0AB
:104A30008093C600FE018491E6ECF3E0882349F000
:104A40009091C00095FFFCCF8093C6003196849171
:104A5000F5CF4091E8165091E9166091EA167091F1
:104A6000EB168BEF92E099D74091E4165091E51642
:104A70006091E6167091E71688EF92E08ED78091EC
:104A8000C00085FFFCCF8AE08093C600FE018491C0
:104A9000E6ECF3E0882349F09091C00095FFFCCF4D
:104AA0008093C60031968491F5CFE5E4F2E08491DD
:104AB000882341F09091C00095FFFCCF8093C60001
:104AC0003196F5CF8091C00085FFFCCF8AE08093BE
:104AD000C600FE018491E6ECF3E0882349F0909152
:104AE000C00095FFFCCF8093C60031968491F5CF2E
:104AF0004091EC165091ED166091EE167091EF1604
:104B00008CE392E04AD74091D4165091D51660912B
:104B1000D6167091D71689E392E03FD740912017BF
:104B200050912117609122177091231786E392E02C
:104B300056D74091E0165091E1166091E2167091BF
:104B4000E31683E392E029D74091DC165091DD16FD
:104B50006091DE167091DF1680E392E01ED74091DF
:104B6000D8165091D9166091DA167091DB168DE245
:104B700092E013D78091C00085FFFCCF8AE080933C
:104B8000C600FE018491E6ECF3E0882349F09091A1
:104B9000C00095FFFCCF8093C60031968491F5CF7D
:104BA000EBE1F2E08491882341F09091C00095FF01
:104BB000FCCF8093C6003196F5CF8091C00085FF71
:104BC000FCCF8AE08093C600FE018491E6ECF3E01E
:104BD000882349F09091C00095FFFCCF8093C600D8
:104BE00031968491F5CF4091EA075091EB0760919F
:104BF000EC077091ED0782E192E0CFD64091EE078D
:104C00005091EF076091F0077091F1078FE092E00B
:104C1000C4D64091F2075091F3076091F407709168
:104C2000F5078CE092E0B9D68091C00085FFFCCFFB
:104C30008AE08093C600FE018491E6ECF3E08823CD
:104C400049F09091C00095FFFCCF8093C60031964B
:104C50008491F5CFE6EFF1E08491882341F09091C3
:104C6000C00095FFFCCF8093C6003196F5CF8091B0
:104C7000C00085FFFCCF8AE08093C600FE018491CE
:104C8000E6ECF3E0882349F09091C00095FFFCCF5B
:104C90008093C60031968491F5CF8091350C909128
:104CA000360C6CE370E00E9479DBAB0160E070E0F1
:104CB0008DEE91E094D68091C00085FFFCCF8AE014
:104CC0008093C6008091350C9091360C6CE370E0B7
:104CD0000E9479DBAC0160E070E082EE91E07FD66B
:104CE0008091C00085FFFCCF8AE08093C600FE0162
:104CF0008491E6ECF3E0882349F09091C00095FFA1
:104D0000FCCF8093C60031968491F5CFE4EDF1E0BD
:104D10008491882341F09091C00095FFFCCF80934F
:104D2000C6003196F5CF8091C00085FFFCCF8AE0A8
:104D30008093C600FE01C491E6ECF3E0CC2349F079
:104D40008091C00085FFFCCFC093C6003196C4910E
:104D5000F5CF40914D0250914E0260914F027091FB
:104D600050028AEC91E019D66091490270914A0292
:104D700080914B0290914C020E947290AB01BC0159
:104D800087EC91E00AD660914502709146028091CD
:104D90004702909148020E947E90AB01BC0184ECD6
:104DA00091E0FBD58091C00085FFFCCF8AE0809325
:104DB000C600DF91CF910895AF92BF92CF92DF925C
:104DC000EF92FF920F931F93CF93DF93CDB7DEB790
:104DD000AC970FB6F894DEBF0FBECDBF8CE0E8E70E
:104DE000F2E0DE01919601900D928A95E1F780E163
:104DF000E4E8F2E0DE01519601900D928A95E1F728
:104E000080E1E4E9F2E0DE01119601900D928A95CD
:104E1000E1F76E0181E2C80ED11C80E0E82E87E147
:104E2000F82E8E010F5E1F4F60E177E1AE014F5FFC
:104E30005F4F90EFA92E96E1B92E20E030E0F60109
:104E400081919191A191B1916F01F701819391931A
:104E5000A193B1937F01F80181919191A191B191B9
:104E60008F01FB0181939193A193B193BF01FA014B
:104E700081919191A191B191AF01F50181939193AC
:104E8000A193B1935F012F5F3F4F24303105B9F6F5
:104E90000E94227E80E090E0AAEFB4E48093E816BE
:104EA0009093E916A093EA16B093EB168093E4165C
:104EB0009093E516A093E616B093E7161092EC16C1
:104EC0001092ED161092EE161092EF1680E29EE40C
:104ED000A0E0B0E08093201790932117A0932217B1
:104EE000B09323171092D4161092D5161092D6169E
:104EF0001092D71680E090E0A0EAB1E48093E0162B
:104F00009093E116A093E216B093E3168DEC9CEC1F
:104F1000ACECBEE38093DC169093DD16A093DE1616
:104F2000B093DF1680E090E0A0EAB0E48093D8165A
:104F30009093D916A093DA16B093DB161092F2076D
:104F40001092F3071092F4071092F5071092EE07F3
:104F50001092EF071092F0071092F1071092EA07F3
:104F60001092EB071092EC071092ED0784EB90E0A3
:104F70009093401A80933F1A86E490E090933E1AF3
:104F800080933D1A8FEF90E090933C1A80933B1AE8
:104F900020EF30E030933A1A2093391A24E630E0BB
:104FA0003093381A2093371A9093361A8093351A13
:104FB00080E290E090933318809332188AE999E95F
:104FC000A1EBB1E480934D0290934E02A0934F0267
:104FD000B093500261E77DE38AE89FE30E946C9002
:104FE0006093490270934A0280934B0290934C0263
:104FF00060E070E084EE92E40E9478906093450255
:105000007093460280934702909348020E946B88F7
:1050100080E090E0A0E8BFE38093410290934202D9
:10502000A0934302B0934402E6ECF3E0849188231A
:1050300041F09091C00095FFFCCF8093C60031965F
:10504000F5CFE8E8F1E08491882341F09091C00029
:1050500095FFFCCF8093C6003196F5CF8091C000BC
:1050600085FFFCCF8AE08093C600AC960FB6F8941B
:10507000DEBF0FBECDBFDF91CF911F910F91FF908B
:10508000EF90DF90CF90BF90AF900895CF93DF93D4
:10509000CDB7DEB72A970FB6F894DEBF0FBECDBFEF
:1050A00084E690E09A87898786E591E3A0E3B0E003
:1050B00089839A83AB83BC8344E0BE016B5F7F4FDF
:1050C000CE0109964CDA43E050E0BE016B5F7F4FA2
:1050D000CE0101960E942BDF892B09F0B0C040E180
:1050E00060E077E1CE0109963ADA40E160E177E1EC
:1050F000CE01099634DA40E160EF76E1CE010996FF
:105100002EDA0E94227E44E068EE76E1CE01099616
:1051100026DA44E064EE76E1CE01099620DA44E036
:105120006CEE76E1CE0109961ADA44E064ED76E1A0
:10513000CE01099614DA44E060E277E1CE010996E7
:105140000EDA44E060EE76E1CE01099608DA44E03A
:105150006CED76E1CE01099602DA44E068ED76E185
:10516000CE010996FCD94CE06AEE77E0CE010996B3
:10517000F6D942E065E37CE0CE010996F0D942E041
:105180006FE37AE1CE010996EAD942E06DE37AE174
:10519000CE010996E4D942E06BE37AE1CE010996AB
:1051A000DED942E069E37AE1CE010996D8D942E03E
:1051B00067E37AE1CE010996D2D942E065E37AE16C
:1051C000CE010996CCD944E06DE472E0CE01099697
:1051D000C6D944E069E472E0CE010996C0D944E042
:1051E00065E472E0CE010996BAD942E062E378E163
:1051F000CE010996B4D90E946B88E6ECF3E0849165
:10520000882341F09091C00095FFFCCF8093C600A9
:105210003196F5CFEAEAF1E08491882341F090914C
:10522000C00095FFFCCF8093C6003196F5CF8091EA
:10523000C00085FFFCCF8AE08093C60001C0BCDDC2
:105240009ADA2A960FB6F894DEBF0FBECDBFDF9173
:10525000CF9108951F920F920FB60F9211240BB6A3
:105260000F922F933F934F935F936F938F939F93DF
:10527000EF93FF936091C6002091F7053091F805F8
:10528000C90101968F7799274091F9055091FA0548
:105290008417950741F0F901E958FA4F608390931C
:1052A000F8058093F705FF91EF919F918F916F9192
:1052B0005F914F913F912F910F900BBE0F900FBEBA
:1052C0000F901F9018959A01AB01211581EE3807B8
:1052D0004105510549F182E08093C00060E079E02A
:1052E0008DE390E00E94C2DB215031094109510950
:1052F000CA01B90122E030E040E050E00E94C2DB88
:105300003093C5002093C4008091C10080618093D8
:10531000C1008091C10088608093C1008091C1006C
:1053200080688093C10008951092C00020E130E0B1
:10533000E7CF2091F9053091FA058091F70590911A
:10534000F8058217930771F0F901E958FA4F808147
:105350002F5F3F4F2F7733273093FA052093F905BE
:1053600090E008958FEF9FEF08958091F905909157
:10537000FA059093F8058093F70508954F925F9290
:105380006F927F928F929F92AF92BF92CF92DF9255
:10539000EF92FF920F931F93CF93DF93CDB7DEB7BA
:1053A000A0970FB6F894DEBF0FBECDBF5C014115CC
:1053B000510561057105E9F420E030E040E350E07B
:1053C00060E070E0A0960FB6F894DEBF0FBECDBFD0
:1053D000DF91CF911F910F91FF90EF90DF90CF90D1
:1053E000BF90AF909F908F907F906F905F904F9005
:1053F0005BC08E010F5F1F4FC12CD12C760148017D
:10540000422E512C612C712C8FEFC81AD80AE80A51
:10541000F80ACB01BA01A30192010E94A0DBCA01E4
:10542000F80161938F01A901BC0141155105610586
:10543000710551F7F1E0CF1AD108E108F108F40144
:10544000EC0DFD1D80818A3010F440E301C047E37C
:10545000480F552747FD5095652F752F20E030E008
:10546000C50122D081E0C81AD108E108F108EFEFA8
:10547000CE16DE06EE06FE0611F7A0960FB6F894DD
:10548000DEBF0FBECDBFDF91CF911F910F91FF9077
:10549000EF90DF90CF90BF90AF909F908F907F90D4
:1054A0006F905F904F9008952115310539F48091E8
:1054B000C00085FFFCCF4093C60008952A30310517
:1054C00009F41CC05BCFCF93DF93EC0120E030E008
:1054D0004DE050E060E070E0E7DF20E030E04AE0DF
:1054E00050E060E070E0CE01DF91CF91DDCF9A0116
:1054F000AB01662757FD6095762FD6CFCF92DF920E
:10550000EF92FF92CF93DF93EC016A017B0177FF6B
:105510000FC020E030E04DE250E060E070E0C4DF1A
:10552000F094E094D094C094C11CD11CE11CF11CF7
:105530002AE0B701A601CE01DF91CF91FF90EF9055
:10554000DF90CF901BCF2115310539F48091C00039
:1055500085FFFCCF4093C600089510CF9A01462FD7
:1055600050E060E070E0EFCFCF93DF93EC019A0161
:10557000AB0160E070E0E7DFCE01DF91CF91A3CF18
:105580008F929F92AF92BF92CF92DF92EF92FF9253
:105590001F93CF93DF93EC016A017B01122F20E070
:1055A00030E0A901C701B6010E94CFD787FF0CC028
:1055B00020E030E04DE250E060E070E0CE0174DFCA
:1055C000F7FAF094F7F8F094B12C60E070E080E026
:1055D0009FE3B11641F020E030E040E251E40E9448
:1055E000D6D7B394F6CF9B01AC01C701B6010E9498
:1055F000F6D66B017C010E9443D84B015C010E94EE
:105600006FD89B01AC01C701B6010E94F5D66B01B2
:105610007C012AE0B501A401CE01B0DE112361F0C6
:10562000EBE0F5E08191882339F09091C00095FF7F
:10563000FCCF8093C600F6CF112319F120E030E0B3
:1056400040E251E4C701B6010E94A4DA6B017C017B
:105650000E943ED84B01AA2497FCA094BA2CB50115
:10566000A401CE014BDFC501B4010E9471D89B019A
:10567000AC01C701B6010E94F5D66B017C01115047
:10568000DBCFDF91CF911F91FF90EF90DF90CF9014
:10569000BF90AF909F908F90089572CFFC0165915D
:1056A0007591859194910895EF92FF920F931F93B6
:1056B000CF93DF93EC01CC0FDD1FCC0FDD1FCE01AC
:1056C0008350974FEBDF9E012650384F79018E01B2
:1056D0000651184FF80120813181428153810E9487
:1056E000F6D6F7016083718382839383CE018B5E4C
:1056F000964FD4DF9E012252384F7901F801208164
:105700003181428153810E94F6D6F7016083718313
:1057100082839383CE01875F964FC0DFC35FDD4FE7
:10572000F80120813181428153810E94F6D668833D
:1057300079838A839B83DF91CF911F910F91FF9093
:10574000EF9008952F923F924F925F926F927F92C7
:105750008F929F92AF92BF92CF92DF92EF92FF9281
:105760000F931F93CF93DF9300D01F92CDB7DEB777
:105770004C01FC01EE51F74FB490DC01AA50B84F38
:1057800081E08C93C401880F991F880F991F9C8317
:105790008B838650984F1C01FC011082118212826B
:1057A000138226E038E042E058E06EEF77E08AEFBF
:1057B00097E00E94597D8B819C818F50974F6EDFBF
:1057C0006B017C016B2D772767FD7095872F972FD5
:1057D0000E9471D82B013C018B819C818553984F8D
:1057E0005C0120E030E040EC5FE3C701B6010E94BD
:1057F000A4DAA30192010E94A4DAF5016083718307
:10580000828393838B819C81835E9D4F9A8389835E
:10581000FC016081718182819381609307027093A2
:1058200008028093090290930A0220E030E040E7EA
:1058300052E40E94D6D73DEDC32E37E0D32E7B0134
:105840008C0127ED37E043ED57E06FEC77E08BEC10
:1058500097E00E9487730E949F87F1011082118256
:105860001282138226E038E042E058E06EEF77E0E3
:105870008AEF97E00E94597D8B819C818B51974FD5
:105880009C838B830BDF9058A30192010E94A4DAC2
:10589000F501608371838283938320E030E040E7E9
:1058A00052E4609107027091080280910902909180
:1058B0000A020E94D6D77B018C0127ED37E043ED29
:1058C00057E06FEC77E08BEC97E00E9487730E94C3
:1058D0009F878B819C81E2DE9B01AC010E94F6D602
:1058E000A30192010E94A4DAF5016083718382838F
:1058F000938320E030E040E05FE3E981FA8160815A
:105900007181828193810E94A4DA6093070270936F
:1059100008028093090290930A0220E030E040E7F9
:1059200052E40E94D6D77B018C0127ED37E043ED8E
:1059300057E06FEC77E08BEC97E00E9487730E9452
:105940009F87C401B1DEF10180819181A281B38181
:10595000F50180839183A283B38310920702109292
:1059600008021092090210920A020F900F900F90F5
:105970000F90DF91CF911F910F91FF90EF90DF90EB
:10598000CF90BF90AF909F908F907F906F905F90DF
:105990004F903F902F900C94057FFC01249122237F
:1059A00041F03091C00035FFFCCF2093C600019636
:1059B000F4CF22E030E086E795E06FCEFC01249141
:1059C000222341F03091C00035FFFCCF2093C60068
:1059D0000196F4CF2AE030E086E795E065CDFC0142
:1059E0002491222341F03091C00035FFFCCF209359
:1059F000C6000196F4CF2AE030E086E795E0A3CD1B
:105A0000CF93DF931F921F92CDB7DEB78091761AA6
:105A10009091771A9E012F5F3F4F009719F42C57F2
:105A20003A4102C0281B390B3A83298389819A8124
:105A30000F900F90DF91CF91089520912006309123
:105A40002106243031050CF06AC0409122065091A5
:105A5000230660E6649F9001659F300D1124BC0110
:105A6000C901865D994F0E9424DFE1E2F9E084914B
:105A7000882341F09091C00095FFFCCF8093C60031
:105A80003196F5CFE7EDF8E08491882341F09091CD
:105A9000C00095FFFCCF8093C6003196F5CF809172
:105AA00022069091230620E6289FF001299FF00D01
:105AB0001124E65DF94F8191882339F09091C0005F
:105AC00095FFFCCF8093C600F6CFE5EDF8E084911A
:105AD000882341F09091C00095FFFCCF8093C600D1
