:100000000C94EE230C941F240C941F240C941F2496
:100010000C941F240C941F240C941F240C941F2454
:100020000C941F240C941F240C941F240C941F2444
:100030000C941F240C949DD70C941F240C941F2403
:100040000C941F240C9405810C941F240C941F24E1
:100050000C941F240C941F240C9449930C940AD8DC
:100060000C941F240C94272C0C941F240C941F24F4
:100070000C941F240C941F240C941F240C941F24F4
:100080000C941F240C941F240C941F240C941F24E4
:100090000C941F240C941F240C941F240C941F24D4
:1000A0000C941F240C941F240C941F240C941F24C4
:1000B0000C941F240C941F240C941F240C941F24B4
:1000C0000C941F240C941F240C941F240C941F24A4
:1000D0000C941F240C941F240C941F240C941F2494
:1000E0000C941F249293A193BD93CC93E693F59324
:1000F0000F94139415941994339443942DD932D9B1
:1001000037D941D94BD9C4D955D95DD965D96FD91A
:1001100079D983D992D99CD9C4D9A6D9B0D9BAD919
:10012000E5D9E8D9D7D9DBD9E1D91FDAECD9F0D9AB
:10013000F6D9FAD9FED904DA08DA0CDA1FDA12DABB
:1001400016DA1ADA084AD73B3BCE016E84BCBFFDF3
:10015000C12F3D6C74319ABD56833DDA3D00C77F97
:1001600011BED9E4BB4C3E916BAAAABE0000008030
:100170003F05A84CCDB2D44EB93836A9020C50B9BF
:10018000918688083CA6AAAA2ABE000000803F00EB
:1001900048617264636F6465642044656661756C70
:1001A000742053657474696E6773204C6F61646565
:1001B000640053746F7265642073657474696E674C
:1001C000732072657472696576656400204400204E
:1001D00049002020204D3330312050005049442028
:1001E00073657474696E67733A002C204A74656392
:1001F000682056616C75653D002C2050574D2D468A
:100200007265713D002C20506F7765723D00204D66
:10021000696E757465733D200020486F7572733D7B
:10022000004C61736572206C69666574696D652048
:1002300075736167653A00205A0020590020204DEF
:10024000323036205800486F6D65206F66667365E2
:100250007420286D6D293A00204500205A0020584E
:100260000020420020540020204D32303520530021
:10027000416476616E636564207661726961626C67
:1002800065733A20533D4D696E2066656564726101
:10029000746520286D6D2F73292C20543D4D696E97
:1002A0002074726176656C20666565647261746540
:1002B00020286D6D2F73292C20423D6D696E696D6C
:1002C000756D207365676D656E742074696D65204A
:1002D000286D73292C20583D6D6178696D756D20EE
:1002E0005859206A65726B20286D6D2F73292C2058
:1002F000205A3D6D6178696D756D205A206A65726E
:100300006B20286D6D2F73292C2020453D6D617861
:10031000696D756D2045206A65726B20286D6D2FA3
:1003200073290020540020204D32303420530041E6
:100330006363656C65726174696F6E3A20533D61E9
:100340006363656C65726174696F6E2C20543D72D5
:1003500065747261637420616363656C6572617456
:10036000696F6E00204500205A0020590020204D62
:100370003230312058004D6178696D756D204163D0
:1003800063656C65726174696F6E20286D6D2F7383
:1003900032293A00204500205A0020590020204DE3
:1003A0003230332058004D6178696D756D20666577
:1003B0006564726174657320286D6D2F73293A002E
:1003C000204500205A0020590020204D3932205865
:1003D0000053746570732070657220756E69743A8D
:1003E0000053657474696E67732053746F7265642B
:1003F000006563686F3A0053544F505045442E20B7
:10040000005072696E7465722073746F70706564E9
:100410002064756520746F206572726F72732E2070
:1004200046697820746865206572726F7220616E0B
:100430006420757365204D39393920746F207265D9
:1004400073746172742E202854656D7065726174C6
:100450007572652069732072657365742E2053650B
:1004600074206974206166746572207265737461AA
:100470007274696E6729004B494C4C45442E20002C
:100480005072696E7465722068616C7465642E20A8
:100490006B696C6C28292063616C6C656421006F4A
:1004A0006B00526573656E643A20002200556E6BD6
:1004B0006E6F776E20636F6D6D616E643A202200FF
:1004C0006C636420636F6E74726173742076616C08
:1004D00075653A20007A5F6D696E3A2000795F6D2C
:1004E000696E3A2000785F6D696E3A20005A3A00D2
:1004F000593A0020436F756E7420583A2000453AEF
:10050000005A3A00593A00583A004649524D57416C
:1005100052455F4E414D453A4D61726C696E2056B1
:10052000313B20537072696E7465722F6772626C12
:10053000206D617368757020666F722067656E3616
:10054000204649524D574152455F55524C3A6874C6
:1005500074703A2F2F7777772E6D656E64656C2DEA
:1005600070617274732E636F6D2050524F544F43FD
:100570004F4C5F56455253494F4E3A312E30204D25
:10058000414348494E455F545950453A4C61736563
:100590007220437574746572204558545255444511
:1005A000525F434F554E543A310A004C61736572A5
:1005B00020437574746572204F66662E004C61731B
:1005C0006572204375747465722052656164792E7A
:1005D0000042656420646F6E652E0020423A002060
:1005E000453A00543A004265642048656174696E7A
:1005F000672E0048656174696E6720646F6E652EB2
:100600000020573A0020453A00543A00486561748A
:10061000696E672E2E2E002042403A0020403A009C
:10062000202F003A00205400202F0020423A0020C2
:100630002F006F6B20543A002569206D696E2C20C5
:1006400025692073656300456E642066696C6520CA
:100650006C69737400426567696E2066696C652019
:100660006C697374004E6F206D6F76652E00526555
:1006700073756D696E67207072696E740057616979
:100680007420666F7220757365722E2E2E00536C67
:100690006565702E2E2E00256920686F7572732097
:1006A0002569206D696E7574657300446F6E6520F1
:1006B0007072696E74696E672066696C6500535468
:1006C0004F505045442E20005072696E7465722060
:1006D00073746F707065642064756520746F206535
:1006E00072726F72732E2046697820746865206577
:1006F00072726F7220616E6420757365204D393996
:100700003920746F20726573746172742E202854BE
:10071000656D7065726174757265206973207265AC
:100720007365742E20536574206974206166746546
:10073000722072657374617274696E6729006F6BE1
:10074000004E6F204C696E65204E756D626572209B
:100750007769746820636865636B73756D2C204CD2
:10076000617374204C696E653A20004E6F204368B7
:1007700065636B73756D2077697468206C696E654D
:10078000206E756D6265722C204C617374204C690B
:100790006E653A2000636865636B73756D206D69E3
:1007A000736D617463682C204C617374204C696EA6
:1007B000653A20004C696E65204E756D6265722049
:1007C0006973206E6F74204C617374204C696E6580
:1007D000204E756D6265722B312C204C6173742034
:1007E0004C696E653A20004D313130004737004783
:1007F0003700473700473700446F6E6520736176D6
:10080000696E672066696C652E006F6B004D32392A
:1008100000002020506C616E6E65724275666665E0
:100820007242797465733A20002046726565204DE6
:10083000656D6F72793A200028467265616B794167
:10084000747469632E636F6D2C20466F72204C6147
:10085000736572732900207C20417574686F723A49
:1008600020004D617220203620323031362031395F
:100870003A34393A323200204C6173742055706436
:10088000617465643A200056657220312E302E3036
:100890002D3030320020004D61726C696E2D4C613C
:1008A00073657200204669726D776172653A200047
:1008B00020536F66747761726520526573657400AA
:1008C000205761746368646F6720526573657400B4
:1008D0002042726F776E206F757420526573657455
:1008E000002045787465726E616C20526573657482
:1008F00000506F776572557000204445425547207F
:100900004D4F4445204F4E202D2D2D2D2D2D2D2D7D
:100910002D2D2D2D2D2D2D2D2D2D007374617274E7
:10092000000000002200656E717565696E67202207
:10093000002200656E717565696E67202200FFFFF9
:10094000FF0000A0400000A0400000803F0000C861
:10095000440000C8440000C843000048C4000048E8
:10096000C4000048C3000048440000484400004858
:1009700043000048C4000048C4000048C3656368E1
:100980006F3A004572726F723A007C3C3E5E2B3DBE
:100990003F2F5B5D3B2C2A225C004D3834205820D1
:1009A00059205A20450043616E6E6F7420656E7445
:1009B0006572207375626469723A20004D323400AA
:1009C0004D3233202573006175746F25692E6700E1
:1009D0006572726F722077726974696E6720746FC6
:1009E0002066696C65004E6F7420534420707269F4
:1009F0006E74696E67002F005344207072696E74C4
:100A0000696E67206279746520002E0044656C650C
:100A100074696F6E206661696C65642C2046696C30
:100A2000653A200046696C652064656C6574656490
:100A30003A002E006F70656E206661696C65642CEB
:100A40002046696C653A200057726974696E6720A8
:100A5000746F2066696C653A20002E006F70656EB9
:100A6000206661696C65642C2046696C653A2000DB
:100A70002E006F70656E206661696C65642C20467F
:100A8000696C653A200046696C652073656C656326
:100A9000746564002053697A653A200046696C6584
:100AA000206F70656E65643A20002E006F70656E71
:100AB000206661696C65642C2046696C653A20008B
:100AC00053442063617264206F6B006F70656E52D7
:100AD0006F6F74206661696C656400766F6C756D0C
:100AE000652E696E6974206661696C6564005344A3
:100AF00020696E6974206661696C006563686F3A8D
:100B0000004572726F723A004C61736572206669BB
:100B100072696E6720656E61626C6564006563680A
:100B20006F3A00506978656C3A20004C3A200059C1
:100B30003A2000583A2000656E6473746F70732019
:100B40006869743A205A00205A3A00656E647374DA
:100B50006F7073206869743A20590020593A006513
:100B60006E6473746F7073206869743A2058002043
:100B7000583A00656E6473746F7073206869743AD4
:100B8000200024F4D43050C38E20C2A24017828BA0
:100B90007011127A910D816CD90AA861E108C758C9
:100BA0006607615143061E4B5D05C145A7041A4106
:100BB0001104093D9803713931034036DB02653376
:100BC0009102D4305402802E1D02632CEE01752A4E
:100BD000C501B028A001102781018F2564012B24B5
:100BE0004B01E0223401AC211F018D200D01801F3B
:100BF000FC00841EED00971DDF00B81CD200E61B30
:100C0000C600201BBC00641AB200B219A8000A1961
:100C1000A0006A189900D117910040178B00B516F3
:100C2000840031167E00B31579003A157300C7149D
:100C30006F0058146A00EE136600881363002513D2
:100C40005E00C7125B006C12570015125400C111F0
:100C5000510070114F0021114B00D61049008D102A
:100C600047004610440002104200C00F4000800FB1
:100C70003E00420F3C00060F3B00CB0E3800930EA7
:100C800037005C0E3500270E3400F30D3200C10D25
:100C90003100900D3000600D2E00320D2D00050D3D
:100CA0002C00D90C2B00AE0C2900850C29005C0C03
:100CB0002700350C27000E0C2600E80B2400C40B7F
:100CC0002400A00B23007D0B23005A0B2100390BBD
:100CD0002100180B2000F80A1F00D90A1E00BB0AC9
:100CE0001E009D0A1D00800A1D00630A1C00470AA1
:100CF0001B002C0A1B00110A1A00F7091A00DD0953
:100D00001900C4091900AB091900920917007B09E1
:100D10001800630917004C0916003609160020094F
:100D200016000A091500F5081500E0081400CC08A3
:100D30001400B8081400A4081400900813007D08DB
:100D400012006B08130058081200460812003408FD
:100D50001100230811001208110001081100F0070A
:100D60001000E0071000D0071000C0071000B00707
:100D70000F00A107100091070E0083070F007407F2
:100D80000F0065070E0057070E0049070E003B07CE
:100D90000D002E070E0020070D0013070D0006079B
:100DA0000D00F9060C00ED060D00E0060C00D4065F
:100DB0000C00C8060C00BC060C00B0060C00A40613
:100DC0000B0099060C008D060B0082060B007706BF
:100DD0000B006C060B0061060A0057060B004C0660
:100DE0000A0042060A0038060A002E060A002406F7
:100DF0000A001A060A001006090007060A00FD0587
:100E00000900F4050900EB050900E2050900D90510
:100E10000900D0050900C7050900BE050900B50590
:100E20000800AD050800A50509009C05080094050B
:100E300008008C050800840508007C05080074057E
:100E400008006C050700650508005D0507005605EC
:100E500008004E0507004705070040050800380553
:100E60000700310507002A050700230507001C05B8
:100E70000600160507000F05070008050600020515
:100E80000700FB040600F5040700EE040600E80472
:100E90000600E2040700DB040600D5040600CF04C8
:100EA0000600C9040600C3040600BD040600B7041A
:100EB0000600B1040500AC040600A6040600A00468
:100EC00005009B04060095040500900406008A04B2
:100ED000050085040500800406007A0405007504F9
:100EE0000500700405006B0405006604050061043C
:100EF00005005C04050057040500520405004D047C
:100F0000050048040500430405003E0404003A04BB
:100F1000050035040500300404002C0405002704F6
:100F20000400230405001E0404001A04040016042F
:100F30000500110404000D04040009040500040464
:100F4000040000040400FC030400F8030400F4039C
:100F50000400F0030400EC030400E8030400E403CD
:100F60000400E0030400DC030400D8030400D403FD
:100F70000400D0030400CC030400C8030300C5032D
:100F8000030024F404D9201BC40C5C0E9804C4098B
:100F90005F0265077101F405F900FB04B300480422
:100FA0008700C10369005803550003034500BE02D2
:100FB0003A008402310053022A002902250004026B
:100FC0002000E4011C00C8011900AF0117009801BE
:100FD000140084011300710110006101100051011F
:100FE0000E0043010D0036010B002B010B00200108
:100FF0000B00150109000C01090003010800FB00AA
:101000000800F3000800EB000700E4000600DE0023
:101010000600D8000600D2000600CC000500C7007C
:101020000500C2000500BD000400B9000400B500C1
:101030000400B1000400AD000400A9000400A500F4
:101040000300A20003009F0004009B00030098001F
:1010500003009500020093000300900003008D0040
:1010600002008B000300880002008600020084005A
:101070000300810002007F0002007D0002007B006F
:10108000020079000200770001007600020074007F
:10109000020072000100710002006F0002006D008A
:1010A00001006C0002006A00010069000200670094
:1010B000010066000100650001006400020062009A
:1010C000010061000100600001005F0002005D009E
:1010D00001005C0001005B0001005A0001005900A2
:1010E00001005800010057000100560001005500A2
:1010F00001005400010053000000530001005200A1
:10110000010051000100500001004F0001004E009D
:1011100000004E0001004D0001004C0001004B009A
:1011200000004B0001004A00010049000100480096
:101130000000480001004700010046000000460092
:10114000010045000000450001004400010043008B
:101150000000430001004200000042000100410085
:10116000000041000100400001003F0000003F007E
:1011700001003E0000003E0001003D0000003D0077
:1011800001003C0000003C0000003C0001003B006E
:1011900000003B0001003A0000003A000100390065
:1011A000000039000100380000003800000038005D
:1011B0000100370000003700010036000000360053
:1011C0000000360001003500000035000000350049
:1011D000010034000000340000003400010033003E
:1011E0000000330000003300010032000000320034
:1011F0000000320001003100000031000000310029
:1012000001003000000030000000300001002F001D
:1012100000002F0000002F0000002F0001002E0012
:1012200000002E0000002E0001002D0000002D0007
:1012300000002D0000002D0001002C0000002C00FB
:1012400000002C0000002C0001002B0000002B00EF
:1012500000002B0000002B0001002A0000002A00E3
:1012600000002A0000002A000100290000002900D7
:1012700000002900000029000000290001002800CA
:1012800000002800000028000000280000002800BE
:1012900001002700000027000000270000002700B1
:1012A00000002700010026000000260000002600A4
:1012B0000000260000002600010025000000250097
:1012C000000025000000250000002500000025008A
:1012D000010024000000240000002400000024007D
:1012E0000000240001002300000023000000230070
:1012F0000000230000002300000023000000230062
:101300000100220000002200000022000000220054
:101310000000220000002200010021000000210046
:101320000000210000002100000021000000210039
:10133000000021000100200000002000000020002B
:10134000000020000000200000002000000020001D
:101350000000200001001F0000001F0000001F000F
:1013600000001F0000001F0000001F0000001F0001
:1013700001001E0000001E0000001E0000001E00F4
:1013800000006563686F3A004572723A204D494E1D
:1013900054454D50003A204578747275646572204A
:1013A0007377697463686564206F66662E204D49A3
:1013B0004E54454D502074726967676572656420AC
:1013C00021004572723A204D415854454D50003A23
:1013D00020457874727564657220737769746368E8
:1013E0006564206F66662E204D415854454D50204F
:1013F000747269676765726564202100202D204939
:101400006E76616C696420657874727564657220AB
:101410006E756D62657220210050494420417574DB
:101420006F74756E652066696E69736865642120E6
:1014300050757420746865204B702C204B692061B6
:101440006E64204B6420636F6E7374616E747320DE
:10145000696E746F20436F6E666967757261746937
:101460006F6E2E6800504944204175746F74756E1C
:1014700065206661696C6564212074696D656F75AE
:10148000740020403A006F6B20543A006F6B20428A
:101490003A00504944204175746F74756E6520663A
:1014A00061696C6564212054656D70657261747545
:1014B000726520746F6F206869676800204B643A1A
:1014C0002000204B693A2000204B703A2000204336
:1014D0006C617369632050494420002054753A20A0
:1014E00000204B753A2000206D61783A2000206D75
:1014F000696E3A200020643A200020626961733AE4
:1015000020004572726F723A0070012C0190012721
:1015100001B0012201C0011D01F0011801100213E8
:101520000130020E016002090190020401C002FFB5
:10153000000003FA004003F5008003F000D003EB45
:10154000002004E6007004E100E004DC004005D760
:1015500000C005D2004006CD00D006C8008007C3F9
:10156000003008BE00F008B900C009B400B00AAFEE
:1015700000B00BAA00D00CA500000EA000500F9BDD
:1015800000C01096005012910000148C00C0158706
:1015900000B0178200B0197D00D01B7800001E73C8
:1015A0000040206E0090226900F024640040275F14
:1015B0000090295A00E02B5500102E500020304B8F
:1015C0000010324600E033410090353C00103737C0
:1015D0000070383200A0392D00B03A2800A03B231B
:1015E00000603C1E00103D1900903D1400103E0F9D
:1015F00000703E0A00C03E0500003F0000436172DB
:10160000642072656D6F7665640043617264206961
:101610006E7365727465640059002D2D3A2D2D008E
:10162000B00041002D2D2D250025004730205A25E2
:1016300073204631353000473238205A2046313544
:101640003000437573746F6D00437573746F6D0074
:10165000376D6D00366D6D202D20312F34696E0091
:10166000356D6D00346D6D00336D6D202D20312F83
:1016700038696E00326D6D00316D6D004C617365BF
:10168000722046756E6374696F6E73004D3830005A
:101690005761726D2D7570204C61736572203273C5
:1016A00065630031303025203130306D73003130CA
:1016B0003025202035306D73002032302520313028
:1016C000306D730020323025202035306D73004C92
:1016D000617365722046756E6374696F6E73005333
:1016E000746F7265206D656D6F72790043757272EB
:1016F0002E204C696D69742076616C00437572729E
:101700002E204C696D69742076616C005465737489
:1017100020466972650053657420466F63757300D7
:101720004D61696E00537065656400537065656452
:10173000004D61696E00580059005A004578747276
:1017400075646572004578747275646572004D6FDA
:101750007665205A004D6F76652059004D6F76658D
:101760002058004D6F76652041786973004D6F7683
:101770006520302E316D6D004D6F766520316D6DB9
:10178000004D6F76652031306D6D0050726570616F
:101790007265004D6F76652041786973004D383071
:1017A0000053776974636820506F776572204F6EBD
:1017B000004D38310053776974636820506F776546
:1017C00072204F6666004739322058302059302049
:1017D0005A3000536574204F726967696E00473252
:1017E0003820582059204632303030004175746F0F
:1017F00020486F6D65004D313700456E61626C6544
:10180000205374657070657273004D3834004469FC
:101810007361626C65205374657070657273004DFE
:1018200061696E004573746570732F6D6D0045734B
:10183000746570732F6D6D005A73746570732F6DBE
:101840006D005A73746570732F6D6D0059737465F4
:1018500070732F6D6D005973746570732F6D6D000B
:101860005873746570732F6D6D0058737465707361
:101870002F6D6D00412D7265747261637400412D8E
:101880007265747261637400416D61782065004116
:101890006D6178206500416D6178207A00416D614D
:1018A00078207A00416D6178207900416D6178205F
:1018B0007900416D6178207800416D617820780071
:1018C0005654726176206D696E00565472617620AE
:1018D0006D696E00566D696E00566D696E00566DCD
:1018E0006178206500566D6178206500566D6178DD
:1018F000207A00566D6178207A00566D61782079E3
:1019000000566D6178207900566D61782078005618
:101910006D617820780056652D6A65726B0056659A
:101920002D6A65726B00567A2D6A65726B00567A65
:101930002D6A65726B005678792D6A65726B005658
:1019400078792D6A65726B00416363656C00416351
:1019500063656C00436F6E74726F6C00436F6E74DE
:101960007261737400526573746F726520466169A9
:101970006C73616665004C6F6164206D656D6F729C
:10198000790053746F7265206D656D6F7279004CCC
:10199000434420636F6E7472617374004D6F746999
:1019A0006F6E004D61696E004D383420582059200B
:1019B0005A2045004D3234004D323320257300F952
:1019C0002E2E004D61696E004E6F204361726400DF
:1019D0005072696E742066726F6D205344005374A8
:1019E0006F70205072696E7400526573756D65205A
:1019F0005072696E74005061757365205072696E23
:101A00007400436F6E74726F6C0050726570617217
:101A1000650054756E65004C617365722046756E85
:101A20006374696F6E7300496E666F2073637265CD
:101A3000656E00FFF08F108F109F909F9080108038
:101A40001080108010801080108010FFF0FFF08F49
:101A5000108F109F909F90801086108610C630A621
:101A6000509690AF50FFF0001C0000003E000000B8
:101A70007700000063000000C1800001C1C00001C8
:101A800088C0000308600007417000062A30000C7F
:101A90001C18001DBFFC00181C0C00302A0600702A
:101AA00041070060888300C0080180C0000180FFFA
:101AB000FFFF807FFFFF0000060900FE070199037A
:101AC0002B20FFFE08FE07FE0000000600000107B5
:101AD00007060200808080808000800303030601E7
:101AE00004A0A0A00507070600005050F850F850C9
:101AF000500507070600002070A070287020050719
:101B00000706000048A8502050A8900507070600C7
:101B10000040A0A040A89068010303060204808052
:101B200080030707060100204080808040200307D3
:101B300007060100804020202040800505050600A2
:101B4000018850F850880505050600012020F8207E
:101B5000200303030601FF60408005010106000326
:101B6000F80303030601FF40E040050707060000F5
:101B700008081020408080050707060000205088D4
:101B8000888850200507070600002060A02020203C
:101B9000F8050707060000708808304080F8050740
:101BA00007060000F80810300888700507070600CF
:101BB0000010305090F81010050707060000F8805C
:101BC000B0C8088870050707060000304080B0C81C
:101BD0008870050707060000F8081010204040052F
:101BE0000707060000708888708888700507070658
:101BF0000000708898680810600307070601FF401E
:101C0000E0400040E0400307070601FF40E04000DD
:101C1000604080040707060100102040804020102B
:101C2000050303060002F800F80407070601008018
:101C30004020102040800507070600007088102013
:101C4000200020050707060000708898A8B0807063
:101C500005070706000020508888F88888050707D0
:101C6000060000F04848704848F0050707060000E5
:101C700070888080808870050707060000F048485B
:101C8000484848F0050707060000F88080F080808B
:101C9000F8050707060000F88080F08080800507BF
:101CA0000706000070888080988870050707060086
:101CB00000888888F8888888030707060100E040C4
:101CC00040404040E00507070600003810101010A3
:101CD00090600507070600008890A0C0A0908805C6
:101CE0000707060000808080808080F805070706CF
:101CF00000008888D8A8888888050707060000881B
:101D000088C8A89888880507070600007088888812
:101D1000888870050707060000F08888F0808080BA
:101D20000508080600FF7088888888A870080507DD
:101D300007060000F08888F0A090880507070600D5
:101D40000070888070088870050707060000F8207A
:101D50002020202020050707060000888888888822
:101D600088700507070600008888885050502005B5
:101D70000707060000888888A8A8D88805070706EE
:101D800000008888502050888805070706000088D2
:101D9000885020202020050707060000F8081020A2
:101DA0004080F8030707060100E08080808080E023
:101DB0000507070600008080402010080803070779
:101DC000060100E02020202020E005030306000497
:101DD0002050880501010600FFF8020202060206F3
:101DE000804005050506000070087888780507071B
:101DF0000600008080B0C888C8B005050506000050
:101E000070888088700507070600000808689888B1
:101E100098680505050600007088F88070050707BA
:101E2000060000304840F04040400507070600FE2D
:101E3000788888780888700507070600008080B0D9
:101E4000C88888880307070601004000C04040405A
:101E5000E00409090601FE10003010101090906097
:101E600005070706000080808890E0908803070738
:101E7000060100C04040404040E005050506000066
:101E8000D0A8A8A888050505060000B0C8888888DD
:101E9000050505060000708888887005070706009C
:101EA000FEB0C888C8B080800507070600FE6898A5
:101EB0008898680808050505060000B0C88080807D
:101EC00005050506000070807008F005070706008C
:101ED000004040F040404830050505060000888875
:101EE000889868050505060000888850502005057B
:101EF000050600008888A8A850050505060000888A
:101F0000502050880507070600FE888898680888D2
:101F100070050505060000F8102040F804070706C4
:101F20000100304020C02040300107070602008039
:101F3000808080808080040707060100C020403038
:101F40004020C005030306000448A89000000001DB
:101F5000000000000001000000000001000000007F
:101F6000000100000000000100000000000100006E
:101F7000000000010000000000010000000000015E
:101F8000000000000001000000000001000000004F
:101F9000000100000000000100000000000100003E
:101FA000000000010000000000010000000000012E
:101FB000000000000001000000000001000000001F
:101FC000000100000000000100000000000100000E
:101FD00000000001000000000001000000000001FE
:101FE00000000000000100000000000100000000EF
:101FF00000010000000000010000000000010000DE
:1020000000000001000000000001000000000001CD
:102010000000000000060000010707060200800023
:1020200080808080800507070600FF2078A0A0A0A0
:102030007820050707060000304840E04048B0051A
:10204000050506000088705070880508080600FF26
:1020500088885020F8202020010707060200808091
:1020600080008080800508080600FF7080E09048AE
:10207000380870030101060107A0050707060000E4
:102080007088A8C8A888700406060601017090B080
:102090005000F0060505060000244890482404027C
:1020A00002060102F010040101060103F005070712
:1020B0000600007088E8C8C888700501010600079E
:1020C000F803030306010440A040050606060000CD
:1020D0002020F82020F80405050601036090204028
:1020E000F0040505060103E0106010E0020202069C
:1020F000020640800506060600FF888888C8B08072
:1021000005070706000078E8E8682828280101018B
:10211000060203800202020602FE40800305050655
:10212000010340C04040E0040606060101609090B3
:102130006000F00605050600009048244890060956
:10214000090600FF40C04040E40C143C04060909A5
:102150000600FF40C04040E81404081C05090906B9
:1021600000FFC0204020C81828780805070706008F
:10217000002000202040887005080806000040204C
:10218000708888F888880508080600001020708884
:1021900088F888880508080600002050708888F8AC
:1021A000888805080806000048B0708888F8888884
:1021B0000508080600005000708888F8888805081F
:1021C000080600002050708888F8888806070706EF
:1021D00000003C50909CF0909C0509090600FE70A0
:1021E000888080808870204005080806000040F83C
:1021F0008080F08080F805080806000010F88080D4
:10220000F08080F805080806000020F88080F08043
:1022100080F805080806000050F88080F08080F8FB
:102220000308080601008040E040404040E0030809
:10223000080601002040E040404040E00308080656
:10224000010040A0E040404040E0030808060100D3
:10225000A000E040404040E0050707060000F048CD
:1022600048E84848F0050808060000285088C8A833
:1022700098888805080806000040207088888888AB
:10228000700508080600001020708888888870058E
:1022900008080600002050708888888870050808A3
:1022A0000600002850708888888870050808060095
:1022B0000050007088888888700505050600008831
:1022C00050205088050707060000709898A8C8C8D5
:1022D00070050808060000402088888888887005F6
:1022E000080806000010208888888888700508087B
:1022F00006000020500088888888700508080600BD
:10230000005000888888888870050808060000103A
:102310002088885020202005070706000080F088CC
:10232000F0808080050707060000708890A09088E4
:10233000B00508080600004020007008788878057D
:102340000808060000102000700878887805080842
:1023500006000020500070087888780508080600FC
:10236000002850007008788878050707060000509C
:102370000070087888780508080600002050207052
:102380000878887806050506000078147C907C059E
:1023900007070600FE708880887020400508080640
:1023A00000004020007088F88070050808060000D2
:1023B0001020007088F88070050808060000205082
:1023C000007088F8807005070706000050007088CC
:1023D000F88070030808060100804000C0404040BB
:1023E000E0030808060100408000C0404040E003D0
:1023F000080806010040A000C0404040E0060A0A6C
:102400000600FEA4A800FC8480808084FC060A0AE2
:102410000600FE549400FC8404040484FC050808AF
:10242000060000285000B0C8888888050808060003
:10243000004020007088888870040A0A0602FE3076
:10244000408090909090909090040A0A0600FEC000
:1024500020109090909090909006070706000144FD
:102460008C8C8480403C06070706000188C4C48425
:102470000408F00505050600012000F80020050805
:102480000806000040F0C8888898781005080806FB
:102490000000E0F88888888888F8050505060001AE
:1024A0002030F830200508080600002070F82020B1
:1024B0002020E00509090600FF2070A8A8B8888838
:1024C00050200509090600FFE080C0B0A8A8302808
:1024D000280509090600FFF8A88888888888A8F8D0
:1024E000050A0A0600FE205050505088A8A888709F
:1024F00000060900FE06018902FE20FFFE07FE0617
:10250000FE0000000600070106060602008080802B
:10251000800080030303060103A0A0A005070706AF
:1025200000FF5050F850F850500509090600FE20F1
:1025300070A8A07028A870200608080600FF40A810
:102540004810204854080507070600FF6090906077
:102550009890680103030602038080800207070643
:1025600002FF408080808080400207070602FF80D3
:102570004040404040800505050600008850F85066
:10258000880505050600002020F820200204040626
:1025900002FEC0404080050101060002F80202026E
:1025A000060200C0C004060606010010102040808C
:1025B0008004060606010060909090906003060675
:1025C00006010040C0404040E004060606010060ED
:1025D00090102040F0040606060100F02060101064
:1025E000E005060606000010305090F810040606BC
:1025F000060100F080E01010E0040606060100600D
:1026000080E0909060040606060100F01010204063
:102610004004060606010060906090906004060683
:10262000060100609090701060020505060200C06F
:10263000C000C0C00207070602FEC0C000C0404084
:102640008005050506000018608060180503030674
:102650000001F800F8050505060000C0300830C08C
:102660000407070601006090106040004005060660
:102670000600007090A8B0807005060606000020D5
:102680005088F88888050606060000F088F08888DB
:10269000F004060606010060908080906004060643
:1026A000060100E090909090E0040606060100F01C
:1026B00080E08080F0040606060100F080E0808063
:1026C00080040606060100609080B0906004060653
:1026D0000601009090F0909090030606060100E03D
:1026E00040404040E00506060600003810101090FB
:1026F0006004060606010090A0C0A09090040606A3
:102700000601008080808080F005060606000088B3
:10271000D8A8A8888804060606010090D0B090903A
:1027200090050606060000708888888870040606F2
:10273000060100E09090E080800407070601FF603A
:102740009090D0B06010040606060100E09090E082
:1027500090900406060601006090402090600506F7
:1027600006060000F82020202020040606060100AE
:10277000909090909060040606060100909090F072
:1027800060600506060600008888A8A8D8880506A7
:102790000606000088502020508805060606000026
:1027A000888850202020040606060100F0102040F2
:1027B00080F0030606060100E080808080E00406C9
:1027C0000606010080804020101003060606010066
:1027D000E020202020E005030306000320508805A8
:1027E00001010600FEF80202020602048040040411
:1027F00004060100709090700406060601008080B7
:10280000E09090E0040404060100708080700406EB
:102810000606010010107090907004040406010078
:1028200060B0C070040606060100205040E0404041
:102830000406060601FE609090701060040606060D
:1028400001008080E09090900306060601004000A1
:10285000C04040E00308080601FE20006020202060
:10286000A0400406060601008080A0C0A0900306D8
:1028700006060100C040404040E005040406000098
:10288000D0A8A888040404060100E09090900404F5
:1028900004060100609090600406060601FEE090C8
:1028A00090E080800406060601FE70909070101083
:1028B000040404060100A0D0808004040406010082
:1028C00070C030E00406060601004040E0405020A1
:1028D00004040406010090909070040404060100B2
:1028E0009090606005040406000088A8A8500404C5
:1028F00004060100906060900406060601FE9090B8
:1029000090709060040404060100F02040F003077A
:1029100007060100204040804040200107070602D2
:10292000FF80808080808080030707060100804050
:10293000402040408004020206010350A0FFFFFF38
:10294000FFFFFFFFFFFFFFFFFFFFFFFFFFFFFFFF97
:10295000FFFFFFFFFFFFFFFFFFFFFFFFFFFF000085
:1029600000060007010606060200800080808080C5
:102970000406060601FF2070A0A0702005070706C8
:1029800000FF304840F04040F8050505060000A86B
:10299000508850A80506060600008850F820F82048
:1029A0000107070602FF80808000808080040707FF
:1029B0000601FF708060906010E0030101060105D0
:1029C000A0060707060000788494A4948478030581
:1029D0000506010160A06000E0050505060000286D
:1029E00050A05028040303060100F0101004010158
:1029F000060102F00607070600007884B4A4A48448
:102A000078040101060105F0040303060102609049
:102A1000600507070600FF2020F8202000F80305C6
:102A20000506010140A02040E0030505060101C0A4
:102A3000204020C002020206020440800405050670
:102A400001FF9090B0D08005060606000078E8E807
:102A5000682828010101060202800202020602FE25
:102A6000408003050506010140C04040E003050524
:102A700006010140A04000E0050505060000A05049
:102A80002850A00508080600FF40C040507030786C
:102A9000100508080600FF40C040506808103805BF
:102AA00008080600FFC0204030F030781004070707
:102AB00006010020002060809060050707060000E6
:102AC000402020507088880507070600001020204D
:102AD0005070888805070706000020502050708835
:102AE00088050707060000285020507088880507D1
:102AF0000706000050002050708888050707060070
:102B0000002050205070888805060606000078A036
:102B1000F0A0A0B80408080601FE609080809060D4
:102B200020400407070601004020F080E080F00408
:102B300007070601002040F080E080F00407070648
:102B400001002050F080E080F004070706010050EB
:102B500000F080E080F00307070601008040E040BD
:102B60004040E00307070601002040E0404040E00D
:102B700003070706010040A0E0404040E0030707CC
:102B8000060100A000E0404040E005060606000007
:102B90007048E848487004070706010050A090D02C
:102BA000B09090040707060100402060909090606C
:102BB000040707060100204060909090600407071A
:102BC0000601002050609090906004070706010005
:102BD00050A06090909060040707060100500060CC
:102BE00090909060050505060000885020508804EC
:102BF00008080601FF1070B0B0D0D0E080040707CD
:102C000006010040209090909060040707060100A4
:102C1000204090909090600407070601002050909B
:102C200090909060040707060100500090909090EB
:102C300060050707060000102088502020200406A9
:102C40000606010080E09090E08004060606010080
:102C50006090A0A090A0040707060100402000702B
:102C6000909070040707060100204000709090705B
:102C700004070706010020500070909070040707B9
:102C800006010050A0007090907004060606010036
:102C900050007090907004070706010020502070CB
:102CA00090907005040406000070A8B07804060631
:102CB0000601FE7080807020400407070601004076
:102CC000200060B0C07004070706010020400060CB
:102CD000B0C07004070706010020500060B0C0704B
:102CE000040606060100500060B0C0700307070626
:102CF0000100804000C04040E003070706010020BB
:102D00004000C04040E003070706010040A000C0AB
:102D10004040E0030606060100A000C04040E00479
:102D200007070601003060107090906004070706E6
:102D3000010050A000E090909004070706010040B9
:102D400020006090906004070706010020400060AA
:102D5000909060040707060100205000609090608A
:102D600004070706010050A000609090600406066A
:102D700006010050006090906005050506000020E7
:102D800000F8002004040406010070B0D0E004073D
:102D9000070601004020009090907004070706018C
:102DA000002040009090907004070706010020501A
:102DB00000909090700406060601005000909090DC
:102DC000700409090601FE20400090909070906008
:102DD0000408080601FE8080E09090E080800408EE
:102DE000080601FE5000909090709060003FFFFE3A
:102DF00000003FFFFE00003FFFFE00003FFFFE001F
:102E0000001FFFFE00001FFFFE00001FFFFE00006E
:102E10001FFFFC00001FFFFC00001FFFFC00000F55
:102E2000FFFC00000FFFFC00000FFFF8000007FF91
:102E3000F8000007FFF8000003FFF0000003FFF0B8
:102E4000000003FFE0000003FFE0000001FFC000FE
:102E50000001FFC0000000FFC0000000FF80000074
:102E6000007F800000003F000000003E00000000E6
:102E700000000000001E000000001E000000001CFA
:102E8000000000001C000000001C000000001C00EE
:102E90000000001C000000001C000000001C0000DE
:102EA00000001C000000001C000000001C000000CE
:102EB000001C000000001C000000001C000000E0DE
:102EC0001C038000F01C07C000F81C0F80007C1C55
:102ED0001F00003E1C3E00001F1C7C0000079CF8E9
:102EE000000003DDF0000003DDE000000000000052
:102EF000FFFFF7FFFF7FFFF7FFFE3FFFF7FFFC3FFE
:102F0000FFF7FFFC7FFFF7FFFEFFFFF7FFFF00006B
:102F100000000001080D00FE09016102CD20FFFE46
:102F20000BFE09FE0D008032198980808080808030
:102F30008000802843839090901367874848FC481E
:102F4000FC48481259892078A0A0702828F0201247
:102F5000698944A4481010204854881267876090FB
:102F6000906094887438138380808032398920403F
:102F700040808080404020223989804040202020AD
:102F80004040801665854830FC3048145585202027
:102F9000F82020114383706080165181F82133831B
:102FA00040E040027989020204081020408080122B
:102FB0006989304884848484844830125989206027
:102FC000A02020202020F812698978848404083009
:102FD0004080FC126989FC040810380404847812CB
:102FE0006989081828488888FC0808126989FC80C3
:102FF00080B8C40404847812698938408080B8C4D9
:10300000848478126989FC04081010202040401242
:10301000698978848484788484847812698978843E
:10302000848C740404087021388840E0400000401B
:10303000E04011488820702000007060802259898B
:10304000081020408040201008146484FC0000FC1C
:103050001259898040201008102040801269897818
:1030600084840408101000101269897884849CA458
:10307000AC9480781269893048848484FC84848488
:10308000126989F0888488F0888488F012698978C8
:103090008480808080808478126989F08884848428
:1030A000848488F0126989FC808080F0808080FCB4
:1030B000126989FC808080F0808080801269897824
:1030C000848080809C848C7412698984848484FCCC
:1030D00084848484125989F820202020202020F81C
:1030E0001279893E080808080808887012698984DE
:1030F0008890A0C0A0908884126989808080808098
:10310000808080FC0279898282C6AA929282828221
:103110001269898484C4A4948C8484841269897813
:103120008484848484848478126989F8848484F80B
:1031300080808080116A8A788484848484A49478CE
:1031400004126989F8848484F8A0908884126989BB
:10315000788480807804048478027989FE101010C5
:1031600010101010101269898484848484848484EB
:103170007802798982824444442828281002798977
:1031800082828282929292AA44027989828244281F
:1031900010284482820279898282442810101010FB
:1031A00010126989FC04081020408080FC224989A3
:1031B000F080808080808080F0027989808040204B
:1031C0001008040202124989F0101010101010109B
:1031D000F0185383205088017181FE3A228280408A
:1031E00012668678047C848C74126989808080B829
:1031F000C48484C4B8126686788480808478126916
:1032000089040404748C84848C741266867884FC2B
:1032100080847812698938444040F840404040102A
:103220006888748888708078847812698980808042
:10323000B8C4848484841258882000602020202010
:10324000F8105A8A08001808080808888870126957
:10325000898080808890E09088841259896020203D
:103260002020202020F8027686EC92929292821200
:103270006686B8C484848484126686788484848450
:1032800078106888B8C484C4B88080801068887456
:103290008C848C74040404126686B8444040404018
:1032A0001266867884601884781268884040F840F6
:1032B000404044381266868888888888741256860A
:1032C00088888850502002768682829292AA441280
:1032D00066868448303048841068888484848C747E
:1032E000048478126686FC08102040FC2259893834
:1032F000404020C020404038321989808080808042
:1033000080808080125989E010102018201010E071
:1033100018538348A890FFFFFFFFFFFFFFFFFFFF49
:10332000FFFFFFFFFFFFFFFFFFFFFFFFFFFFFFFFAD
:10333000FFFFFFFFFFFFFF0D008032198980008033
:103340008080808080801358882070A8A0A0A870FA
:10335000200279891C22207020202062DC136686DE
:10336000847848487884027989828244287C107C59
:103370001010321989808080800080808080224AED
:103380008A609080609090601090602A4282909055
:10339000037989384492AAA2AA92443814578770B4
:1033A0000878887800F80377871224489048241218
:1033B000136484FC040404264181F00379893844B1
:1033C00092AAAAB2AA44381A6181FC274484609068
:1033D00090601357872020F8202000F8164686605A
:1033E00090106080F01646866090201090603A221F
:1033F00082408011678784848484CCB48012698978
:103400007CE8E8E86828282828362181C030228214
:1034100040C016368640C0404040E0154686609069
:10342000906000F003778790482412244890027A35
:103430008A40C0404042E60A121A06027A8A40C018
:1034400040404CF2020C101E027A8A6090201092CA
:10345000660A121A0612698920002020408084849E
:1034600078126A8A20100030488484FC8484126AAE
:103470008A10200030488484FC8484126A8A304890
:103480000030488484FC8484126A8A64980030483E
:103490008484FC8484126A8A48480030488484FC0E
:1034A0008484126A8A30483030488484FC848402E0
:1034B00079896E9090909CF090909E106B8B7884A0
:1034C000808080808084781020126A8A201000FC1E
:1034D0008080F08080FC126A8A102000FC8080F0DE
:1034E0008080FC126A8A304800FC8080F08080FC7A
:1034F000126A8A484800FC8080F08080FC125A8A58
:10350000402000F82020202020F8125A8A102000A5
:10351000F82020202020F8125A8A304800F8202075
:10352000202020F8125A8A888800F82020202020A5
:10353000F802798978444242E242424478027A8A27
:1035400064980082C2A2928A8682027A8A2010003F
:103550007C82828282827C027A8A0810007C82824B
:103560008282827C027A8A1824007C828282828211
:103570007C027A8A6498007C82828282827C027ACF
:103580008A4444007C82828282827C1366868448DC
:1035900030304884116B8B04788C9494A4A4A4C418
:1035A0007880126A8A40200084848484848478121B
:1035B0006A8A10200084848484848478126A8A3021
:1035C000480084848484848478126A8A4848008409
:1035D000848484848478125A8A1020008888502039
:1035E00020202012698980F8848484F880808012E9
:1035F000698970888890A0988484B812698920109D
:103600000078047C848C7412698908100078047C2A
:10361000848C7412698930480078047C848C74121C
:10362000698964980078047C848C7412698948489C
:103630000078047C848C74126A8A304830007804E4
:103640007C848C740276866C127C90926C106888F4
:103650007884808084781020126989201000788412
:10366000FC8084781269891020007884FC8084783A
:103670001269893048007884FC808478126989480E
:1036800048007884FC8084781259894020006020AA
:10369000202020F81259892040006020202020F8A6
:1036A0001259896090006020202020F812598990DA
:1036B00090006020202020F8126A8A483050087854
:1036C0008484848478126989649800B8C48484846A
:1036D00084126989402000788484848478126989FE
:1036E00010200078848484847812698930480078B6
:1036F00084848484781269896498007884848484BA
:1037000078126989484800788484848478135787BC
:10371000202000F800202011688804788C94A4C42C
:1037200078801269894020008888888888741269A6
:103730008910200088888888887412698930480038
:103740008888888888741269895050008888888899
:103750008874106B8B1020008484848C74048478AB
:10376000106A8A8080B8C48484C4B88080106B8B4F
:103770004848008484848C7404847801070D00FE1A
:1037800009016902D820FFFE0BFE09FE0D00702220
:103790002979C0C0C0C0C0C000C0C0185373D8D8F9
:1037A000D81259795050F8F850F8F8505002697909
:1037B0003078B4B07834B47830026979E4ACE81881
:1037C00030605CD49C02697970D8D8D870D4DCD8C9
:1037D00074272474C0C0C0C0124979306060C0C072
:1037E000C0606030124979C060603030306060C0C5
:1037F0000366764830FCFC30480366763030FCFCCB
:103800003030114474707060C0056171FC114373F5
:1038100060F0600269790C0C1818306060C0C0025A
:1038200069793048CCCCCCCCCC4830026979307046
:10383000B03030303030FC02697978CCCC0C386054
:10384000C0C0FC026979FC0C1830780C0CCC7802F2
:1038500069790C1C3C6CCCCCFC0C0C026979FCC06A
:10386000C0F8CC0C0CCC7802697978CCC0C0F8CC0C
:10387000CCCC78026979FC0C0C18183030606002EE
:10388000697978CCCCCC78CCCCCC7802697978CCFE
:10389000CCCC7C0C0CCC7811487860F060000060D7
:1038A000F06011487860F06000707060C002697963
:1038B0000C183060C06030180C046474FC0000FC0C
:1038C000026979C06030180C183060C002697978DC
:1038D000CCCC0C3830003030026979788C8CBCACA0
:1038E000BC808C7802697978CCCCCCFCCCCCCCCCAC
:1038F000026979F8CCCCCCF8CCCCCCF802697978D8
:10390000CCC0C0C0C0C0CC78026979F8CCCCCCCCDB
:10391000CCCCCCF8026979FCC0C0C0F8C0C0C0FCF7
:10392000026979FCC0C0C0F8C0C0C0C00269797823
:10393000CCC0C0DCCCCCCC7C026979CCCCCCCCFC6F
:10394000CCCCCCCC026979FC30303030303030FC1B
:103950000269790C0C0C0C0C0C0CCC78026979C443
:10396000CCD8F0E0F0D8CCC4026979C0C0C0C0C0E7
:10397000C0C0C0FC02697984CCFCFCCCCCCCCCCCE3
:10398000026979CCCCECECFCDCDCCCCC026979783B
:10399000CCCCCCCCCCCCCC78026979F8CCCCCCF8E3
:1039A000C0C0C0C0016A7A78CCCCCCCCCCECDC787E
:1039B0000C026979F8CCCCCCF8F0D8CCC402697987
:1039C00078CCC0C0780C0CCC78026979FC303030EF
:1039D0003030303030026979CCCCCCCCCCCCCCCCB3
:1039E00078026979CCCCCC4848783030300269799B
:1039F000CCCCCCCCCCFCFCCC8402697984CC48788F
:103A0000307848CC84026979CCCC7878303030304A
:103A100030026979FC0C0C183060C0C0FC12497986
:103A2000F0C0C0C0C0C0C0C0F0026979C0C0606052
:103A30003018180C0C124979F030303030303030FA
:103A4000F00764743078CC84016272FCFC19437313
:103A5000C06030026676780C7CCCCC7C026979C080
:103A6000C0C0F8CCCCCCCCF802667678CCC0C0CC48
:103A7000780269790C0C0C7CCCCCCCCC7C026676C0
:103A800078CCFCC0CC78026979386C6060F06060FA
:103A9000606000687874CCCC78C078CC78026979A2
:103AA000C0C0C0F8CCCCCCCCCC026979303000702E
:103AB00030303030FC006B7B0C0C000C0C0C0C0C10
:103AC0000CCC78026979C0C0C0CCD8F0F0D8CC0258
:103AD00069797030303030303030FC026676D8FC96
:103AE000FCCCCCCC026676F8CCCCCCCCCC026676C6
:103AF00078CCCCCCCC78006878F8CCCCCCF8C0C0F2
:103B0000C00068787CCCCCCC7C0C0C0C026676F8BF
:103B1000CCC0C0C0C002667678CC6018CC78026891
:103B2000786060F86060606C38026676CCCCCCCC93
:103B3000CC7C026676CCCCCC787830026676CCCC65
:103B4000CCFCFC48026676CCCC7878CCCC0068788B
:103B5000CCCCCCCC7C0CCC78026676FC0C1860C04B
:103B6000FC12497970C0C060C060C0C07022297961
:103B7000C0C0C0C0C0C0C0C0C0124979E030306011
:103B800030603030E008637364FC98FFFFFFFFFF94
:103B9000FFFFFFFFFFFFFFFFFFFFFFFFFFFFFFFF35
:103BA000FFFFFFFFFFFFFFFFFFFFFFFF0D00702282
:103BB0002A7AC0C000C0C0C0C0C0C0C003687810AE
:103BC0007CD4D0D0D47C10026979386C6060F86005
:103BD000606CB8036676CCFC4848FCCC026979CCB2
:103BE000CC7878FC30FC3030222A7AC0C0C0C000CB
:103BF00000C0C0C0C0026A7A78CCC078CCCC780C47
:103C0000CC781A5272D8D8026A7A78CC84B4E4E4B8
:103C1000B484CC78145777F018F898F800F8036754
:103C2000773468D0A0D06834036474FC0C0C0C1595
:103C30004171F0026A7A78CC84BCACBCB4ACCC786C
:103C40001B5171F807647478CCCC780367773030F7
:103C5000FC303000FC064676E0B03060C0F006462E
:103C600076E0B06030B0E01943733060C001677730
:103C7000CCCCCCCCCCFC800269797CFCF4F4F47420
:103C8000343434262272C0C010327260C0064676C8
:103C900060E0606060F015577770F888F87000F8A1
:103CA000036777B0582C142C58B0026A7A60E06031
:103CB0006064FC1C343C0C026A7A60E0606078EC62
:103CC0000C18303C026A7AE0B06030B4EC1C343C32
:103CD0000C026A7A303000303060C0CCCC78026A96
:103CE0007A6030003078CCCCFCCCCC026A7A1830C8
:103CF000003078CCCCFCCCCC026A7A386C003078BE
:103D0000CCCCFCCCCC026A7A3458003078CCCCFCD9
:103D1000CCCC026A7ACCCC003078CCCCFCCCCC02B7
:103D20006A7A7848783078CCCCFCCCCC0269797C43
:103D3000F8D8D8DCF8D8D8DC006B7B78CCC0C0C011
:103D4000C0C0CC783060026A7A603000FCC0C0F03D
:103D5000C0C0FC026A7A183000FCC0C0F0C0C0FCD1
:103D6000026A7A386C00FCC0C0F0C0C0FC026A7AFB
:103D7000CCCC00FCC0C0F0C0C0FC026A7A6030004D
:103D8000FC3030303030FC026A7A183000FC3030C1
:103D9000303030FC026A7A386C00FC303030303021
:103DA000FC026A7ACCCC00FC3030303030FC026946
:103DB00079F86C6C6CEC6C6C6CF8026A7A345800B4
:103DC000CCCCECFCDCCCCC026A7A60300078CCCC79
:103DD000CCCCCC78026A7A18300078CCCCCCCCCC65
:103DE00078026A7A386C0078CCCCCCCCCC78026A79
:103DF0007A34580078CCCCCCCCCC78026A7ACCCC53
:103E00000078CCCCCCCCCC78036575CC783078CC31
:103E1000016A7A0478DCDCDCECECEC7880026A7A0B
:103E2000603000CCCCCCCCCCCC78026A7A18300094
:103E3000CCCCCCCCCCCC78026A7A386C00CCCCCC54
:103E4000CCCCCC78026A7ACCCC00CCCCCCCCCCCC50
:103E500078026A7A183000CC487830303030026905
:103E600079C0F8CCCCCCF8C0C0C002697978CCCC91
:103E7000D8D8CCCCCCD8026979301800780C7CCC5E
:103E8000DC7C026979183000780C7CCCDC7C02691F
:103E900079386C00780C7CCCDC7C02697934580071
:103EA000780C7CCCDC7C0269796C6C00780C7CCC66
:103EB000DC7C026A7A38283800780C7CCCDC7C0206
:103EC000667678347CB0B46800687878CCC0C0CCB2
:103ED00078306002697930180078CCFCC0CC780268
:103EE000697918300078CCFCC0CC78026979386CDC
:103EF0000078CCFCC0CC780269796C6C0078CCFC82
:103F0000C0CC78124979C06000E060606060F01257
:103F10004979306000E060606060F002597970D8E3
:103F200000703030303078125979D8D800E06060B5
:103F30006060F0026A7A6830780C7CCCCCCCCC78AB
:103F4000026979345800F8ECCCCCCCCC02697960A9
:103F5000300078CCCCCCCC7802697918300078CCA1
:103F6000CCCCCC78026979386C0078CCCCCCCC78CD
:103F700002697934580078CCCCCCCC780269796C61
:103F80006C0078CCCCCCCC78036777303000FC0068
:103F900030300169790478CCDCCCECCC78800269D3
:103FA00079603000CCCCCCCCDC7C02697918300054
:103FB000CCCCCCCCDC7C026979386C00CCCCCCCCC1
:103FC000DC7C0269796C6C00CCCCCCCCDC7C006BEA
:103FD0007B183000CCCCCCDC7C0CCC78006A7AC06E
:103FE000C0D8ECCCCCECD8C0C0006B7B6C6C00CCE7
:103FF000CCCCDC6C0CCC7801050800FF060121025A
:104000003520FFFF07FF06FF09005022165680806B
:1040100080800080153353A0A0A00257575050F85D
:1040200050F850500257572070A070287020133558
:104030005580A040A02002475740A0A040A0A0501B
:104040002513538080801226564080808080401245
:1040500026568040404040800245559060F0609078
:104060000255552020F82020113353604080044130
:1040700051F011335340E04002465610102040806A
:104080008012365640A0A0A0A04012365640C04034
:104090004040E00246566090106080F0024656F0C4
:1040A00020601090600246562060A0F0202002465A
:1040B00056F080E01090600246566080E09090607C
:1040C000024656F010202040400246566090609014
:1040D0009060024656609090701060122555C0C0E6
:1040E00000C0C01136566060006040801236562015
:1040F0004080804020034353F000F0123656804049
:104100002020408012365640A020400040015858E0
:10411000304898A8A8904030024656609090F090A1
:1041200090024656E090E09090E002465660908003
:10413000809060024656E090909090E0024656F0E3
:1041400080E08080F0024656F080E0808080024669
:1041500056609080B090600246569090F09090909B
:10416000123656E040404040E00246567020202083
:10417000A04002465690A0C0A0A090024656808063
:10418000808080F002465690F0F090909002465663
:1041900090D0F0B0B090024656609090909060023F
:1041A0004656E09090E08080014757609090D0B0F4
:1041B0006010024656E09090E09090024656609063
:1041C00040209060123656E0404040404002465643
:1041D000909090909060024656909090906060020F
:1041E0004656909090F0F090024656909060609005
:1041F00090025656888850202020024656F0102003
:104200004080F0123656E080808080E00246568082
:104210008040201010123656E020202020E0163278
:104220005240A0014151F016225280400244547085
:104230009090700246568080E09090E01234546076
:104240008080600246561010709090700244546056
:10425000B0C060024656205040E0404001455560E5
:10426000907010600246568080E090909012365612
:104270004000C04040E01137572000202020A040DF
:10428000024656808090E09090123656C0404040E2
:1042900040E0025454D0A8A8A8024454E090909062
:1042A00002445460909060014555E090E0808001A8
:1042B00045557090701010024454A0D08080123484
:1042C0005460C020C00246564040E04050200244A6
:1042D0005490909070123454A0A0A040025454887E
:1042E000A8A8500244549060609001455590907089
:1042F0009060024454F02040F0024757304020C004
:10430000204030221656808080808080024757C02F
:104310002040304020C006425250A0FFFFFFFFFF68
:10432000FFFFFFFFFFFFFFFFFFFFFFFFFFFFFFFF9D
:10433000FFFFFFFFFFFFFFFFFFFFFFFF090050220E
:1043400016568000808080800146562070A0A070A4
:10435000200246562050E04050A00255558870502B
:1043600070880256568850F820F82022175780800F
:1043700080008080800247577080E0907010E017C6
:104380003151A002565670A8C8C8A870143555609F
:10439000A06000E003435350A050123353E02020AC
:1043A000143151E002565670E8D8E8D870173151F0
:1043B000E015335340A04012355540E04000E01472
:1043C000355540A02040E0143555C020C020C0160F
:1043D00022524080014555909090E08002565678D8
:1043E000E8E86828282411518011225240801435B1
:1043F0005540C04040E014355540A04000E0034324
:1044000053A050A0024757808080A060F020024750
:10441000578080A0D010207002475780408060A055
:10442000F02012365640004080A0400247574020FE
:104430006090F0909002475720406090F09090027A
:10444000475760906090F0909002475750A060905E
:10445000F0909002475790006090F090900247577C
:1044600060906090F0909002465670A0A0F0A0B0CE
:10447000014757609080809060400247574020F08D
:1044800080E080F00247572040F080E080F0024753
:10449000576090F080E080F00247579000F080E095
:1044A00080F01237578040E0404040E012375720FC
:1044B00040E0404040E012375740A0E0404040E03C
:1044C000123757A000E0404040E00256567048E8DE
:1044D00048487002475750A090D0B090900247577C
:1044E00040206090909060024757204060909090EC
:1044F000600247576090609090906002475750A0CC
:104500006090909060024757900060909090601289
:104510003353A040A002465670B0B0D0D0E002475E
:104520005740209090909060024757204090909084
:10453000906002475760909090909060024757902B
:1045400000909090906002575710208850202020B3
:1045500002465680E09090E0800246566090A0A00F
:1045600090A002475740200070909070024757205B
:1045700040007090907002475720500070909070EB
:1045800002475750A000709090700246565000703D
:1045900090907002475760906070909070025454F1
:1045A000F068B07811355560808060400247574010
:1045B000200060B0C06002475720400060B0C0607B
:1045C00002475760900060B0C060024656500060DD
:1045D000B0C060123757804000C04040E0123757EB
:1045E000204000C04040E012375740A000C040408B
:1045F000E0123656A000C04040E0024757A040A05D
:104600001070906002475750A000E09090900247D1
:104610005740200060909060024757204000609013
:10462000906002475760900060909060024757503A
:10463000A0006090906002465690006090906012DA
:1046400035554000E0004002445470B0D0E00247CD
:104650005740200090909070024757204000909063
:10466000907002475760900090909070024656906C
:104670000090909070014858204000909070906099
:104680000147578080E090E080800147579000907C
:10469000907090600200000A0B02090C0D0E0807D2
:1046A0000304010000000000000000000000000002
:1046B00000000000000000000000000000000000FA
:1046C00000121110000000000000000000000000B7
:1046D0000000000000000000000000010210202087
:1046E0000808102040102040800201020108040246
:1046F00001010204081020408080402010080402BC
:104700000180040201804020100804020108040214
:10471000010102040810204080010204081020401A
:104720008005050505070508080808020202020AB7
:104730000A08080404040401010101010101010344
:1047400003030303030303040707070C0C0C0C0CFF
:104750000C0C0C0202020206060606060606060BF2
:104760000B0B0B0B0B0B0B00002200250028002B62
:10477000002E003100340002010000050108010B89
:104780000100002100240027002A002D0030003302
:104790000001010000040107010A014E414E494E8B
:1047A000495459494E46CDCCCC3D0AD7233C17B786
:1047B000D13877CC2B329595E6241FB14F0A0000F3
:1047C00020410000C84200401C4620BCBE4CCA1B11
:1047D0000E5AAEC59D74AA5144CEAE5111241FBECF
:1047E000CFEFD1E2DEBFCDBF00E00CBF15E0A0E00F
:1047F000B2E0E0EAFBEC01E00BBF02C007900D92D3
:10480000A438B107D9F71AE1A4E8B5E001C01D92B8
:10481000A739B107E1F717E4CAEDD7E400E006C015
:1048200022970109FE010BBF0E949DDFC63DD10703
:1048300080E00807A9F70E94FDD70C94BFE50C940F
:104840000000DC01FB018181807382958F70908173
:10485000990F990F890F8C9382818C738695869519
:10486000918120E1929F800D112411968C931197D4
:104870009281838120E4929F800D112412968C9363
:1048800008959FEB980F9A31B0F09FE9980F9A31F5
:1048900010F48754089590ED980F9A3010F48C5FBF
:1048A00008958B3221F08F3221F48FE308958EE347
:1048B00008958FEF0895892F08954F925F926F9218
:1048C0007F928F929F92AF92BF92CF92DF92EF92A0
:1048D000FF920F931F93CF93DF93CDB7DEB7279748
:1048E0000FB6F894DEBF0FBECDBF6C015A017B013D
:1048F000A60EB71E00E010E080E090E03E0125E04B
:10490000620E711C4E01E8E08E0E911CEA14FB044D
:1049100029F0F70141917F014D3329F478015C01C1
:10492000009771F561C09C012F5F3F4FE1E0F0E01F
:10493000EC0FFD1FE80FF91F408324303105F1F41F
:10494000CE0101962C01F20180819BDFF20181935F
:104950002F01E615F705B9F7BE016F5F7F4FC30161
:1049600070DFF301D601A00FB11F81918D93E8157F
:10497000F905D9F70D5F1F4F20E030E0C901C6CF20
:10498000843091054CF4E1E0F0E0EC0FFD1FE80FFE
:10499000F91F10820196F4CFCE0101964C013E0121
:1049A00095E0690E711CF40180816BDFF401819345
:1049B0004F01E615F705B9F7BE016F5F7F4FCF01D5
:1049C00040DFD401F601E00FF11F80E090E021E02C
:1049D000A21AB1088C010E0D1F1D8A159B0524F427
:1049E0002D9121930196F6CFF601E00FF11F108271
:1049F000C80127960FB6F894DEBF0FBECDBFDF917A
:104A0000CF911F910F91FF90EF90DF90CF90BF90CB
:104A1000AF909F908F907F906F905F904F90089590
:104A2000EF92FF920F931F93CF93DF931F92CDB717
:104A3000DEB78C017B01460FF70161917F01F80120
:104A40008081918149830E9408E5F80180819181EC
:104A500001969183808349814E11EECF0F90DF91B3
:104A6000CF911F910F91FF90EF900895EF92FF92D9
:104A70000F931F93CF93DF931F92CDB7DEB78C01B7
:104A80007B01460FF8018081918149830E9400E5F6
:104A9000F70181937F01F8018081918101969183D3
:104AA000808349814E11EECF0F90DF91CF911F91FE
:104AB0000F91FF90EF9008950F931F93CF93DF9383
:104AC000CDB7DEB72A970FB6F894DEBF0FBECDBFC5
:104AD00080E390E3A0E3B0E08D839E83AF83B8874B
:104AE00004E610E01A87098744E0BE016B5F7F4F40
:104AF000CE01099695DF40E163E077E1CE010996AA
:104B00008FDF40E163E177E1CE01099689DF40E183
:104B100063EF76E1CE01099683DF44E06BEE76E148
:104B2000CE0109967DDF44E067EE76E1CE0109967D
:104B300077DF44E06FEE76E1CE01099671DF44E065
:104B400067ED76E1CE0109966BDF44E063E277E141
:104B5000CE01099665DF44E063EE76E1CE01099669
:104B60005FDF44E06FED76E1CE01099659DF44E066
:104B70006BED76E1CE01099653DF4CE06CEE77E009
:104B8000CE0109964DDF42E067E37CE0CE01099655
:104B900047DF41E06BE87CE0CE01099641DF42E06F
:104BA0006AE57AE1CE0109963BDF42E068E57AE109
:104BB000CE01099635DF42E066E57AE1CE0109963D
:104BC0002FDF42E064E57AE1CE01099629DF42E079
:104BD00062E57AE1CE01099623DF42E060E57AE101
:104BE000CE0109961DDF44E06BE572E0CE01099627
:104BF00017DF44E067E572E0CE01099611DF44E07B
:104C000063E572E0CE0109960BDF42E06DE478E1E6
:104C1000CE01099605DF86E591E3A0E3B0E0898344
:104C20009A83AB83BC831A87098744E0BE016F5F18
:104C30007F4FCE010996F4DEE1EFF3E08491882303
:104C400041F09091C00095FFFCCF8093C600319653
:104C5000F5CFE1EEF3E08491882341F09091C0001C
:104C600095FFFCCF8093C6003196F5CFE6EBF2E0DE
:104C70008191882339F09091C00095FFFCCF8093FB
:104C8000C600F6CF2A960FB6F894DEBF0FBECDBF92
:104C9000DF91CF911F910F9108950F931F93CF93A1
:104CA000DF93C1EFD3E0FE018491FE01882349F038
:104CB0009091C00095FFFCCF8093C60031968491FF
:104CC000F5CFE1EDF3E08491882341F09091C000AD
:104CD00095FFFCCF8093C6003196F5CFE6EBF2E06E
:104CE0008191882339F09091C00095FFFCCF80938B
:104CF000C600F6CFFE018491E1EFF3E0882349F08E
:104D00009091C00095FFFCCF8093C60031968491AE
:104D1000F5CF4091031750910417609105177091DA
:104D2000061789EC93E00E94CA2F40910717509113
:104D300008176091091770910A1786EC93E00E949A
:104D4000CA2F40910B1750910C1760910D1770915D
:104D50000E1783EC93E00E94CA2F40910F175091D9
:104D60001017609111177091121780EC93E00E9458
:104D7000CA2FE6EBF2E08191882339F09091C000D0
:104D800095FFFCCF8093C600F6CFFE018491E1EF42
:104D9000F3E0882349F09091C00095FFFCCF809309
:104DA000C60031968491F5CFE6EAF3E0849188233A
:104DB00041F09091C00095FFFCCF8093C6003196E2
:104DC000F5CFE6EBF2E08191882339F09091C000B5
:104DD00095FFFCCF8093C600F6CFFE018491E1EFF2
:104DE000F3E0882349F09091C00095FFFCCF8093B9
:104DF000C60031968491F5CF409113175091141746
:104E000060911517709116178DE993E00E94CA2FD3
:104E100040911717509118176091191770911A1730
:104E20008AE993E00E94CA2F40911B1750911C17EA
:104E300060911D1770911E1787E993E00E94CA2F99
:104E400040911F17509120176091211770912217E0
:104E500084E993E00E94CA2FE6EBF2E08191882377
:104E600039F09091C00095FFFCCF8093C600F6CF3B
:104E7000FE018491E1EFF3E0882349F09091C000B6
:104E800095FFFCCF8093C60031968491F5CFE6E77D
:104E9000F3E08491882341F09091C00095FFFCCF0E
:104EA0008093C6003196F5CFE6EBF2E0819188233E
:104EB00039F09091C00095FFFCCF8093C600F6CFEB
:104EC000FE018491E1EFF3E0882349F09091C00066
:104ED00095FFFCCF8093C60031968491F5CF409129
:104EE000F3165091F4166091F5167091F6168DE652
:104EF00093E00E94EC2F4091F7165091F8166091C4
:104F0000F9167091FA168AE693E00E94EC2F409110
:104F1000FB165091FC166091FD167091FE1687E607
:104F200093E00E94EC2F4091FF1650910017609182
:104F300001177091021784E693E00E94EC2FE6EBD4
:104F4000F2E08191882339F09091C00095FFFCCF69
:104F50008093C600F6CFFE018491E1EFF3E0882351
:104F600049F09091C00095FFFCCF8093C600319628
:104F70008491F5CFEFE2F3E08491882341F09091A2
:104F8000C00095FFFCCF8093C6003196F5CFE6EBCD
:104F9000F2E08191882339F09091C00095FFFCCF19
:104FA0008093C600F6CFFE018491E1EFF3E0882301
:104FB00049F09091C00095FFFCCF8093C6003196D8
:104FC0008491F5CF4091EB165091EC166091ED165F
:104FD0007091EE1686E293E0DDD74091E71650918E
:104FE000E8166091E9167091EA1683E293E0D2D751
:104FF000E6EBF2E08191882339F09091C00095FFB3
:10500000FCCF8093C600F6CFFE018491E1EFF3E080
:10501000882349F09091C00095FFFCCF8093C60093
:1050200031968491F5CFE0E7F2E08491882341F056
:105030009091C00095FFFCCF8093C6003196F5CFCC
:10504000E6EBF2E08191882339F09091C00095FF62
:10505000FCCF8093C600F6CFFE018491E1EFF3E030
:10506000882349F09091C00095FFFCCF8093C60043
:1050700031968491F5CF4091EF165091F0166091E2
:10508000F1167091F21687E692E084D74091D71618
:105090005091D8166091D9167091DA1684E692E094
:1050A00079D740912317509124176091251770915B
:1050B000261781E692E090D74091E3165091E416CE
:1050C0006091E5167091E6168EE592E063D7409107
:1050D000DF165091E0166091E1167091E2168BE5B3
:1050E00092E058D74091DB165091DC166091DD16A6
:1050F0007091DE1688E592E04DD7E6EBF2E0819103
:10510000882339F09091C00095FFFCCF8093C600B2
:10511000F6CFFE018491E1EFF3E0882349F090910E
:10512000C00095FFFCCF8093C60031968491F5CFE7
:10513000E6E4F2E08491882341F09091C00095FF6D
:10514000FCCF8093C6003196F5CFE6EBF2E081917B
:10515000882339F09091C00095FFFCCF8093C60062
:10516000F6CFFE018491E1EFF3E0882349F09091BE
:10517000C00095FFFCCF8093C60031968491F5CF97
:105180004091EC075091ED076091EE077091EF07A9
:105190008DE392E0FFD64091F0075091F1076091C6
:1051A000F2077091F3078AE392E0F4D64091F40796
:1051B0005091F5076091F6077091F70787E392E049
:1051C000E9D6E6EBF2E08191882339F09091C000B6
:1051D00095FFFCCF8093C600F6CFFE018491E1EFEE
:1051E000F3E0882349F09091C00095FFFCCF8093B5
:1051F000C60031968491F5CFE1E2F2E084918823F4
:1052000041F09091C00095FFFCCF8093C60031968D
:10521000F5CFE6EBF2E08191882339F09091C00060
:1052200095FFFCCF8093C600F6CFFE018491E1EF9D
:10523000F3E0882349F09091C00095FFFCCF809364
:10524000C60031968491F5CF8091370C9091380C3F
:105250000CE310E0B8010E9432DFAB0160E070E0C7
:1052600089E192E0B9D68091370C9091380CB80161
:105270000E9432DFAC0160E070E08EE092E0ACD6DC
:1052800040E050E060E270E485E092E083D648E8D8
:1052900053E160E070E089EF91E09ED640918B0C85
:1052A00050E060E070E08AEE91E096D6FE018491D5
:1052B000E1EFF3E0882349F09091C00095FFFCCF27
:1052C0008093C60031968491F5CFECEDF1E08491A6
:1052D000882341F09091C00095FFFCCF8093C600D9
:1052E0003196F5CFE6EBF2E08191882339F0909189
:1052F000C00095FFFCCF8093C600F6CFFE01C4919D
:10530000E1EFF3E0CC2349F08091C00085FFFCCFB2
:10531000C093C6003196C491F5CF40915B02509185
:105320005C0260915D0270915E0282ED91E032D686
:1053300060915702709158028091590290915A02DF
:105340000E940B95AB01BC018FEC91E023D66091DC
:1053500053027091540280915502909156020E941E
:105360001795AB01BC018CEC91E014D6E6EBF2E0B2
:105370008191882339F09091C00095FFFCCF8093F4
:10538000C600F6CFDF91CF911F910F910895AF9294
:10539000BF92CF92DF92EF92FF920F931F93CF9322
:1053A000DF93CDB7DEB7E0970FB6F894DEBF0FBE40
:1053B000CDBF80E1E6E8F2E0DE01919601900D922A
:1053C0008A95E1F780E1E6E9F2E0DE01519601908D
:1053D0000D928A95E1F780E1E6EAF2E0DE011196AE
:1053E00001900D928A95E1F76E0181E2C80ED11C01
:1053F00083E0E82E87E1F82E8E010F5E1F4F63E1F8
:1054000077E1AE014F5F5F4F93EFA92E96E1B92E82
:1054100020E030E0F60181919191A191B1916F016D
:10542000F70181939193A193B1937F01F801819149
:105430009191A191B1918F01FB0181939193A193DE
:10544000B193BF01FA0181919191A191B191AF0105
:10545000F50181939193A193B1935F012F5F3F4F2A
:1054600024303105B9F60E940D8080E090E0AAEF6B
:10547000B4E48093EB169093EC16A093ED16B093E2
:10548000EE168093E7169093E816A093E916B09372
:10549000EA161092EF161092F0161092F116109272
:1054A000F21680E29EE4A0E0B0E080932317909390
:1054B0002417A0932517B09326171092D716109291
:1054C000D8161092D9161092DA1680E090E0A0EA71
:1054D000B1E48093E3169093E416A093E516B0939D
:1054E000E6168DEC9CECACECBEE38093DF1690935B
:1054F000E016A093E116B093E21680E090E0A0EAF7
:10550000B0E48093DB169093DC16A093DD16B09385
:10551000DE161092F4071092F5071092F60710921B
:10552000F7071092F0071092F1071092F20710920D
:10553000F3071092EC071092ED071092EE0710920D
:10554000EF0784EB90E090935B1A80935A1A86E4FD
:1055500090E09093591A8093581A8FEF90E09093AF
:10556000571A8093561A20EF30E03093551A209343
:10557000541A24E630E03093531A2093521A909331
:10558000511A8093501A80E290E090934E188093C5
:105590004D188AE999E9A1EBB1E480935B029093FD
:1055A0005C02A0935D02B0935E0261E77DE38AE84E
:1055B0009FE30E9405956093570270935802809371
:1055C000590290935A0260E070E084EE92E40E94E7
:1055D00011956093530270935402809355029093F7
:1055E00056020E94CD8B80E090E0A0E8BFE380935C
:1055F0004F0290935002A0935102B093520283E065
:1056000080938B0CE1EFF3E08491882341F090913B
:10561000C00095FFFCCF8093C6003196F5CFE0E93E
:10562000F1E08491882341F09091C00095FFFCCF78
:105630008093C6003196F5CFE6EBF2E081918823A6
:1056400039F09091C00095FFFCCF8093C600F6CF53
:10565000E0960FB6F894DEBF0FBECDBFDF91CF91BD
:105660001F910F91FF90EF90DF90CF90BF90AF9080
:105670000895CF93DF93CDB7DEB72A970FB6F8948E
:10568000DEBF0FBECDBF84E690E09A87898786E5AE
:1056900091E3A0E3B0E089839A83AB83BC8344E0C9
:1056A000BE016B5F7F4FCE010996E0D943E050E029
:1056B000BE016B5F7F4FCE0101960E94C7E2892B2E
:1056C00009F0BAC040E163E077E1CE010996CED996
:1056D00040E163E177E1CE010996C8D940E163EF8B
:1056E00076E1CE010996C2D90E940D8044E06BEEAE
:1056F00076E1CE010996BAD944E067EE76E1CE01B3
:105700000996B4D944E06FEE76E1CE010996AED9A0
:1057100044E067ED76E1CE010996A8D944E063E262
:1057200077E1CE010996A2D944E063EE76E1CE019D
:1057300009969CD944E06FED76E1CE01099696D9A1
:1057400044E06BED76E1CE01099690D94CE06CEE29
:1057500077E0CE0109968AD942E067E37CE0CE018A
:10576000099684D941E06BE87CE0CE0109967ED9A8
:1057700042E06AE57AE1CE01099678D942E068E52F
:105780007AE1CE01099672D942E066E57AE1CE016E
:1057900009966CD942E064E57AE1CE01099666D9B2
:1057A00042E062E57AE1CE01099660D942E060E527
:1057B0007AE1CE0109965AD944E06BE572E0CE0158
:1057C000099654D944E067E572E0CE0109964ED9B6
:1057D00044E063E572E0CE01099648D942E06DE409
:1057E00078E1CE01099642D90E94CD8BE1EFF3E03A
:1057F0008491882341F09091C00095FFFCCF809365
:10580000C6003196F5CFE2EBF1E08491882341F0B8
:105810009091C00095FFFCCF8093C6003196F5CFE4
:10582000E6EBF2E08191882341F09091C00095FF72
:10583000FCCF8093C600F6CFAADD2FDA2A960FB6EA
:10584000F894DEBF0FBECDBFDF91CF9108951F92B8
:105850000F920FB60F9211240BB60F922F933F9316
:105860004F935F936F938F939F93EF93FF93609109
:10587000C6002091050630910606C90101968F7772
:10588000992740910706509108068417950741F023
:10589000F901EB57FA4F6083909306068093050653
:1058A000FF91EF919F918F916F915F914F913F91F8
:1058B0002F910F900BBE0F900FBE0F901F90189559
:1058C0009A01AB01211581EE38074105510549F1D7
:1058D00082E08093C00060E079E08DE390E00E9478
:1058E0007BDF2150310941095109CA01B90122E088
:1058F00030E040E050E00E947BDF3093C500209311
:10590000C4008091C10080618093C1008091C1007A
:1059100088608093C1008091C10080688093C1003D
:1059200008951092C00020E130E0E7CF20910706F3
:10593000309108068091050690910606821793071C
:1059400071F0F901EB57FA4F80812F5F3F4F2F77AE
:105950003327309308062093070690E008958FEFD1
:105960009FEF089580910706909108069093060690
:105970008093050608954F925F926F927F928F9267
:105980009F92AF92BF92CF92DF92EF92FF920F93CE
:105990001F93CF93DF93CDB7DEB7A0970FB6F894E0
:1059A000DEBF0FBECDBF5C0141155105610571051C
:1059B000E9F420E030E040E350E060E070E0A096E1
:1059C0000FB6F894DEBF0FBECDBFDF91CF911F9110
:1059D0000F91FF90EF90DF90CF90BF90AF909F908E
:1059E0008F907F906F905F904F905BC08E010F5FA4
:1059F0001F4FC12CD12C76014801422E512C612C15
:105A0000712C8FEFC81AD80AE80AF80ACB01BA013C
:105A1000A30192010E9459DFCA01F80161938F012D
:105A2000A901BC01411551056105710551F7F1E06E
:105A3000CF1AD108E108F108F401EC0DFD1D8081B9
:105A40008A3010F440E301C047E3480F552747FD73
:105A50005095652F752F20E030E0C50122D081E000
:105A6000C81AD108E108F108EFEFCE16DE06EE06FF
:105A7000FE0611F7A0960FB6F894DEBF0FBECDBF9D
:105A8000DF91CF911F910F91FF90EF90DF90CF901A
:105A9000BF90AF909F908F907F906F905F904F904E
:105AA00008952115310539F48091C00085FFFCCFA0
:105AB0004093C60008952A30310509F41CC05BCF1D
:105AC000CF93DF93EC0120E030E04DE050E060E068
:105AD00070E0E7DF20E030E04AE050E060E070E0B6
