:100000000C944D250C947E250C947E250C947E2515
:100010000C947E250C947E250C947E250C947E25D4
:100020000C947E250C947E250C947E250C947E25C4
:100030000C947E250C94BED70C947E250C947E25C2
:100040000C947E250C941D820C947E250C947E25A8
:100050000C947E250C947E250C9485930C942BD8BF
:100060000C947E250C94302D0C947E250C947E25CA
:100070000C947E250C947E250C947E250C947E2574
:100080000C947E250C947E250C947E250C947E2564
:100090000C947E250C947E250C947E250C947E2554
:1000A0000C947E250C947E250C947E250C947E2544
:1000B0000C947E250C947E250C947E250C947E2534
:1000C0000C947E250C947E250C947E250C947E2524
:1000D0000C947E250C947E250C947E250C947E2514
:1000E0000C947E25CE93DD93F99308942294319459
:1000F0004B944F94519460947A9489944ED953D9E7
:1001000058D962D96CD9E5D976D97ED986D990D912
:100110009AD9A4D9B3D9BDD9E5D9C7D9D1D9DBD911
:1001200006DA09DAF8D9FCD902DA40DA0DDA11DA9E
:1001300017DA1BDA1FDA25DA29DA2DDA40DA33DAB0
:1001400037DA3BDA084AD73B3BCE016E84BCBFFDB1
:10015000C12F3D6C74319ABD56833DDA3D00C77F97
:1001600011BED9E4BB4C3E916BAAAABE0000008030
:100170003F05A84CCDB2D44EB93836A9020C50B9BF
:10018000918688083CA6AAAA2ABE000000803F00EB
:1001900048617264636F6465642044656661756C70
:1001A000742053657474696E6773204C6F61646565
:1001B000640053746F7265642073657474696E674C
:1001C000732072657472696576656400204400204E
:1001D00049002020204D3330312050005049442028
:1001E00073657474696E67733A00204A7465636856
:1001F0002D50686F742043757272656E744C696D12
:1002000069742056616C75653A2000204D696E75E1
:100210007465733A200020486F7572733A20004C61
:1002200061736572206C69666574696D65207573AC
:100230006167653A00205A0020590020204D323075
:1002400036205800486F6D65206F666673657420B0
:10025000286D6D293A00204500205A0020580020C2
:10026000420020540020204D32303520530041649C
:1002700076616E636564207661726961626C657334
:100280003A20533D4D696E20666565647261746500
:1002900020286D6D2F73292C20543D4D696E2074DC
:1002A000726176656C20666565647261746520288C
:1002B0006D6D2F73292C20423D6D696E696D756DD2
:1002C000207365676D656E742074696D6520286D97
:1002D00073292C20583D6D6178696D756D205859D2
:1002E000206A65726B20286D6D2F73292C20205A8F
:1002F0003D6D6178696D756D205A206A65726B205D
:10030000286D6D2F73292C2020453D6D6178696D16
:10031000756D2045206A65726B20286D6D2F7329DD
:100320000020540020204D323034205300416363BC
:10033000656C65726174696F6E3A20533D616363E9
:10034000656C65726174696F6E2C20543D726574C2
:100350007261637420616363656C65726174696F57
:100360006E00204500205A0020590020204D3230D8
:10037000312058004D6178696D756D20416363656A
:100380006C65726174696F6E20286D6D2F733229F0
:100390003A00204500205A0020590020204D3230DC
:1003A000332058004D6178696D756D206665656410
:1003B000726174657320286D6D2F73293A00204592
:1003C00000205A0020590020204D39322058005377
:1003D000746570732070657220756E69743A00538D
:1003E000657474696E67732053746F726564006519
:1003F00063686F3A0053544F505045442E200050CC
:1004000072696E7465722073746F707065642064B5
:10041000756520746F206572726F72732E20466945
:100420007820746865206572726F7220616E642036
:10043000757365204D39393920746F207265737476
:100440006172742E202854656D70657261747572C6
:10045000652069732072657365742E20536574205E
:100460006974206166746572207265737461727458
:10047000696E6729004B494C4C45442E2000507250
:10048000696E7465722068616C7465642E206B6996
:100490006C6C28292063616C6C656421006F6B00B3
:1004A000526573656E643A20002200556E6B6E6F64
:1004B000776E20636F6D6D616E643A2022006C630D
:1004C0006420636F6E74726173742076616C7565FD
:1004D0003A20007A5F6D696E3A2000795F6D696E2F
:1004E0003A2000785F6D696E3A20005A3A00593A16
:1004F0000020436F756E7420583A2000453A005A28
:100500003A00593A00583A004649524D574152452F
:100510005F4E414D453A4D61726C696E2056313BDC
:1005200020537072696E7465722F6772626C206DF1
:10053000617368757020666F722067656E3620463D
:1005400049524D574152455F55524C3A6874747048
:100550003A2F2F7777772E6D656E64656C2D7061FD
:100560007274732E636F6D2050524F544F434F4C33
:100570005F56455253494F4E3A312E30204D41433C
:1005800048494E455F545950453A4C617365722055
:100590004375747465722045585452554445525FF2
:1005A000434F554E543A310A004C617365722043F3
:1005B0007574746572204F66662E004C61736572A7
:1005C000204375747465722052656164792E00420F
:1005D000656420646F6E652E0020423A0020453A23
:1005E00000543A004265642048656174696E672E64
:1005F0000048656174696E6720646F6E652E002027
:10060000573A0020453A00543A0048656174696ED3
:10061000672E2E2E002042403A0020403A00202F24
:10062000003A00205400202F0020423A00202F00E2
:100630006F6B20543A002569206D696E2C20256966
:100640002073656300456E642066696C65206C6983
:10065000737400426567696E2066696C65206C6919
:100660007374004E6F206D6F76652E005265737542
:100670006D696E67207072696E74005761697420CD
:10068000666F7220757365722E2E2E00536C656531
:10069000702E2E2E00256920686F757273202569D3
:1006A000206D696E7574657300446F6E652070729D
:1006B000696E74696E672066696C650053544F50AB
:1006C0005045442E20005072696E74657220737418
:1006D0006F707065642064756520746F2065727238
:1006E0006F72732E20466978207468652065727277
:1006F0006F7220616E6420757365204D3939392021
:10070000746F20726573746172742E202854656D45
:1007100070657261747572652069732072657365A6
:10072000742E20536574206974206166746572208C
:1007300072657374617274696E6729006F6B004E25
:100740006F204C696E65204E756D62657220776909
:10075000746820636865636B73756D2C204C6173DE
:1007600074204C696E653A20004E6F2043686563C3
:100770006B73756D2077697468206C696E65206E87
:10078000756D6265722C204C617374204C696E65C6
:100790003A2000636865636B73756D206D69736DD6
:1007A000617463682C204C617374204C696E653AE7
:1007B00020004C696E65204E756D6265722069730C
:1007C000206E6F74204C617374204C696E65204EEE
:1007D000756D6265722B312C204C617374204C69ED
:1007E0006E653A20004D3131300047370047370001
:1007F000473700473700446F6E6520736176696E36
:10080000672066696C652E006F6B004D32390020E1
:1008100020506C616E6E65724275666665724279D3
:100820007465733A20002046726565204D656D6FD2
:1008300072793A20004D61722020332032303136F7
:1008400000436F6D70696C65643A2000286E6F6EAE
:10085000652C2064656661756C7420636F6E6669D3
:10086000672900207C20417574686F723A20004D22
:10087000617220203320323031362031383A31391C
:100880003A353500204C617374205570646174658D
:10089000643A200056657220312E302E30004D61B2
:1008A000726C696E200020536F66747761726520E8
:1008B000526573657400205761746368646F6720C4
:1008C0005265736574002042726F776E206F757485
:1008D000205265736574002045787465726E616C92
:1008E00020526573657400506F77657255700073A0
:1008F00074617274002200656E717565696E67209F
:1009000022002200656E717565696E67202200FF06
:10091000FFFF0000A0400000A0400000803F00C09A
:10092000044400800B440000BE42000000000000B0
:1009300000000000000000C0044400800B440000E0
:10094000BE420000000000000000000000006563DF
:10095000686F3A004572726F723A007C3C3E5E2BC3
:100960003D3F2F5B5D3B2C2A225C004D38342058E4
:100970002059205A20450043616E6E6F7420656EC9
:10098000746572207375626469723A20004D323466
:10099000004D3233202573006175746F25692E6711
:1009A000006572726F722077726974696E67207465
:1009B0006F2066696C65004E6F742053442070721E
:1009C000696E74696E67002F005344207072696EFF
:1009D00074696E67206279746520002E0044656C2E
:1009E0006574696F6E206661696C65642C20466968
:1009F0006C653A200046696C652064656C657465B9
:100A0000643A002E006F70656E206661696C6564E3
:100A10002C2046696C653A200057726974696E67CC
:100A200020746F2066696C653A20002E006F706537
:100A30006E206661696C65642C2046696C653A209D
:100A4000002E006F70656E206661696C65642C20F5
:100A500046696C653A200046696C652073656C6573
:100A600063746564002053697A653A200046696CB6
:100A700065206F70656E65643A20002E006F7065AA
:100A80006E206661696C65642C2046696C653A204D
:100A90000053442063617264206F6B006F70656E59
:100AA000526F6F74206661696C656400766F6C7557
:100AB0006D652E696E6974206661696C65640053AA
:100AC0004420696E6974206661696C006563686FB3
:100AD0003A004572726F723A004C6173657220661B
:100AE0006972696E6720656E61626C65640065633A
:100AF000686F3A00506978656C3A20004C3A2000E3
:100B0000593A2000583A2000656E6473746F707310
:100B1000206869743A205A00205A3A00656E64735E
:100B2000746F7073206869743A20590020593A0034
:100B3000656E6473746F7073206869743A2058002E
:100B400020583A00656E6473746F7073206869741E
:100B50003A200024F4D43050C38E20C2A240178221
:100B60008B7011127A910D816CD90AA861E108C7C6
:100B7000586607615143061E4B5D05C145A7041A1F
:100B8000411104093D9803713931034036DB026598
:100B9000339102D4305402802E1D02632CEE017575
:100BA0002AC501B028A001102781018F2564012BDF
:100BB000244B01E0223401AC211F018D200D018066
:100BC0001FFC00841EED00971DDF00B81CD200E65C
:100BD0001BC600201BBC00641AB200B219A8000A90
:100BE00019A0006A189900D117910040178B00B521
:100BF00016840031167E00B31579003A157300C7CC
:100C0000146F0058146A00EE136600881363002501
:100C1000135E00C7125B006C12570015125400C11E
:100C200011510070114F0021114B00D61049008D59
:100C30001047004610440002104200C00F400080E0
:100C40000F3E00420F3C00060F3B00CB0E380093D6
:100C50000E37005C0E3500270E3400F30D3200C154
:100C60000D3100900D3000600D2E00320D2D00056D
:100C70000D2C00D90C2B00AE0C2900850C29005C32
:100C80000C2700350C27000E0C2600E80B2400C4AE
:100C90000B2400A00B23007D0B23005A0B210039ED
:100CA0000B2100180B2000F80A1F00D90A1E00BBF8
:100CB0000A1E009D0A1D00800A1D00630A1C0047D1
:100CC0000A1B002C0A1B00110A1A00F7091A00DD82
:100CD000091900C4091900AB091900920917007B12
:100CE000091800630917004C091600360916002080
:100CF0000916000A091500F5081500E0081400CCD3
:100D0000081400B8081400A4081400900813007D0B
:100D10000812006B0813005808120046081200342D
:100D2000081100230811001208110001081100F039
:100D3000071000E0071000D0071000C0071000B037
:100D4000070F00A107100091070E0083070F007422
:100D5000070F0065070E0057070E0049070E003BFE
:100D6000070D002E070E0020070D0013070D0006CB
:100D7000070D00F9060C00ED060D00E0060C00D48E
:100D8000060C00C8060C00BC060C00B0060C00A443
:100D9000060B0099060C008D060B0082060B0077EF
:100DA000060B006C060B0061060A0057060B004C90
:100DB000060A0042060A0038060A002E060A002427
:100DC000060A001A060A001006090007060A00FDB6
:100DD000050900F4050900EB050900E2050900D941
:100DE000050900D0050900C7050900BE050900B5C1
:100DF000050800AD050800A50509009C050800943C
:100E00000508008C050800840508007C05080074AE
:100E10000508006C050700650508005D050700561C
:100E20000508004E05070047050700400508003883
:100E3000050700310507002A050700230507001CE8
:100E4000050600160507000F050700080506000245
:100E5000050700FB040600F5040700EE040600E8A1
:100E6000040600E2040700DB040600D5040600CFF8
:100E7000040600C9040600C3040600BD040600B74A
:100E8000040600B1040500AC040600A6040600A098
:100E90000405009B04060095040500900406008AE2
:100EA00004050085040500800406007A0405007529
:100EB000040500700405006B04050066040500616C
:100EC0000405005C04050057040500520405004DAC
:100ED00004050048040500430405003E0404003AEC
:100EE00004050035040500300404002C0405002727
:100EF000040400230405001E0404001A0404001660
:100F0000040500110404000D040400090405000494
:100F100004040000040400FC030400F8030400F4CB
:100F2000030400F0030400EC030400E8030400E4FD
:100F3000030400E0030400DC030400D8030400D42D
:100F4000030400D0030400CC030400C8030300C55D
:100F500003030024F404D9201BC40C5C0E9804C4C1
:100F6000095F0265077101F405F900FB04B300484D
:100F7000048700C10369005803550003034500BE00
:100F8000023A008402310053022A0029022500049B
:100F9000022000E4011C00C8011900AF01170098ED
:100FA000011400840113007101100061011000514F
:100FB000010E0043010D0036010B002B010B002038
:100FC000010B00150109000C01090003010800FBD9
:100FD000000800F3000800EB000700E4000600DE54
:100FE000000600D8000600D2000600CC000500C7AD
:100FF000000500C2000500BD000400B9000400B5F2
:10100000000400B1000400AD000400A9000400A524
:10101000000300A20003009F0004009B000300984F
:101020000003009500020093000300900003008D70
:101030000002008B0003008800020086000200848A
:10104000000300810002007F0002007D0002007B9F
:1010500000020079000200770001007600020074AF
:1010600000020072000100710002006F0002006DBA
:101070000001006C0002006A0001006900020067C4
:1010800000010066000100650001006400020062CA
:1010900000010061000100600001005F0002005DCE
:1010A0000001005C0001005B0001005A00010059D2
:1010B00000010058000100570001005600010055D2
:1010C00000010054000100530000005300010052D1
:1010D00000010051000100500001004F0001004ECE
:1010E0000000004E0001004D0001004C0001004BCB
:1010F0000000004B0001004A0001004900010048C7
:1011000000000048000100470001004600000046C2
:1011100000010045000000450001004400010043BB
:1011200000000043000100420000004200010041B5
:1011300000000041000100400001003F0000003FAE
:101140000001003E0000003E0001003D0000003DA7
:101150000001003C0000003C0000003C0001003B9E
:101160000000003B0001003A0000003A0001003995
:10117000000000390001003800000038000000388D
:101180000001003700000037000100360000003683
:101190000000003600010035000000350000003579
:1011A000000100340000003400000034000100336E
:1011B0000000003300000033000100320000003264
:1011C0000000003200010031000000310000003159
:1011D0000001003000000030000000300001002F4E
:1011E0000000002F0000002F0000002F0001002E43
:1011F0000000002E0000002E0001002D0000002D38
:101200000000002D0000002D0001002C0000002C2B
:101210000000002C0000002C0001002B0000002B1F
:101220000000002B0000002B0001002A0000002A13
:101230000000002A0000002A000100290000002907
:1012400000000029000000290000002900010028FA
:1012500000000028000000280000002800000028EE
:1012600000010027000000270000002700000027E1
:1012700000000027000100260000002600000026D4
:1012800000000026000000260001002500000025C7
:1012900000000025000000250000002500000025BA
:1012A00000010024000000240000002400000024AD
:1012B00000000024000100230000002300000023A0
:1012C0000000002300000023000000230000002392
:1012D0000001002200000022000000220000002285
:1012E0000000002200000022000100210000002177
:1012F000000000210000002100000021000000216A
:10130000000000210001002000000020000000205B
:10131000000000200000002000000020000000204D
:10132000000000200001001F0000001F0000001F3F
:101330000000001F0000001F0000001F0000001F31
:101340000001001E0000001E0000001E0000001E24
:101350000000006563686F3A004572723A204D499B
:101360004E54454D50003A2045787472756465724C
:10137000207377697463686564206F66662E204DFC
:10138000494E54454D5020747269676765726564B3
:101390002021004572723A204D415854454D50006D
:1013A0003A20457874727564657220737769746346
:1013B000686564206F66662E204D415854454D5037
:1013C00020747269676765726564202100202D2092
:1013D000496E76616C6964206578747275646572B3
:1013E000206E756D62657220210050494420417560
:1013F000746F74756E652066696E697368656421C3
:101400002050757420746865204B702C204B692027
:10141000616E64204B6420636F6E7374616E7473CD
:1014200020696E746F20436F6E66696775726174B0
:10143000696F6E2E6800504944204175746F747551
:101440006E65206661696C6564212074696D656FE5
:1014500075740020403A006F6B20543A006F6B2087
:10146000423A00504944204175746F74756E65208E
:101470006661696C6564212054656D706572617484
:1014800075726520746F6F206869676800204B640F
:101490003A2000204B693A2000204B703A2000206F
:1014A000436C617369632050494420002054753AAD
:1014B0002000204B753A2000206D61783A200020F2
:1014C0006D696E3A200020643A20002062696173E1
:1014D0003A20004572726F723A0070012C0190013F
:1014E0002701B0012201C0011D01F0011801100205
:1014F000130130020E016002090190020401C002D2
:10150000FF000003FA004003F5008003F000D00361
:10151000EB002004E6007004E100E004DC0040057C
:10152000D700C005D2004006CD00D006C800800715
:10153000C3003008BE00F008B900C009B400B00A0A
:10154000AF00B00BAA00D00CA500000EA000500FF9
:101550009B00C01096005012910000148C00C01522
:101560008700B0178200B0197D00D01B7800001EE4
:10157000730040206E0090226900F0246400402730
:101580005F0090295A00E02B5500102E50002030AB
:101590004B0010324600E033410090353C001037DC
:1015A000370070383200A0392D00B03A2800A03B37
:1015B0002300603C1E00103D1900903D1400103EB9
:1015C0000F00703E0A00C03E0500003F000043616E
:1015D00072642072656D6F76656400436172642089
:1015E000696E7365727465640059002D2D3A2D2D56
:1015F00000B0002D2D2E2D76002D2D2E2D41002DED
:101600002D2D25007600410025004730205A2573F6
:10161000204631353000473238205A2046313530A7
:1016200000437573746F6D00437573746F6D00378D
:101630006D6D00366D6D202D20312F34696E0035B3
:101640006D6D00346D6D00336D6D202D20312F38A0
:10165000696E00326D6D00316D6D004C61736572A5
:101660002046756E6374696F6E73004D3830005795
:1016700061726D2D7570204C6173657220327365D7
:10168000630031303025203130306D73003130301F
:1016900025202035306D7300203230252031303048
:1016A0006D730020323025202035306D73004C6181
:1016B0007365722046756E6374696F6E730054654E
:1016C000737420466972650053657420466F6375B4
:1016D00073004D61696E00537065656400537065F9
:1016E0006564004D61696E00580059005A004578E4
:1016F0007472756465720045787472756465720001
:101700004D6F7665205A004D6F76652059004D6FFC
:1017100076652058004D6F76652041786973004DDD
:101720006F766520302E316D6D004D6F76652031FE
:101730006D6D004D6F76652031306D6D00507265B6
:1017400070617265004D6F76652041786973004D58
:1017500038300053776974636820506F7765722062
:101760004F6E004D38310053776974636820506FB5
:10177000776572204F66660047393220583020590D
:1017800030205A3000536574204F726967696E00CB
:1017900047323820582059204632303030004175C9
:1017A000746F20486F6D65004D313700456E616282
:1017B0006C65205374657070657273004D38340029
:1017C00044697361626C65205374657070657273EF
:1017D000004D61696E004573746570732F6D6D0007
:1017E0004573746570732F6D6D005A7374657073F3
:1017F0002F6D6D005A73746570732F6D6D00597382
:10180000746570732F6D6D005973746570732F6DEF
:101810006D005873746570732F6D6D005873746527
:1018200070732F6D6D00412D726574726163740069
:10183000412D7265747261637400416D6178206539
:1018400000416D6178206500416D6178207A00412A
:101850006D6178207A00416D6178207900416D6179
:1018600078207900416D6178207800416D617820A1
:1018700078005654726176206D696E00565472611C
:1018800076206D696E00566D696E00566D696E004A
:10189000566D6178206500566D6178206500566D43
:1018A0006178207A00566D6178207A00566D6178F3
:1018B000207900566D6178207900566D6178207826
:1018C00000566D617820780056652D6A65726B0050
:1018D00056652D6A65726B00567A2D6A65726B00CB
:1018E000567A2D6A65726B005678792D6A65726B2F
:1018F000005678792D6A65726B00416363656C00F0
:10190000416363656C00436F6E74726F6C00436F6C
:101910006E747261737400526573746F72652046E1
:1019200061696C73616665004C6F6164206D656D03
:101930006F72790053746F7265206D656D6F727987
:10194000004C434420636F6E7472617374004D6F7A
:1019500074696F6E004D61696E004D3834205820F7
:1019600059205A2045004D3234004D323320257322
:1019700000F92E2E004D61696E004E6F204361729A
:1019800064005072696E742066726F6D205344005B
:1019900053746F70205072696E7400526573756D68
:1019A00065205072696E74005061757365205072C5
:1019B000696E7400436F6E74726F6C005072657064
:1019C0006172650054756E65004C617365722046E6
:1019D000756E6374696F6E7300496E666F20736312
:1019E0007265656E00FFF08F108F109F909F908042
:1019F00010801080108010801080108010FFF0FF89
:101A0000F08F108F109F909F90801086108610C6C8
:101A100030A6509690AF50FFF000060900FE070177
:101A200099032B20FFFE08FE07FE000000060000C1
:101A30000107070602008080808080008003030386
:101A4000060104A0A0A00507070600005050F850AA
:101A5000F850500507070600002070A0702870207D
:101A600005070706000048A8502050A89005070762
:101A700006000040A0A040A89068010303060204ED
:101A8000808080030707060100204080808040207E
:101A9000030707060100804020202040800505053F
:101AA0000600018850F85088050505060001202031
:101AB000F820200303030601FF60408005010106B2
:101AC0000003F80303030601FF40E0400507070693
:101AD000000008081020408080050707060000204D
:101AE0005088888850200507070600002060A02045
:101AF0002020F8050707060000708808304080F8AD
:101B0000050707060000F808103008887005070769
:101B100006000010305090F810100507070600006E
:101B2000F880B0C8088870050707060000304080BC
:101B3000B0C88870050707060000F808101020409C
:101B400040050707060000708888708888700507C0
:101B500007060000708898680810600307070601F0
:101B6000FF40E0400040E0400307070601FF40E07F
:101B700040006040800407070601001020408040BC
:101B80002010050303060002F800F8040707060109
:101B90000080402010204080050707060000708864
:101BA0001020200020050707060000708898A8B0C4
:101BB000807005070706000020508888F88888058F
:101BC0000707060000F04848704848F00507070678
:101BD000000070888080808870050707060000F08C
:101BE0004848484848F0050707060000F88080F09C
:101BF0008080F8050707060000F88080F08080806C
:101C00000507070600007088808098887005070720
:101C1000060000888888F88888880307070601007E
:101C2000E04040404040E005070706000038101043
:101C3000101090600507070600008890A0C0A090D3
:101C400088050707060000808080808080F80507EF
:101C5000070600008888D8A8888888050707060036
:101C6000008888C8A898888805070706000070883B
:101C70008888888870050707060000F08888F0804B
:101C800080800508080600FF7088888888A870088A
:101C9000050707060000F08888F0A0908805070770
:101CA000060000708880700888700507070600002D
:101CB000F8202020202020050707060000888888BB
:101CC000888888700507070600008888885050506B
:101CD00020050707060000888888A8A8D888050777
:101CE00007060000888850205088880507070600EE
:101CF0000088885020202020050707060000F808EB
:101D000010204080F8030707060100E080808080F3
:101D100080E00507070600008080402010080803C7
:101D20000707060100E02020202020E0050303062D
:101D300000042050880501010600FFF80202020697
:101D400002068040050505060000700878887805C1
:101D500007070600008080B0C888C8B005050506E2
:101D60000000708880887005070706000008086872
:101D7000988898680505050600007088F880700549
:101D80000707060000304840F040404005070706BE
:101D900000FE7888887808887005070706000080AC
:101DA00080B0C88888880307070601004000C0404B
:101DB0004040E00409090601FE10003010101090A8
:101DC000906005070706000080808890E0908803F7
:101DD0000707060100C04040404040E005050506F9
:101DE0000000D0A8A8A888050505060000B0C8888E
:101DF0008888050505060000708888887005070733
:101E00000600FEB0C888C8B080800507070600FE3F
:101E100068988898680808050505060000B0C8801D
:101E2000808005050506000070807008F005070732
:101E30000600004040F0404048300505050600001F
:101E40008888889868050505060000888850502015
:101E50000505050600008888A8A8500505050600A8
:101E60000088502050880507070600FE888898687B
:101E7000088870050505060000F8102040F80407E2
:101E800007060100304020C020403001070706024D
:101E90000080808080808080040707060100C020C9
:101EA00040304020C005030306000448A89000000D
:101EB000000100000000000100000000000100001F
:101EC000000000010000000000010000000000010F
:101ED0000000000000010000000000010000000000
:101EE00000010000000000010000000000010000EF
:101EF00000000001000000000001000000000001DF
:101F000000000000000100000000000100000000CF
:101F100000010000000000010000000000010000BE
:101F200000000001000000000001000000000001AE
:101F3000000000000001000000000001000000009F
:101F4000000100000000000100000000000100008E
:101F5000000000010000000000010000000000017E
:101F6000000000000001000000000001000000006F
:101F70000001000000000006000001070706020043
:101F8000800080808080800507070600FF2078A001
:101F9000A0A07820050707060000304840E0404830
:101FA000B005050506000088705070880508080611
:101FB00000FF88885020F820202001070706020033
:101FC000808080008080800508080600FF7080E027
:101FD0009048380870030101060107A005070706AD
:101FE00000007088A8C8A888700406060601017061
:101FF00090B05000F00605050600002448904824E3
:10200000040202060102F010040101060103F005BA
:1020100007070600007088E8C8C888700501010637
:102020000007F803030306010440A0400506060666
:1020300000002020F82020F8040505060103609028
:102040002040F0040505060103E0106010E00202E4
:102050000206020640800506060600FF888888C83A
:10206000B08005070706000078E8E86828282801FE
:102070000101060203800202020602FE40800305FF
:102080000506010340C04040E00406060601016069
:1020900090906000F00605050600009048244890E6
:1020A0000609090600FF40C04040E40C143C040649
:1020B00009090600FF40C04040E81404081C050957
:1020C000090600FFC0204020C81828780805070727
:1020D0000600002000202040887005080806000047
:1020E0004020708888F888880508080600001020BD
:1020F000708888F8888805080806000020507088D5
:1021000088F8888805080806000048B0708888F8B4
:1021100088880508080600005000708888F88888BC
:102120000508080600002050708888F8888806078F
:10213000070600003C50909CF0909C0509090600A1
:10214000FE708880808088702040050808060000A6
:1021500040F88080F08080F805080806000010F83C
:102160008080F08080F805080806000020F8808054
:10217000F08080F805080806000050F88080F080A4
:1021800080F80308080601008040E040404040E03D
:102190000308080601002040E040404040E00308FA
:1021A0000806010040A0E040404040E00308080667
:1021B0000100A000E040404040E0050707060000A5
:1021C000F04848E84848F00508080600002850880C
:1021D000C8A89888880508080600004020708888EC
:1021E0008888700508080600001020708888888894
:1021F00070050808060000205070888888887005DF
:10220000080806000028507088888888700508082B
:102210000600005000708888888870050505060053
:10222000008850205088050707060000709898A87D
:10223000C8C870050808060000402088888888887B
:1022400070050808060000102088888888887005B6
:102250000808060000205000888888887005080853
:1022600006000050008888888888700508080600E5
:1022700000102088885020202005070706000080D5
:10228000F088F0808080050707060000708890A025
:102290009088B00508080600004020007008788883
:1022A0007805080806000010200070087888780576
:1022B0000808060000205000700878887805080893
:1022C0000600002850007008788878050707060087
:1022D0000050007008788878050808060000205033
:1022E00020700878887806050506000078147C9030
:1022F0007C0507070600FE7088808870204005086E
:10230000080600004020007088F880700508080664
:1023100000001020007088F8807005080806000092
:102320002050007088F880700507070600005000F4
:102330007088F88070030808060100804000C040E3
:102340004040E0030808060100408000C0404040D3
:10235000E003080806010040A000C0404040E0063D
:102360000A0A0600FEA4A800FC8480808084FC0683
:102370000A0A0600FE549400FC8404040484FC054C
:102380000808060000285000B0C88888880508089A
:102390000600004020007088888870040A0A06023F
:1023A000FE30408090909090909090040A0A060031
:1023B000FEC0201090909090909090060707060025
:1023C00001448C8C8480403C06070706000188C4C9
:1023D000C4840408F00505050600012000F800206B
:1023E00005080806000040F0C8888898781005089D
:1023F00008060000E0F88888888888F80505050642
:1024000000012030F830200508080600002070F890
:1024100020202020E00509090600FF2070A8A8B8A8
:10242000888850200509090600FFE080C0B0A8A8F0
:102430003028280509090600FFF8A88888888888B8
:10244000A8F8050A0A0600FE205050505088A8A897
:10245000887000060900FE06018902FE20FFFE07C3
:10246000FE06FE00000006000701060606020080C8
:102470008080800080030303060103A0A0A005075D
:10248000070600FF5050F850F850500509090600A3
:10249000FE2070A8A07028A870200608080600FF7B
:1024A00040A84810204854080507070600FF609020
:1024B0009060989068010303060203808080020701
:1024C000070602FF408080808080400207070602E6
:1024D000FF804040404040800505050600008850D0
:1024E000F850880505050600002020F82020020489
:1024F000040602FEC0404080050101060002F80209
:102500000202060200C0C0040606060100101020E8
:102510004080800406060601006090909090600361
:10252000060606010040C0404040E00406060601E1
:10253000006090102040F0040606060100F02060C4
:102540001010E005060606000010305090F8100448
:102550000606060100F080E01010E0040606060101
:10256000006080E0909060040606060100F0101004
:1025700020404004060606010060906090906004D0
:1025800006060601006090907010600205050602C4
:1025900000C0C000C0C00207070602FEC0C000C0E5
:1025A000404080050505060000186080601805039E
:1025B00003060001F800F8050505060000C0300814
:1025C00030C004070706010060901060400040051D
:1025D00006060600007090A8B0807005060606008A
:1025E00000205088F88888050606060000F088F06C
:1025F0008888F004060606010060908080906004E0
:102600000606060100E090909090E00406060601A0
:1026100000F080E08080F0040606060100F080E013
:10262000808080040606060100609080B0906004FF
:1026300006060601009090F09090900306060601B1
:1026400000E040404040E00506060600003810105B
:1026500010906004060606010090A0C0A0909004AF
:1026600006060601008080808080F00506060600D0
:102670000088D8A8A8888804060606010090D0B073
:10268000909090050606060000708888888870047F
:102690000606060100E09090E0808004070706012E
:1026A000FF609090D0B06010040606060100E09034
:1026B00090E0909004060606010060904020906033
:1026C000050606060000F820202020200406060645
:1026D0000100909090909060040606060100909092
:1026E00090F060600506060600008888A8A8D888D3
:1026F00005060606000088502020508805060606BC
:102700000000888850202020040606060100F010F2
:10271000204080F0030606060100E080808080E013
:1027200004060606010080804020101003060606FD
:102730000100E020202020E00503030600032050D4
:10274000880501010600FEF802020206020480402C
:10275000040404060100709090700406060601004F
:102760008080E09090E00404040601007080807096
:102770000406060601001010709090700404040610
:10278000010060B0C070040606060100205040E061
:1027900040400406060601FE60909070106004063A
:1027A000060601008080E090909003060606010076
:1027B0004000C04040E00308080601FE2000602001
:1027C0002020A0400406060601008080A0C0A09042
:1027D000030606060100C040404040E00504040630
:1027E0000000D0A8A888040404060100E09090909E
:1027F000040404060100609090600406060601FED1
:10280000E09090E080800406060601FE70909070D3
:102810001010040404060100A0D080800404040603
:10282000010070C030E00406060601004040E040B0
:1028300050200404040601009090907004040406E3
:1028400001009090606005040406000088A8A8506C
:10285000040404060100906060900406060601FE70
:10286000909090709060040404060100F02040F005
:102870000307070601002040408040402001070771
:102880000602FF80808080808080030707060100A9
:102890008040402040408004020206010350A0FF17
:1028A000FFFFFFFFFFFFFFFFFFFFFFFFFFFFFFFF38
:1028B000FFFFFFFFFFFFFFFFFFFFFFFFFFFFFFFF28
:1028C0000000000600070106060602008000808066
:1028D00080800406060601FF2070A0A07020050776
:1028E000070600FF304840F04040F80505050600A7
:1028F00000A8508850A80506060600008850F82059
:10290000F8200107070602FF808080008080800495
:1029100007070601FF708060906010E00301010668
:102920000105A0060707060000788494A494847823
:1029300003050506010160A06000E005050506002D
:10294000002850A05028040303060100F0101004D2
:102950000101060102F00607070600007884B4A40E
:10296000A48478040101060105F0040303060102B2
:102970006090600507070600FF2020F8202000F87F
:1029800003050506010140A02040E00305050601FE
:1029900001C0204020C0020202060204408004055B
:1029A000050601FF9090B0D080050606060000786D
:1029B000E8E86828280101010602028002020206F6
:1029C00002FE408003050506010140C04040E003CF
:1029D000050506010140A04000E0050505060000D0
:1029E000A0502850A00508080600FF40C0405070C5
:1029F0003078100508080600FF40C04050680810F5
:102A0000380508080600FFC0204030F03078100478
:102A10000707060100200020608090600507070678
:102A2000000040202050708888050707060000102D
:102A3000202050708888050707060000205020508D
:102A40007088880507070600002850205070888885
:102A5000050707060000500020507088880507070A
:102A600006000020502050708888050606060000E9
:102A700078A0F0A0A0B80408080601FE609080804D
:102A8000906020400407070601004020F080E080AD
:102A9000F00407070601002040F080E080F0040702
:102AA000070601002050F080E080F00407070601CF
:102AB000005000F080E080F003070706010080402E
:102AC000E0404040E00307070601002040E04040AE
:102AD00040E003070706010040A0E0404040E0035B
:102AE0000707060100A000E0404040E0050606069A
:102AF00000007048E848487004070706010050A02D
:102B000090D0B0909004070706010040206090909C
:102B100090600407070601002040609090906004D8
:102B20000707060100205060909090600407070698
:102B3000010050A0609090906004070706010050CB
:102B400000609090906005050506000088502050B8
:102B5000880408080601FF1070B0B0D0D0E08004EF
:102B60000707060100402090909090600407070638
:102B7000010020409090909060040707060100201B
:102B800050909090906004070706010050009090CC
:102B90009090600507070600001020885020202034
:102BA00004060606010080E09090E0800406060618
:102BB00001006090A0A090A004070706010040203B
:102BC000007090907004070706010020400070908C
:102BD0009070040707060100205000709090700468
:102BE000070706010050A0007090907004060606CA
:102BF00001005000709090700407070601002050FB
:102C0000207090907005040406000070A8B078044D
:102C100006060601FE70808070204004070706014A
:102C20000040200060B0C07004070706010020408B
:102C30000060B0C07004070706010020500060B0BB
:102C4000C070040606060100500060B0C0700307A3
:102C500007060100804000C04040E003070706016E
:102C600000204000C04040E003070706010040A0EC
:102C700000C04040E0030606060100A000C040403E
:102C8000E0040707060100306010709090600407B0
:102C90000706010050A000E090909004070706018D
:102CA000004020006090906004070706010020406B
:102CB00000609090600407070601002050006090BB
:102CC000906004070706010050A000609090600427
:102CD000060606010050006090906005050506009C
:102CE000002000F8002004040406010070B0D0E0C9
:102CF0000407070601004020009090907004070729
:102D00000601002040009090907004070706010023
:102D1000205000909090700406060601005000902C
:102D20009090700409090601FE2040009090907078
:102D300090600408080601FE8080E09090E08080AA
:102D40000408080601FE5000909090709060003FCB
:102D5000FFFE00003FFFFE00003FFFFE00003FFFC0
:102D6000FE00001FFFFE00001FFFFE00001FFFFE11
:102D700000001FFFFC00001FFFFC00001FFFFC0005
:102D8000000FFFFC00000FFFFC00000FFFF8000029
:102D900007FFF8000007FFF8000003FFF000000342
:102DA000FFF0000003FFE0000003FFE0000001FF70
:102DB000C0000001FFC0000000FFC0000000FF8055
:102DC0000000007F800000003F000000003E000087
:102DD000000000000000001E000000001E000000B7
:102DE000001C000000001C000000001C000000008F
:102DF0001C000000001C000000001C000000001C63
:102E0000000000001C000000001C000000001C006E
:102E10000000001C000000001C000000001C00005E
:102E200000E01C038000F01C07C000F81C0F8000AD
:102E30007C1C1F00003E1C3E00001F1C7C00000785
:102E40009CF8000003DDF0000003DDE0000000005E
:102E50000000FFFFF7FFFF7FFFF7FFFE3FFFF7FFD9
:102E6000FC3FFFF7FFFC7FFFF7FFFEFFFFF7FFFFD1
:102E7000000000000000091200FC0A01E803D7204E
:102E8000FFFD0EFD0BFD00000009000E010B0B09FC
:102E900004008080808080808000008080040404A2
:102EA00009030790909090080A0A0900002424243E
:102EB000FF2424FF242424070B0B0901FF107C921C
:102EC0009050381412927C10070A0A09010042A49B
:102ED000A4481010244A4A84070A0A090100609095
:102EE00090906062948894620104040904078080D1
:102EF0008080030C0C0903FF20404080808080808C
:102F000080404020030C0C0903FF8040402020201B
:102F10002020204040800707070901031092543801
:102F2000549210070707090101101010FE1010102D
:102F30000204040904FEC0C0408007010109010425
:102F4000FE020202090400C0C0070A0A09010002C9
:102F5000040408101020404080070A0A09010038C4
:102F6000448282828282824438070A0A0901001060
:102F70003050901010101010FE070A0A0901003896
:102F80004482020408102040FE070A0A090100FEDC
:102F9000020408180402028478070A0A09010004DE
:102FA0000C14244484FE040404070A0A090100FEE8
:102FB000808080F80402028478070A0A0901003C34
:102FC000408080B8C482824438070A0A090100FEA2
:102FD000020404080810101010070A0A090100383A
:102FE000448244384482824438070A0A090100387E
:102FF000448282463A02020478020707090400C0AC
:10300000C0000000C0C00209090904FEC0C00000E1
:1030100000C0C04080050909090200081020408056
:1030200040201008070404090102FE0000FE050903
:1030300009090200804020100810204080070A0A79
:1030400009010038448202040810100010070A0A1F
:1030500009010038449AAAAAAAAA9C403C070A0A75
:1030600009010010282828447C44828282070A0A29
:10307000090100F8848284F884828284F8070A0AAD
:103080000901003C42808080808080423C070A0A1F
:10309000090100F88482828282828284F8070A0A07
:1030A000090100FE808080F880808080FE070A0A87
:1030B000090100FE808080F88080808080070A0AF5
:1030C00009010038448280808E82824438070A0ACF
:1030D00009010082828282FE8282828282050A0A3D
:1030E000090200F82020202020202020F8070A0ACA
:1030F0000901003E080808080808888870070A0ABD
:1031000009010082848890A0D088848282070A0AFC
:10311000090100808080808080808080FE070A0A0C
:103120000901008282C6AA928282828282070A0AEA
:103130000901008282C2A2928A86828282070A0ADA
:103140000901007C82828282828282827C070A0A52
:10315000090100F884828284F880808080080B0B4B
:103160000901FF384482828282828A443A01070A36
:103170000A090100F884828284F890888482070A10
:103180000A0901007C8280807C020202827C070A9C
:103190000A090100FE101010101010101010070A7C
:1031A0000A09010082828282828282824438070A6E
:1031B0000A09010082828244444428282810070A10
:1031C0000A0901008282828292929292AA44070A9C
:1031D0000A09010082824428101028448282070ACA
:1031E0000A09010082824428101010101010070AEA
:1031F0000A090100FE0204081020408080FE040C31
:103200000C0903FFF080808080808080808080F0C7
:10321000070A0A0901008040402010100804040237
:10322000040C0C0902FFF0101010101010101010F8
:1032300010F007040409010610284482080101095E
:1032400000FFFF03030309030A8040200707070963
:1032500001007C02027E82867A070A0A0901008048
:103260008080BCC2828282C2BC0707070901007C41
:1032700082808080827C070A0A0901000202027AA9
:1032800086828282867A0707070901007C8282FE95
:1032900080827C070A0A0901001C22222020F820D3
:1032A000202020070A0A0901FD7A84848478807C22
:1032B00082827C070A0A090100808080BCC2828267
:1032C000828282050A0A090200600000E0202020B4
:1032D0002020F8050D0D0902FD1800003808080827
:1032E000080808888870070A0A090100808080841D
:1032F0008890B0C88482050A0A090200E0202020D4
:103300002020202020F8070707090100EC92929264
:10331000929282070707090100BCC28282828282E0
:103320000707070901007C82828282827C070A0AE1
:103330000901FDB8C4828282C4B8808080070A0A6D
:103340000901FD3A46828282463A020202070707D5
:103350000901009C62424040404007070709010004
:103360007C82807C02827C0709090901002020FC04
:1033700020202020221C0707070901008282828268
:1033800082867A07070709010082824444282810B0
:103390000707070901008282929292AA4407070751
:1033A00009010082442810284482070A0A0901FD05
:1033B00042422424241818109060070707090100CE
:1033C000FE0408102040FE060B0B0902001C202002
:1033D0002020C0202020201C010C0C0904FF80802C
:1033E00080808080808080808080060B0B090100B7
:1033F000E0101010100C10101010E007030309016A
:103400000762928CFFFFFFFFFFFFFFFFFFFFFFFF41
:10341000FFFFFFFFFFFFFFFFFFFFFFFFFFFFFFFFBC
:10342000FFFFFFFFFF00000009000E010B0B090466
:1034300000808000008080808080808006080809ED
:10344000010008789490A0A47840070A0A090100B6
:103450001C222020F8202060A25C07060609010338
:10346000827C44447C82070A0A0901008282442843
:103470007C107C101010010B0B0904FF80808080F1
:1034800080008080808080040B0B0902FF609080A8
:10349000609090906010906003020209030BA0A05E
:1034A0000809090900013C4299A5A1A599423C05DA
:1034B0000707090103609070907800F80708080971
:1034C00001011224489090482412060404090102C4
:1034D000FC040404050101090204F80809090900B3
:1034E000013C42B9A5BDA9A5423C0601010901095B
:1034F000FC040404090306609090600709090901AF
:1035000001101010FE10101000FE04060609010440
:103510006090106080F0040606090104609020109D
:10352000906003030309030A204080070909090189
:10353000FE8282828282C6BA8080070A0A0901005E
:103540007E8A8A8A7A0A0A0A0A0A0202020904049C
:10355000C0C00403030902FD2090600306060901B0
:103560000440C0404040E005060609010470888818
:103570007000F80708080901019048241212244835
:1035800090070A0A09010040C0404042E60A121AA8
:1035900006070A0A09010040C040404CF2020C1024
:1035A0001E070A0A0901006090201092660A121A8A
:1035B00006070A0A090100100010102040808282CC
:1035C0007C070E0E0901002010080010282828444E
:1035D0007C44828282070E0E090100081020001030
:1035E000282828447C44828282070E0E090100109C
:1035F00028440010282828447C44828282070D0D2C
:1036000009010034580010282828447C4482828212
:10361000070D0D09010028280010282828447C44A3
:10362000828282070E0E0901001028281010282817
:1036300028447C44828282070A0A0901001E282845
:10364000284E784888888E070D0D0901FD3C428080
:103650008080808080423C082418070E0E090100FB
:1036600020100800FE808080F880808080FE070E99
:103670000E09010008102000FE808080F880808004
:1036800080FE070E0E09010010284400FE80808095
:10369000F880808080FE070D0D090100282800FEBB
:1036A000808080F880808080FE050E0E0902004038
:1036B000201000F82020202020202020F8050E0EC9
:1036C00009020010204000F8202020202020202087
:1036D000F8050E0E09020020508800F82020202056
:1036E00020202020F8050D0D090200505000F82080
:1036F00020202020202020F8070A0A090100784411
:103700004242F24242424478070D0D09010034580A
:10371000008282C2A2928A86828282070E0E0901EC
:1037200000201008007C82828282828282827C0752
:103730000E0E090100081020007C828282828282A3
:1037400082827C070E0E090100102844007C8282D0
:103750008282828282827C070D0D0901003458002A
:103760007C82828282828282827C070D0D09010026
:103770002828007C82828282828282827C070707DC
:1037800009010182442810284482070C0C0901FF1A
:10379000027C868A8A9292A2A2C27C80070E0E09BF
:1037A0000100201008008282828282828282443854
:1037B000070E0E0901000810200082828282828298
:1037C00082824438070E0E090100102844008282CC
:1037D0008282828282824438070D0D0901002828E6
:1037E0000082828282828282824438070E0E090120
:1037F00000081020008282442810101010101007BA
:103800000A0A0901008080FC828282FC8080800696
:103810000A0A09010038444448D04844444458073F
:103820000B0B090100201008007C02027E82867AC0
:10383000070B0B090100081020007C02027E828623
:103840007A070B0B090100102844007C02027E82DB
:10385000867A070A0A0901003458007C02027E8237
:10386000867A070A0A0901002828007C02027E8263
:10387000867A070C0C09010010282810007C02022F
:103880007E82867A0707070901006C12127E9092E9
:103890006C070A0A0901FD7C82808080827C1048C6
:1038A00030070B0B090100201008007C8282FE808B
:1038B000827C070B0B090100081020007C8282FE2D
:1038C00080827C070B0B090100102844007C828257
:1038D000FE80827C070A0A0901002828007C828277
:1038E000FE80827C050C0C0902008040200000E074
:1038F0002020202020F8050C0C0902001020400098
:1039000000E02020202020F8050C0C0902002050A7
:10391000880000E02020202020F8050B0B09020081
:1039200050500000E02020202020F8070B0B090158
:1039300000483050083C448282824438070A0A0911
:103940000100345800BCC28282828282070B0B09BC
:103950000100201008007C82828282827C070B0B8F
:10396000090100081020007C82828282827C070B81
:103970000B090100102844007C82828282827C072D
:103980000A0A0901003458007C82828282827C0704
:103990000A0A0901002828007C82828282827C0730
:1039A000090909010010381000FE0010381007093D
:1039B000090901FF027C8A8A92A2A27C80070B0B74
:1039C000090100402010008282828282867A070BE1
:1039D0000B090100081020008282828282867A0709
:1039E0000B0B090100102844008282828282867AB1
:1039F000070A0A0901002828008282828282867AC8
:103A0000070E0E0901FD0408100042422424241868
:103A100018109060070B0B0901FE8080B8C48282E9
:103A200082C4B88080070D0D0901FD2424004242A4
:103A3000242424181810906001070D00FE09016964
:103A400002D820FFFE0BFE09FE0D0070222979C06E
:103A5000C0C0C0C0C000C0C0185373D8D8D8125955
:103A6000795050F8F850F8F850500269793078B42D
:103A7000B07834B47830026979E4ACE81830605C2E
:103A8000D49C02697970D8D8D870D4DCD874272433
:103A900074C0C0C0C0124979306060C0C0C06060EE
:103AA00030124979C060603030306060C0036676A3
:103AB0004830FCFC30480366763030FCFC30301176
:103AC0004474707060C0056171FC11437360F060F4
:103AD0000269790C0C1818306060C0C00269793036
:103AE00048CCCCCCCCCC48300269793070B0303086
:103AF000303030FC02697978CCCC0C3860C0C0FC26
:103B0000026979FC0C1830780C0CCC780269790CBD
:103B10001C3C6CCCCCFC0C0C026979FCC0C0F8CC11
:103B20000C0CCC7802697978CCC0C0F8CCCCCC78BD
:103B3000026979FC0C0C18183030606002697978E1
:103B4000CCCCCC78CCCCCC7802697978CCCCCC7C81
:103B50000C0CCC7811487860F060000060F06011C7
:103B6000487860F06000707060C00269790C1830AD
:103B700060C06030180C046474FC0000FC026979B9
:103B8000C06030180C183060C002697978CCCC0C59
:103B90003830003030026979788C8CBCACBC808CB9
:103BA0007802697978CCCCCCFCCCCCCCCC026979CD
:103BB000F8CCCCCCF8CCCCCCF802697978CCC0C0AD
:103BC000C0C0C0CC78026979F8CCCCCCCCCCCCCC01
:103BD000F8026979FCC0C0C0F8C0C0C0FC026979B5
:103BE000FCC0C0C0F8C0C0C0C002697978CCC0C0F9
:103BF000DCCCCCCC7C026979CCCCCCCCFCCCCCCC95
:103C0000CC026979FC30303030303030FC026979D8
:103C10000C0C0C0C0C0C0CCC78026979C4CCD8F0D0
:103C2000E0F0D8CCC4026979C0C0C0C0C0C0C0C078
:103C3000FC02697984CCFCFCCCCCCCCCCC0269797C
:103C4000CCCCECECFCDCDCCCCC02697978CCCCCCF8
:103C5000CCCCCCCC78026979F8CCCCCCF8C0C0C044
:103C6000C0016A7A78CCCCCCCCCCECDC780C026984
:103C700079F8CCCCCCF8F0D8CCC402697978CCC037
:103C8000C0780C0CCC78026979FC303030303030A0
:103C90003030026979CCCCCCCCCCCCCCCC7802699D
:103CA00079CCCCCC484878303030026979CCCCCC57
:103CB000CCCCFCFCCC8402697984CC487830784840
:103CC000CC84026979CCCC787830303030300269DD
:103CD00079FC0C0C183060C0C0FC124979F0C0C0EF
:103CE000C0C0C0C0C0F0026979C0C06060301818A0
:103CF0000C0C124979F030303030303030F007643D
:103D0000743078CC84016272FCFC194373C060305B
:103D1000026676780C7CCCCC7C026979C0C0C0F895
:103D2000CCCCCCCCF802667678CCC0C0CC7802691A
:103D3000790C0C0C7CCCCCCCCC7C02667678CCFCA0
:103D4000C0CC78026979386C6060F06060606000B7
:103D5000687874CCCC78C078CC78026979C0C0C05F
:103D6000F8CCCCCCCCCC026979303000703030301B
:103D700030FC006B7B0C0C000C0C0C0C0C0CCC788D
:103D8000026979C0C0C0CCD8F0F0D8CC0269797093
:103D900030303030303030FC026676D8FCFCCCCC91
:103DA000CC026676F8CCCCCCCCCC02667678CCCC87
:103DB000CCCC78006878F8CCCCCCF8C0C0C0006817
:103DC000787CCCCCCC7C0C0C0C026676F8CCC0C0D9
:103DD000C0C002667678CC6018CC780268786060E3
:103DE000F86060606C38026676CCCCCCCCCC7C02BF
:103DF0006676CCCCCC787830026676CCCCCCFCFC29
:103E000048026676CCCC7878CCCC006878CCCCCC28
:103E1000CC7C0CCC78026676FC0C1860C0FC124995
:103E20007970C0C060C060C0C070222979C0C0C0B5
:103E3000C0C0C0C0C0C0124979E0303060306030CE
:103E400030E008637364FC98FFFFFFFFFFFFFFFF94
:103E5000FFFFFFFFFFFFFFFFFFFFFFFFFFFFFFFF72
:103E6000FFFFFFFFFFFFFFFFFF0D0070222A7AC058
:103E7000C000C0C0C0C0C0C0C0036878107CD4D02F
:103E8000D0D47C10026979386C6060F860606CB8DE
:103E9000036676CCFC4848FCCC026979CCCC7878B7
:103EA000FC30FC3030222A7AC0C0C0C00000C0C044
:103EB000C0C0026A7A78CCC078CCCC780CCC781AA6
:103EC0005272D8D8026A7A78CC84B4E4E4B484CC50
:103ED00078145777F018F898F800F8036777346883
:103EE000D0A0D06834036474FC0C0C0C154171F044
:103EF000026A7A78CC84BCACBCB4ACCC781B51716F
:103F0000F807647478CCCC780367773030FC3030B5
:103F100000FC064676E0B03060C0F0064676E0B0C1
:103F20006030B0E01943733060C0016777CCCCCC0F
:103F3000CCCCFC800269797CFCF4F4F47434343425
:103F4000262272C0C010327260C006467660E06001
:103F50006060F015577770F888F87000F80367779D
:103F6000B0582C142C58B0026A7A60E0606064FC8F
:103F70001C343C0C026A7A60E0606078EC0C18300B
:103F80003C026A7AE0B06030B4EC1C343C0C026A4B
:103F90007A303000303060C0CCCC78026A7A603041
:103FA000003078CCCCFCCCCC026A7A183000307867
:103FB000CCCCFCCCCC026A7A386C003078CCCCFC0F
:103FC000CCCC026A7A3458003078CCCCFCCCCC0211
:103FD0006A7ACCCC003078CCCCFCCCCC026A7A7833
:103FE00048783078CCCCFCCCCC0269797CF8D8D835
:103FF000DCF8D8D8DC006B7B78CCC0C0C0C0C0CCAB
:10400000783060026A7A603000FCC0C0F0C0C0FC4A
:10401000026A7A183000FCC0C0F0C0C0FC026A7AA4
:10402000386C00FCC0C0F0C0C0FC026A7ACCCC0086
:10403000FCC0C0F0C0C0FC026A7A603000FC3030C6
:10404000303030FC026A7A183000FC3030303030CA
:10405000FC026A7A386C00FC3030303030FC026A86
:104060007ACCCC00FC3030303030FC026979F86C0E
:104070006C6CEC6C6C6CF8026A7A345800CCCCEC4A
:10408000FCDCCCCC026A7A60300078CCCCCCCCCCD6
:1040900078026A7A18300078CCCCCCCCCC78026A22
:1040A0007A386C0078CCCCCCCCCC78026A7A345894
:1040B0000078CCCCCCCCCC78026A7ACCCC0078CC52
:1040C000CCCCCCCC78036575CC783078CC016A7ACE
:1040D0000478DCDCDCECECEC7880026A7A6030009E
:1040E000CCCCCCCCCCCC78026A7A183000CCCCCCFE
:1040F000CCCCCC78026A7A386C00CCCCCCCCCCCC92
:1041000078026A7ACCCC00CCCCCCCCCCCC78026A0D
:104110007A183000CC487830303030026979C0F8F5
:10412000CCCCCCF8C0C0C002697978CCCCD8D8CC83
:10413000CCCCD8026979301800780C7CCCDC7C02BD
:104140006979183000780C7CCCDC7C026979386C99
:1041500000780C7CCCDC7C026979345800780C7CCB
:10416000CCDC7C0269796C6C00780C7CCCDC7C0249
:104170006A7A38283800780C7CCCDC7C0266767849
:10418000347CB0B46800687878CCC0C0CC7830603B
:1041900002697930180078CCFCC0CC7802697918B3
:1041A000300078CCFCC0CC78026979386C0078CCCF
:1041B000FCC0CC780269796C6C0078CCFCC0CC78FF
:1041C000124979C06000E060606060F012497930A7
:1041D0006000E060606060F002597970D800703073
:1041E00030303078125979D8D800E060606060F0E3
:1041F000026A7A6830780C7CCCCCCCCC78026979B5
:10420000345800F8ECCCCCCCCC0269796030007822
:10421000CCCCCCCC7802697918300078CCCCCCCC22
:1042200078026979386C0078CCCCCCCC780269798A
:1042300034580078CCCCCCCC780269796C6C00789E
:10424000CCCCCCCC78036777303000FC0030300128
:1042500069790478CCDCCCECCC7880026979603068
:1042600000CCCCCCCCDC7C026979183000CCCCCC36
:10427000CCDC7C026979386C00CCCCCCCCDC7C0208
:1042800069796C6C00CCCCCCCCDC7C006B7B1830BE
:1042900000CCCCCCDC7C0CCC78006A7AC0C0D8ECEA
:1042A000CCCCECD8C0C0006B7B6C6C00CCCCCCDC34
:1042B0006C0CCC7801050800FF060121023520FFB7
:1042C000FF07FF06FF0900502216568080808000FD
:1042D00080153353A0A0A00257575050F850F85003
:1042E000500257572070A07028702013355580A0B9
:1042F00040A02002475740A0A040A0A05025135343
:104300008080801226564080808080401226568011
:1043100040404040800245559060F0609002555505
:104320002020F82020113353604080044151F011C7
:10433000335340E040024656101020408080123631
:104340005640A0A0A0A04012365640C0404040E0D9
:104350000246566090106080F0024656F0206010D1
:1043600090600246562060A0F02020024656F08061
:10437000E01090600246566080E0909060024656E1
:10438000F0102020404002465660906090906002FD
:104390004656609090701060122555C0C000C0C095
:1043A0001136566060006040801236562040808092
:1043B0004020034353F000F0123656804020204046
:1043C0008012365640A0204000400158583048988E
:1043D000A8A8904030024656609090F09090024617
:1043E00056E090E09090E0024656609080809060A9
:1043F000024656E090909090E0024656F080E080B1
:1044000080F0024656F080E0808080024656609040
:1044100080B090600246569090F090909012365680
:10442000E040404040E002465670202020A040027C
:10443000465690A0C0A0A090024656808080808002
:10444000F002465690F0F090909002465690D0F0D0
:10445000B0B090024656609090909060024656E050
:104460009090E08080014757609090D0B06010023B
:104470004656E09090E09090024656609040209022
:1044800060123656E04040404040024656909090C0
:1044900090906002465690909090606002465690D0
:1044A0009090F0F090024656909060609090025686
:1044B00056888850202020024656F010204080F078
:1044C000123656E080808080E00246568080402090
:1044D0001010123656E020202020E016325240A064
:1044E000014151F016225280400244547090907065
:1044F0000246568080E09090E012345460808060E4
:1045000002465610107090907002445460B0C06023
:10451000024656205040E0404001455560907010E2
:10452000600246568080E09090901236564000C05F
:104530004040E01137572000202020A0400246567E
:10454000808090E09090123656C040404040E0029B
:104550005454D0A8A8A8024454E090909002445427
:1045600060909060014555E090E080800145557075
:1045700090701010024454A0D0808012345460C057
:1045800020C00246564040E04050200244549090E3
:104590009070123454A0A0A04002545488A8A8508F
:1045A0000244549060609001455590907090600274
:1045B0004454F02040F0024757304020C0204030A3
:1045C000221656808080808080024757C02040306D
:1045D0004020C006425250A0FFFFFFFFFFFFFFFF39
:1045E000FFFFFFFFFFFFFFFFFFFFFFFFFFFFFFFFDB
:1045F000FFFFFFFFFFFFFFFFFF090050221656805D
:1046000000808080800146562070A0A07020024665
:10461000562050E04050A0025555887050708802D6
:1046200056568850F820F820221757808080008046
:1046300080800247577080E0907010E0173151A0E1
:1046400002565670A8C8C8A87014355560A06000FE
:10465000E003435350A050123353E0202014315153
:10466000E002565670E8D8E8D870173151E015339B
:104670005340A04012355540E04000E0143555400D
:10468000A02040E0143555C020C020C01622524062
:1046900080014555909090E08002565678E8E86891
:1046A000282824115180112252408014355540C0D1
:1046B0004040E014355540A04000E0034353A05073
:1046C000A0024757808080A060F02002475780807A
:1046D000A0D010207002475780408060A0F02012C8
:1046E000365640004080A04002475740206090F07E
:1046F000909002475720406090F09090024757609A
:10470000906090F0909002475750A06090F0909089
:1047100002475790006090F0909002475760906079
:1047200090F0909002465670A0A0F0A0B0014757BC
:10473000609080809060400247574020F080E08089
:10474000F00247572040F080E080F0024757609029
:10475000F080E080F00247579000F080E080F01297
:1047600037578040E0404040E01237572040E0405B
:104770004040E012375740A0E0404040E012375739
:10478000A000E0404040E00256567048E8484870BB
:1047900002475750A090D0B09090024757402060F9
:1047A0009090906002475720406090909060024740
:1047B000576090609090906002475750A060909032
:1047C000906002475790006090909060123353A021
:1047D00040A002465670B0B0D0D0E002475740200B
:1047E0009090909060024757204090909090600287
:1047F000475760909090909060024757900090903B
:104800009090600257571020885020202002465672
:1048100080E09090E0800246566090A0A090A002B8
:10482000475740200070909070024757204000701A
:104830009090700247572050007090907002475738
:1048400050A000709090700246565000709090708A
:1048500002475760906070909070025454F068B0B6
:1048600078113555608080604002475740200060D5
:10487000B0C06002475720400060B0C06002475798
:1048800060900060B0C060024656500060B0C060EA
:10489000123757804000C04040E012375720400098
:1048A000C04040E012375740A000C04040E0123600
:1048B00056A000C04040E0024757A040A0107090B2
:1048C0006002475750A000E0909090024757402068
:1048D0000060909060024757204000609090600216
:1048E00047576090006090906002475750A000606A
:1048F000909060024656900060909060123555404E
:1049000000E0004002445470B0D0E002475740201D
:104910000090909070024757204000909090700255
:10492000475760900090909070024656900090908B
:104930009070014858204000909070906001475757
:104940008080E090E08080014757900090907090C8
:10495000600200000A0B02090C0D0E080703040197
:104960000000000000000000000000000000000047
:104970000000000000000000000000000000121114
:104980001000000000000000000000000000000017
:1049900000000000000000000102102020080810A4
:1049A000204010204080020102010804020101029F
:1049B0000408102040808040201008040201800478
:1049C00002018040201008040201080402010102D3
:1049D00004081020408001020408102040800505D2
:1049E0000505070508080808020202020A0A080865
:1049F0000404040401010101010101010303030393
:104A000003030303040707070C0C0C0C0C0C0C0C21
:104A10000202020206060606060606060B0B0B0B32
:104A20000B0B0B0B00002200250028002B002E0092
:104A30003100340002010000050108010B010000F3
:104A40002100240027002A002D003000330001013E
:104A50000000040107010A014E414E494E495459D4
:104A6000494E46CDCCCC3D0AD7233C17B7D1387739
:104A7000CC2B329595E6241FB14F0A00002041004F
:104A800000C84200401C4620BCBE4CCA1B0E5AAE99
:104A9000C59D7400555365CE595311241FBECFEFE9
:104AA000D1E2DEBFCDBF00E00CBF15E0A0E0B2E078
:104AB000E2EEFBEC01E00BBF02C007900D92A635C1
:104AC000B107D9F71AE1A6E5B5E001C01D92A537F7
:104AD000B107E1F71AE4C8E9DAE400E006C022977A
:104AE0000109FE010BBF0E94BEDFC439D10780E07F
:104AF0000807A9F70E941ED80C94E0E50C9400006A
:104B0000DC01FB018181807382958F709081990F08
:104B1000990F890F8C9382818C73869586959181EC
:104B200020E1929F800D112411968C931197928110
:104B3000838120E4929F800D112412968C93089516
:104B40009FEB980F9A31B0F09FE9980F9A3110F4CB
:104B50008754089590ED980F9A3010F48C5F089563
:104B60008B3221F08F3221F48FE308958EE3089584
:104B70008FEF0895892F08954F925F926F927F92E1
:104B80008F929F92AF92BF92CF92DF92EF92FF925D
:104B90000F931F93CF93DF93CDB7DEB727970FB651
:104BA000F894DEBF0FBECDBF6C015A017B01A60E8B
:104BB000B71E00E010E080E090E03E0125E0620ECC
:104BC000711C4E01E8E08E0E911CEA14FB0429F0E2
:104BD000F70141917F014D3329F478015C01009781
:104BE00071F561C09C012F5F3F4FE1E0F0E0EC0FF9
:104BF000FD1FE80FF91F408324303105F1F4CE0189
:104C000001962C01F20180819BDFF20181932F013B
:104C1000E615F705B9F7BE016F5F7F4FC30170DF7F
:104C2000F301D601A00FB11F81918D93E815F9050D
:104C3000D9F70D5F1F4F20E030E0C901C6CF8430A7
:104C400091054CF4E1E0F0E0EC0FFD1FE80FF91FD7
:104C500010820196F4CFCE0101964C013E0195E001
:104C6000690E711CF40180816BDFF40181934F01A7
:104C7000E615F705B9F7BE016F5F7F4FCF0140DF43
:104C8000D401F601E00FF11F80E090E021E0A21ACC
:104C9000B1088C010E0D1F1D8A159B0524F42D9162
:104CA00021930196F6CFF601E00FF11F1082C801A3
:104CB00027960FB6F894DEBF0FBECDBFDF91CF9120
:104CC0001F910F91FF90EF90DF90CF90BF90AF902A
:104CD0009F908F907F906F905F904F900895EF928C
:104CE000FF920F931F93CF93DF931F92CDB7DEB741
:104CF0008C017B01460FF70161917F01F8018081F2
:104D0000918149830E9429E5F80180819181019672
:104D10009183808349814E11EECF0F90DF91CF9127
:104D20001F910F91FF90EF900895EF92FF920F93D4
:104D30001F93CF93DF931F92CDB7DEB78C017B011A
:104D4000460FF8018081918149830E9421E5F70196
:104D500081937F01F8018081918101969183808305
:104D600049814E11EECF0F90DF91CF911F910F919E
:104D7000FF90EF9008950F931F93CF93DF93CDB7DC
:104D8000DEB72A970FB6F894DEBF0FBECDBF80E323
:104D900090E3A0E3B0E08D839E83AF83B88704E601
:104DA00010E01A87098744E0BE016B5F7F4FCE0198
:104DB000099695DF40E161EE76E1CE0109968FDF3D
:104DC00040E161EF76E1CE01099689DF40E161EDD6
:104DD00076E1CE01099683DF44E069EC76E1CE010D
:104DE00009967DDF44E065EC76E1CE01099677DF38
:104DF00044E06DEC76E1CE01099671DF44E065EBAD
:104E000076E1CE0109966BDF44E061E077E1CE0107
:104E1000099665DF44E061EC76E1CE0109965FDF3B
:104E200044E06DEB76E1CE01099659DF44E069EB91
:104E300076E1CE01099653DF4CE06AEC77E0CE01D3
:104E400009964DDF42E065E17CE0CE01099647DF3F
:104E500041E069E67CE0CE01099641DF42E068E38B
:104E60007AE1CE0109963BDF42E066E37AE1CE01CA
:104E7000099635DF42E064E37AE1CE0109962FDF3F
:104E800042E062E37AE1CE01099629DF42E060E385
:104E90007AE1CE01099623DF42E06EE27AE1CE01AB
:104EA00009961DDF44E06FE472E0CE01099617DF3A
:104EB00044E06BE472E0CE01099611DF44E067E460
:104EC00072E0CE0109960BDF42E06BE278E1CE01A1
:104ED000099605DF86E591E3A1E3B0E089839A8333
:104EE000AB83BC831A87098744E0BE016F5F7F4FA5
:104EF000CE010996F4DEEFEEF3E08491882341F0D1
:104F00009091C00095FFFCCF8093C6003196F5CFFD
:104F1000EFEDF3E08491882341F09091C00095FF7C
:104F2000FCCF8093C6003196F5CF8091C00085FFFD
:104F3000FCCF8AE08093C6002A960FB6F894DEBFB5
:104F40000FBECDBFDF91CF911F910F910895CF93E9
:104F5000DF93CFEED3E0FE018491FE01882349F078
:104F60009091C00095FFFCCF8093C600319684914C
:104F7000F5CFEFECF3E08491882341F09091C000ED
:104F800095FFFCCF8093C6003196F5CF8091C0008D
:104F900085FFFCCF8AE08093C600FE018491EFEE8E
:104FA000F3E0882349F09091C00095FFFCCF8093F7
:104FB000C60031968491F5CF4091E1165091E216EA
:104FC0006091E3167091E41687EC93E00E94D33071
:104FD0004091E5165091E6166091E7167091E8163B
:104FE00084EC93E00E94D3304091E9165091EA1688
:104FF0006091EB167091EC1681EC93E00E94D33037
:105000004091ED165091EE166091EF167091F016EA
:105010008EEB93E00E94D3308091C00085FFFCCFDF
:105020008AE08093C600FE018491EFEEF3E08823CE
:1050300049F09091C00095FFFCCF8093C600319657
:105040008491F5CFE4EAF3E08491882341F09091D4
:10505000C00095FFFCCF8093C6003196F5CF8091BC
:10506000C00085FFFCCF8AE08093C600FE018491DA
:10507000EFEEF3E0882349F09091C00095FFFCCF5C
:105080008093C60031968491F5CF4091F1165091EE
:10509000F2166091F3167091F4168BE993E00E947A
:1050A000D3304091F5165091F6166091F716709135
:1050B000F81688E993E00E94D3304091F916509198
:1050C000FA166091FB167091FC1685E993E00E9438
:1050D000D3304091FD165091FE166091FF167091ED
:1050E000001782E993E00E94D3308091C00085FFD1
:1050F000FCCF8AE08093C600FE018491EFEEF3E0DE
:10510000882349F09091C00095FFFCCF8093C600A2
:1051100031968491F5CFE4E7F3E08491882341F060
:105120009091C00095FFFCCF8093C6003196F5CFDB
:105130008091C00085FFFCCF8AE08093C600FE010D
:105140008491EFEEF3E0882349F09091C00095FF41
:10515000FCCF8093C60031968491F5CF4091D11653
:105160005091D2166091D3167091D4168BE693E0CD
:105170000E94F5304091D5165091D6166091D71601
:105180007091D81688E693E00E94F5304091D916C8
:105190005091DA166091DB167091DC1685E693E08B
:1051A0000E94F5304091DD165091DE166091DF16B9
:1051B0007091E01682E693E00E94F5308091C00085
:1051C00085FFFCCF8AE08093C600FE018491EFEE5C
:1051D000F3E0882349F09091C00095FFFCCF8093C5
:1051E000C60031968491F5CFEDE2F3E084918823F7
:1051F00041F09091C00095FFFCCF8093C60031969E
:10520000F5CF8091C00085FFFCCF8AE08093C60077
:10521000FE018491EFEEF3E0882349F09091C00005
:1052200095FFFCCF8093C60031968491F5CF4091D5
:10523000C9165091CA166091CB167091CC1684E2B3
:1052400093E0B1D74091C5165091C6166091C7162C
:105250007091C81681E293E0A6D78091C00085FFC7
:10526000FCCF8AE08093C600FE018491EFEEF3E06C
:10527000882349F09091C00095FFFCCF8093C60031
:1052800031968491F5CFEEE6F2E08491882341F0E7
:105290009091C00095FFFCCF8093C6003196F5CF6A
:1052A0008091C00085FFFCCF8AE08093C600FE019C
:1052B0008491EFEEF3E0882349F09091C00095FFD0
:1052C000FCCF8093C60031968491F5CF4091CD16E6
:1052D0005091CE166091CF167091D01685E692E06F
:1052E00062D74091B5165091B6166091B71670917D
:1052F000B81682E692E057D74091011750910217F5
:1053000060910317709104178FE592E06ED740917A
:10531000C1165091C2166091C3167091C4168CE5E7
:1053200092E041D74091BD165091BE166091BF16D4
:105330007091C01689E592E036D74091B916509128
:10534000BA166091BB167091BC1686E592E02BD719
:105350008091C00085FFFCCF8AE08093C600FE01EB
:105360008491EFEEF3E0882349F09091C00095FF1F
:10537000FCCF8093C60031968491F5CFE4E4F2E04F
:105380008491882341F09091C00095FFFCCF8093D9
:10539000C6003196F5CF8091C00085FFFCCF8AE032
:1053A0008093C600FE018491EFEEF3E0882349F07C
:1053B0009091C00095FFFCCF8093C60031968491F8
:1053C000F5CF4091CA075091CB076091CC077091FF
:1053D000CD078BE392E0E7D64091CE075091CF07FF
:1053E0006091D0077091D10788E392E0DCD64091BC
:1053F000D2075091D3076091D4077091D50785E308
:1054000092E0D1D68091C00085FFFCCF8AE08093E6
:10541000C600FE018491EFEEF3E0882349F09091FD
:10542000C00095FFFCCF8093C60031968491F5CFE4
:10543000EFE1F2E08491882341F09091C00095FF64
:10544000FCCF8093C6003196F5CF8091C00085FFD8
:10545000FCCF8AE08093C600FE018491EFEEF3E07A
:10546000882349F09091C00095FFFCCF8093C6003F
:1054700031968491F5CF8091150C9091160C6CE3C8
:1054800070E00E9453DFAB0160E070E086E192E0E3
:10549000ACD68091C00085FFFCCF8AE08093C60027
:1054A0008091150C9091160C6CE370E00E9453DF14
:1054B000AC0160E070E08BE092E097D68091C00094
:1054C00085FFFCCF8AE08093C6004091690C50E0D4
:1054D00060E070E08AEE91E088D68091C00085FFA0
:1054E000FCCF8AE08093C600FE018491EFEEF3E0EA
:1054F000882349F09091C00095FFFCCF8093C600AF
:1055000031968491F5CFECEDF1E08491882341F060
:105510009091C00095FFFCCF8093C6003196F5CFE7
:105520008091C00085FFFCCF8AE08093C600FE0119
:10553000C491EFEEF3E0CC2349F08091C00085FFE9
:10554000FCCFC093C6003196C491F5CF40914F0275
:1055500050915002609151027091520282ED91E09F
:1055600022D660914B0270914C0280914D02909135
:105570004E020E945295AB01BC018FEC91E013D614
:1055800060914702709148028091490290914A02CD
:105590000E945E95AB01BC018CEC91E004D6809139
:1055A000C00085FFFCCF8AE08093C600DF91CF91D9
:1055B0000895AF92BF92CF92DF92EF92FF920F9336
:1055C0001F93CF93DF93CDB7DEB7AC970FB6F894A8
:1055D000DEBF0FBECDBF8CE0EAE7F2E0DE019196C0
:1055E00001900D928A95E1F780E1E6E8F2E0DE01B4
:1055F000519601900D928A95E1F780E1E6E9F2E09B
:10560000DE01119601900D928A95E1F76E0181E21B
:10561000C80ED11C81EEE82E86E1F82E8E010F5EB9
:105620001F4F61EF76E1AE014F5F5F4F91EDA92E05
:1056300096E1B92E20E030E0F60181919191A1919F
:10564000B1916F01F70181939193A193B1937F0180
:10565000F80181919191A191B1918F01FB01819309
:105660009193A193B193BF01FA0181919191A1917D
:10567000B191AF01F50181939193A193B1935F0132
:105680002F5F3F4F24303105B9F60E942A8180E018
:1056900090E0AAEFB4E48093C9169093CA16A09341
:1056A000CB16B093CC168093C5169093C616A093D4
:1056B000C716B093C8161092CD161092CE1610923F
:1056C000CF161092D01680E29EE4A0E0B0E0809366
:1056D000011790930217A0930317B0930417109229
:1056E000B5161092B6161092B7161092B81680E042
:1056F00090E0A0EAB1E48093C1169093C216A09303
:10570000C316B093C4168DEC9CECACECBEE3809356
:10571000BD169093BE16A093BF16B093C01680E03E
:1057200090E0A0EAB0E48093B9169093BA16A093E3
:10573000BB16B093BC161092D2071092D3071092EA
:10574000D4071092D5071092CE071092CF0710926F
:10575000D0071092D1071092CA071092CB0710926F
:10576000CC071092CD0784EB90E09093391A809388
:10577000381A86E490E09093371A8093361A8FEFA8
:1057800090E09093351A8093341A20EF30E03093F4
:10579000331A2093321A24E630E03093311A2093E2
:1057A000301A90932F1A80932E1A80E290E09093F3
:1057B0002C1880932B188AE999E9A1EBB1E4809326
:1057C0004F0290935002A0935102B093520261E7AE
:1057D0007DE38AE89FE30E944C9560934B027093AF
:1057E0004C0280934D0290934E0260E070E084EE94
:1057F00092E40E9458956093470270934802809308
:10580000490290934A020E94638C80E090E0A0E8F5
:10581000BFE38093430290934402A0934502B09368
:10582000460282E08093690CEFEEF3E084918823D6
:1058300041F09091C00095FFFCCF8093C600319657
:10584000F5CFE0E9F1E08491882341F09091C00028
:1058500095FFFCCF8093C6003196F5CF8091C000B4
:1058600085FFFCCF8AE08093C600AC960FB6F89413
:10587000DEBF0FBECDBFDF91CF911F910F91FF9083
:10588000EF90DF90CF90BF90AF900895CF93DF93CC
:10589000CDB7DEB72A970FB6F894DEBF0FBECDBFE7
:1058A00084E690E09A87898786E591E3A1E3B0E0FA
:1058B00089839A83AB83BC8344E0BE016B5F7F4FD7
:1058C000CE01099632DA43E050E0BE016B5F7F4FB4
:1058D000CE0101960E94E8E2892B09F0B6C040E1B2
:1058E00061EE76E1CE01099620DA40E161EF76E1E2
:1058F000CE0109961ADA40E161ED76E1CE01099612
:1059000014DA0E942A8144E069EC76E1CE0109961E
:105910000CDA44E065EC76E1CE01099606DA44E063
:105920006DEC76E1CE01099600DA44E065EB76E1B4
:10593000CE010996FAD944E061E077E1CE010996FB
:10594000F4D944E061EC76E1CE010996EED944E069
:105950006DEB76E1CE010996E8D944E069EB76E19A
:10596000CE010996E2D94CE06AEC77E0CE010996C7
:10597000DCD942E065E17CE0CE010996D6D941E070
:1059800069E67CE0CE010996D0D942E068E37AE18D
:10599000CE010996CAD942E066E37AE1CE010996C2
:1059A000C4D942E064E37AE1CE010996BED942E06F
:1059B00062E37AE1CE010996B8D942E060E37AE188
:1059C000CE010996B2D942E06EE27AE1CE010996A3
:1059D000ACD944E06FE472E0CE010996A6D944E068
:1059E0006BE472E0CE010996A0D944E067E472E06E
:1059F000CE0109969AD942E06BE278E1CE01099690
:105A000094D90E94638CEFEEF3E08491882341F0F7
:105A10009091C00095FFFCCF8093C6003196F5CFE2
:105A2000E2EBF1E08491882341F09091C00095FF72
:105A3000FCCF8093C6003196F5CF8091C00085FFE2
:105A4000FCCF8AE08093C60001C0B3DD80DA2A96DD
:105A50000FB6F894DEBF0FBECDBFDF91CF91089592
:105A60001F920F920FB60F9211240BB60F922F9325
:105A70003F934F935F936F938F939F93EF93FF9316
:105A80006091C6002091D7053091D805C9010196D3
:105A90008F7799274091D9055091DA05841795079A
:105AA00041F0F901E95AFA4F60839093D805809349
:105AB000D705FF91EF919F918F916F915F914F91DA
:105AC0003F912F910F900BBE0F900FBE0F901F9024
:105AD00018959A01AB01211581EE38074105510552
